:020000041000EA
:10A900006F1090616F10D06B6F10D06B6F10D06BA9
:10A910006F10D06B6F10D06B6F10D06B6F10D06B4F
:10A920006F10D06B6F10D06B6F10D06B6F10D06B3F
:10A930006F10D06B6F10D06B6F10D06B6F10D06B2F
:10A940006F10D06B6F10D06B6F10D06B6F10D06B1F
:10A950006F10D06B6F10D06B6F10D06B6F10D06B0F
:10A960006F10D06B6F10B0206F10D06B6F10D01FB6
:10A970006F1050546F10D06B6F10D06B6F10D06B86
:10A980006F10D06B6F10D06B6F10D06B6F10D06BDF
:10A990006F10D06B6F10D06B6F10D06B6F10D06BCF
:10A9A0006F10D06B6F10D06B6F10D06B6F10D06BBF
:10A9B0006F10D06B6F10D06B6F10D06B6F10D06BAF
:10A9C0006F10D06B6F10D06B6F10D06B6F10D06B9F
:10A9D0006F10D06B6F10D06B6F10D06B6F10D06B8F
:10A9E0006F10D06B6F00C0186F10D06B6F10704677
:10A9F0006F10D06BB7C6011037560210938606074A
:10AA000013060607370700505C43858BF5FF9C4211
:10AA100091061CC7E39AC6FE8280A5CD011122CC07
:10AA200026CA4EC652C456C206CE4AC8AE89AA8AA3
:10AA3000328A01449304000013192400B3872A01C9
:10AA4000884352990504EF400036AA852320B900B7
:10AA500026854204EF40B02A4184AA84E34E34FDA7
:10AA6000014413192400529903250900A685050401
:10AA7000EF40705F42042320A9004184E34334FF88
:10AA8000F2406244D2444249B249224A924A0561A4
:10AA900082808280011106CE22CC26CA4AC84EC6C8
:10AAA00052C456C2EF10500D37B502401305058051
:10AAB000EF206049378693033705011013060670AF
:10AAC00095451305854EEF30401D370501101305E0
:10AAD000C550EF304031372401401C40C16501456D
:10AAE000EF10A07C370508409305000213050540D0
:10AAF000EF10900111241C401C40292AA5222D2C66
:10AB0000EF10201DC53D1C401C4083A7418691E7E6
:10AB10007300501083A74186E5DF37050840930591
:10AB2000000213050540EF109000B72701409C4339
:10AB3000B70A0120370A0110372401409309C003E6
:10AB4000138501D203290400EF10401D138501D2A3
:10AB500013864A0A93050012C9350C4013058A531F
:10AB6000B38525419605B3D53503EF300013C9BF32
:10AB7000397136D0B70610503ACE98423ECCED77B8
:10AB8000F91706DE16DC1ADA1ED82AD62ED432D2EF
:10AB900042CA46C872C676C47AC27EC07D8F98C249
:10ABA000B7055050984137069050B706D0507D8F6A
:10ABB00098C1184205457D8F18C29842F98F9CC2F2
:10ABC000EF10701037050140EF20006323A2A1862B
:10ABD000370707E5504FB706000293070702558E67
:10ABE00050CF585FF250E252558FD8CFD84F5253C2
:10ABF000C253558FD8CF3255A2551256825672473E
:10AC0000E2475248C248324EA24E124F824F216153
:10AC10007300203037070110B70718501307476E2D
:10AC2000B706185005437D5593E61600238066004D
:10AC300083284700130887001387F8FF6382080200
:10AC4000C2868C427D1791068CC39107E31BA7FE39
:10AC50008A08330718011443B687F9F60545828040
:10AC60004287D5BFB7070110B705011037871050CD
:10AC7000938787679385456E03C60700850711078D
:10AC8000232EC7FEE39AB7FEB7070110B7050110E0
:10AC900037875050938787619385856703C6070080
:10ACA00085071107232EC7FEE39AB7FEB7070110E9
:10ACB000B7050110378790509387875B938585612F
:10ACC00003C6070085071107232EC7FEE39AB7FEC8
:10ACD000B7070110B70501103787D0509387875504
:10ACE0009385855B03C6070085071107232EC7FEE2
:10ACF000E39AB7FE05458280B717005023A00700EE
:10AD0000B7871000A107370610501CC29306E04019
:10AD100054C24D4718C6370650501CC254C218C6FC
:10AD2000370690501CC254C218C63706D0501CC2F9
:10AD300054C218C6054582803971C163B7071050E7
:10AD400022DE26DC4ADA4ED852D656D45AD25ED00B
:10AD500062CE66CC6ACA6EC813841306056880CBBF
:10AD600023A88708130A0880896523A84731930818
:10AD700008B223A8B740216313030380B71F105004
:10AD800023A8175923A86FA09309800723A8376128
:10AD9000930AF00523A857693749020037070700CF
:10ADA00023A827791D07054523A8E77023A8AF80AE
:10ADB000894423A89F90938205403706505023A8CA
:10ADC0005F9800CA23288608232846312328B640E6
:10ADD000371F50502328165923286FA02328366187
:10ADE00023285669232826792328AF8023289F907B
:10ADF000B706905023285F9880CA23A8860823A806
:10AE0000463123A8B640B71E905023A8165923A850
:10AE10006EA023A8366123A8566923A8267923A803
:10AE2000AE8023A89E903707D05023A85E9800CB11
:10AE300023288708232847312328B740371ED050BE
:10AE40002328175923286EA0232837612328576900
:10AE5000232827792328AE8023289E9023285E98D4
:10AE6000C0CB23AA870823AAA718E56423AAA72092
:10AE7000938204C023AAA72823AA573023AAB74045
:10AE800023AA4751A68B930408BA23AA9758B7025E
:10AE9000800023AA6FA0138D820F370B600023AAB6
:10AEA000A761130BFB0823AA6769B76C0200FD5268
:10AEB00023AA9779B70A640023AA5770938A1A02C3
:10AEC00056C0824A130CC01223AA8F8123AA5F891D
:10AED000930AE01823AA5F9140CA232A8608232AEE
:10AEE000A618232AA620232AA628938B0BC0232A40
:10AEF0007631232AB640232A4651232A9658232AFC
:10AF00006FA0232AA661232A6669824B232A967999
:10AF1000232A8F81232A7F89232A5F91C0CA23AAEB
:10AF2000860823AAA61823AAA620E56B23AAA6288A
:10AF3000DE8A938B0BC023AA763123AAB64023AABC
:10AF4000465123AA965823AA6EA023AAA66123AA33
:10AF50006669824B23AA967923AA8E8123AA7E89C9
:10AF6000930BE01823AA7E9140CB232A8708232A3B
:10AF7000A718232AA720232AA72813840AC0232A34
:10AF80008730232AB740232A4751232A9758232A58
:10AF90006EA0232AA761232A67690244232A97798E
:10AFA000232A8E81232A8E881304E018232A8E9068
:10AFB0001384130380CF23AC870823ACA71823ACDA
:10AFC000A72023ACA72823AC073123ACB740130C30
:10AFD00008C0256D23AC8751130A0DBA23AC47591D
:10AFE00023AC6FA0B70A900023AC3761938A7A0A2A
:10AFF00023AC576923AC2779930BC009370A340077
:10B0000023AC7F81130A2A0223AC4F89130BE00C77
:10B0100023AC6F9100CE232C8608232CA618232C5A
:10B02000A620232CA628232C0631232CB640232C23
:10B030008651232C9658232C6FA0232C3661232C69
:10B040005669232C2679232C7F81232C4F89232C8E
:10B050006F9180CE23AC860823ACA61823ACA62023
:10B0600023ACA62823AC063123ACB64023AC8651D2
:10B0700023AC965823AC6EA023AC366123AC566942
:10B0800023AC267923AC7E8123AC4E8923AC6E9110
:10B0900000CF232C8708232CA718232CA720232C90
:10B0A000A728232C0731232CB740232C8751232C8E
:10B0B0009758232C6EA0232C3761232C5769232CFF
:10B0C0002779232C5770232C7E81232C4E89232C07
:10B0D0006E91138A930123AE470123AE470923AE35
:10B0E000B74023AE07519389038023AE1759370920
:10B0F000000123AE3FA11309891F5D4423AE2761E0
:10B1000023AE8768B7BB020023AE777923AE5770B2
:10B11000232E4601232E4609232EB640232E065108
:10B12000232E1659232E3FA1232E266137AB020072
:10B13000232E8668232E667923AE460123AE460968
:10B1400023AEB64023AE065123AE165923AE3EA120
:10B1500023AE266123AE866823AE6679232E47018F
:10B16000232E4709232EB740232E0751232E17598C
:10B17000232E3EA1232E2761232E8768232E677955
:10B1800080D323A0870AE56D23A0B73323A0A73A75
:10B190000D6923A0B742130909B24AC023A0275B57
:10B1A000371C001223A06FA2130C8C271309001068
:10B1B00023A08763B79A020023A02713938C0A0465
:10B1C00023A0977B23A0577200D22320860A232036
:10B1D000B6332320A63A2320B6422320165B232031
:10B1E0006FA223208663B78A020023202613232020
:10B1F000567B2320567280D223A0860A23A0B63322
:10B2000023A0A63A23A0B64223A0165B23A06EA2D9
:10B2100023A0866323A0261323A0567B00D32320DC
:10B22000870A2320B7332320A73A2320B7422320BD
:10B23000175B23206EA2232087632320271323205C
:10B24000577B23A2470323A2470B23A2773223A2D3
:10B25000B7422D6C23A20753130C0CB262C223A277
:10B26000875B370C800023A23FA3130C8C1723A20B
:10B27000876323A2876A23A2677B232246032322B4
:10B28000460B232276322322B64223220653232260
:10B29000165B23223FA3232286632322866A23226E
:10B2A000767B23A2460323A2460B23A2763223A257
:10B2B000B64223A2065323A2165B23A23EA323A2D7
:10B2C000866323A2866A23A2667B23224703232266
:10B2D000470B232277322322B7422322075323220C
:10B2E000175B23223EA3232287632322876A23221C
:10B2F000677B2322577280D723A4870A23A40733AE
:10B3000023A4A73A3D6C23A4B742130C0CB262C429
:10B3100023A4875B371C800D23A46FA2130C8CDF42
:10B3200023A4876323A4271323A4577B00D62324B5
:10B33000860A232406332324A63A2324B642232450
:10B34000165B23246FA2232486632324261323243D
:10B35000967B80D623A4860A23A4063323A4A63A88
:10B3600023A4B64223A4165B23A46EA223A486635F
:10B3700023A4261323A4567B23A4567200D7232488
:10B38000870A232407332324A73A2324B7422324FC
:10B39000175B23246EA223248763232427132324EB
:10B3A000577B2324577223A6470323A6470B156C0C
:10B3B00023A6B74223A60753130C0CB262C623A6DA
:10B3C000875B370C200223A63FA3130C8C3123A6E6
:10B3D000876323A6876A23A6677B23A65772232643
:10B3E00046032326460B2326B6422326065323264E
:10B3F000165B23263FA3232686632326866A2326FD
:10B40000667B23A6460323A6460B23A6B64223A6A5
:10B41000065323A6165B23A63EA323A6866323A674
:10B42000866A23A6767B232647032326470B2326FB
:10B43000B742232607532326175B23263EA3232642
:10B4400087632326876A2326677B80DB23A8870AF6
:10B4500023A8A71A23A8A72223A8A72A23A8B7337B
:10B4600023A8A73A1D6A23A8B742130A0ABA23A839
:10B47000475B372A201C23A86FA2130A8AC923A876
:10B48000476323A8271323A8577B23A8577200DA02
:10B490002328860A2328A61A2328A6222328A62A98
:10B4A0002328B6332328A63A2328B6422328965ABF
:10B4B00023286FA223284663232826132328567B9C
:10B4C0002328567280DA23A8860A23A8A61A23A85E
:10B4D000A62223A8A62A23A8B63323A8A63A23A8DF
:10B4E000B64223A8965A23A86EA223A8466323A88F
:10B4F000261323A8967B00DB2328870A2328A71A74
:10B500002328A7222328A72A2328B7332328A73AAA
:10B510002328B7422328975A23286EA2232847635B
:10B52000232827139384D3002328577BC4DB23AA23
:10B53000970A23AA773223AAB74223AA0753130DE7
:10B540000DB223AAA75B370AA001130A8A2923AAEE
:10B550003FA32D4423AA476323AA876A23AA677BB4
:10B5600044DA232A960A232A7632232AB642232A49
:10B570000653232A165B232A3FA3232A4663232A42
:10B58000866A232A667BC4DA23AA960A23AA76321D
:10B5900023AAB64223AA065323AA165B23AA3EA3D4
:10B5A00023AA466323AA866A23AA667B44DB232A4E
:10B5B000970A232A7732232AB742232A0753232ABA
:10B5C000175B232A3EA3232A4763232A876A232A59
:10B5D000777B232A577280DF23AC870A23AC07339B
:10B5E00023ACA73A356C23ACB742130C0CB223AC96
:10B5F000875B372AA01723AC6FA2130A8A8123AC7A
:10B60000476323AC271323AC577B00DE232C860A29
:10B61000232C0633232CA63A232CB642232C165B6C
:10B62000232C6FA2232C4663232C2613232C567B1A
:10B6300080DE23AC860A23AC063323ACA63A23ACC7
:10B64000B64223AC165B23AC6EA223AC466323AC9C
:10B65000261323AC567B23AC567200DF232C870ABB
:10B66000232C0733232CA73A232CB742232C175B18
:10B67000232C6EA2232C4763232C2713232C977B88
:10B68000232C5772C4DF23AE970A23AEB74223AEF2
:10B69000075323AE175B370A400323AE3FA3130AB9
:10B6A0008A4323AE476323AE876A938B0B0223AE94
:10B6B000777B23AE577244DE232E960A232EB642A2
:10B6C000232E0653232E165B232E3FA3232E4663E1
:10B6D000232E866A232E667BC4DE23AE960A23AE13
:10B6E000B64223AE065323AE165B23AE3EA323AE73
:10B6F000466323AE866A23AE667B44DF232E970A19
:10B70000232EB742232E0753232E175B232E3EA34F
:10B71000232E4763232E876A232E677BA0C323A093
:10B72000870C23A0B735024A23A0A73C23A0B74427
:10B7300023A0475D372A402623A06FA4130A8A6BF3
:10B7400023A04765379D020023A02715930C0D0504
:10B7500023A0977D23A0577420C22320860C23208A
:10B76000B6352320A63C2320B6442320165D232093
:10B770006FA423204665232026152320567D2320F1
:10B780005674A0C223A0860C23A0B63523A0A63CE5
:10B7900023A0B64423A0165D23A06EA423A0466573
:10B7A00023A0261523A0567D20C32320870C232009
:10B7B000B7352320A73C2320B7442320175D23203F
:10B7C0006EA423204765232027152320577DE4C33B
:10B7D00023A2970C23A27734924D23A2B74423A22D
:10B7E000075523A2B75D370AC00223A23FA5130A5B
:10B7F0008A3B23A2476523A2876C23A2677D64C28C
:10B800002322960C232276342322B6442322065583
:10B810002322165D23223FA5232246652322866C20
:10B820002322767DE4C223A2960C23A2763423A29F
:10B83000B64423A2065523A2165D23A23EA523A249
:10B84000466523A2866C23A2667D64C32322970CDF
:10B85000232277342322B744232207552322175D5E
:10B8600023223EA5232247652322876C2322677D5E
:10B8700023225774A0C723A4870C23A40735A2430F
:10B8800023A4A73C23A4B74423A4775CB723C021F7
:10B8900023A46FA49383832323A4776423A427156D
:10B8A00023A4577D20C62324860C23240635232475
:10B8B000A63C2324B6442324165D23246FA423240A
:10B8C0007664232426152324967DA0C623A4860C03
:10B8D00023A4063523A4A63C23A4B64423A4165DC2
:10B8E00023A46EA423A4766423A4261523A4567D42
:10B8F00023A4567420C72324870C2324073523242C
:10B90000A73C2324B7442324175D23246EA42324B7
:10B910007764232427152324577D23245774E4C7F1
:10B9200023A6970CB24323A6B74423A6075523A604
:10B93000775CB703600423A63FA59383835523A6B2
:10B94000776423A6876C23A6677D23A6577464C6F5
:10B950002326960C2326B644232606552326165D59
:10B9600023263FA5232676642326866C2326667D20
:10B97000E4C623A6960C23A6B64423A6065523A602
:10B98000165D23A63EA523A6766423A6866C23A671
:10B99000767D64C72326970C2326B74423260755B4
:10B9A0002326175D23263EA5232677642326876C4E
:10B9B0002326677DA0CB23A8870CC56423A89734D2
:10B9C00023A8A73C23A8B74423A8B75DB7336030AA
:10B9D00023A83FA59383831523A8776423A827155D
:10B9E00023A8577D23A8577420CA2328860C232810
:10B9F00096342328A63C2328B6442328165D232802
:10BA00003FA523287664232826152328567D23283E
:10BA10005674A0CA23A8860C23A8963423A8A63C53
:10BA200023A8B64423A8165D23A83EA523A87664C0
:10BA300023A8261523A8567D20CB2328870C23284E
:10BA400097342328A73C2328B7442328175D2328AD
:10BA50003EA5232877642328271593030D02232866
:10BA6000777CE0CB23AA870CE16323AA773423AA4F
:10BA7000A73C23AAB74423AA075523AA875D23AA74
:10BA80006FA4B72FE022938F8F3523AAF76523AADF
:10BA9000271523AA577D60CA232A860C232A7634C9
:10BAA000232AA63C232AB644232A0655232A165DB8
:10BAB000232A6FA4232AF665232A2615232A567DD6
:10BAC000E0CA23AA860C23AA763423AAA63C23AA7A
:10BAD000B64423AA065523AA165D23AA6EA423AA58
:10BAE000F66523AA261523AA967D23AA567460CB51
:10BAF000232A870C232A7734232AA73C232AB744F6
:10BB0000232A0755232A175D232A6EA4B707D0508E
:10BB1000232AF765B78F0200232A271523AAF77D6A
:10BB200023AA577437071050AD452CCF232CB70CE0
:10BB3000232C0735854E232CD73D0965A566232C7C
:10BB4000A744938606B2232CD75C37191050372FA1
:10BB50000024232C69A4130F8F47232CE765130EB1
:10BB60000010232CC715232CF77D2CCE232CB60CCC
:10BB7000232C0635232CD63D232CA644232C165DDE
:10BB8000B714505023AC64A4232CE665232CC615AF
:10BB9000B7069050232CF67DACCE23ACB60C23AC6C
:10BBA000063523ACD63D23ACA64423AC165D371432
:10BBB0009050232C64A423ACE66523ACC61523ACBB
:10BBC000F67DACCF23ACB70C23AC073523ACD73D07
:10BBD00023ACA74423AC175DB713D05023AC63A4A8
:10BBE00023ACE76523ACC71523AC977D23AC577412
:10BBF0006CCF232EB70C232ED73D232EA744232E04
:10BC00000755130F08921963232EE75D1303038072
:10BC1000B7388031232E69A49388881D232E176599
:10BC2000B75F0200232EC715938F0F06232EF77DD3
:10BC3000232E57746CCE232EB60C232ED63D232EE6
:10BC4000A644232E0655232EE65D23AE64A4232EA0
:10BC50001665232EC61537470200232EE67CECCE50
:10BC600023AEB60C23AED63D23AEA64423AE065576
:10BC700023AEE65D232E64A423AE166523AEC6155F
:10BC800023AEE67CECCF23AEB70C23AED73D23AE7C
:10BC9000A74423AE075523AEE75D23AE63A423AECE
:10BCA000176523AEC715725423AEE77C1305859044
:10BCB000B707005088C3E2545259C259325AA25AA7
:10BCC000125B825B724CE24C524DC24D05452161C4
:10BCD0008280411122C437D4180006C626C223A28E
:10BCE0000186B7041050930784809CC0130494808D
:10BCF000B707505080C3B707905080C3B707D050E4
:10BD000080C337050140EF10E04E0545852FB24056
:10BD100080C022449244054541018280370610507C
:10BD20002328063037171050C166232807A0A10624
:10BD300014C2AA871443B7161050930505082A8722
:10BD40009042130707022320C7FE90422322C7FE1A
:10BD500090422324C7FE90422326C7FE9042232808
:10BD6000C7FE9042232AC7FE9042232CC7FE904272
:10BD7000232EC7FEE396E5FC90423707105023A020
:10BD8000C708904223A2C708904223A4C708904244
:10BD900023A6C708214610C323280730370603000F
:10BDA00023A806A0210610C39842B7161050138787
:10BDB0000709938507119042130707022320C7FE46
:10BDC00090422322C7FE90422324C7FE904223269E
:10BDD000C7FE90422328C7FE9042232AC7FE904206
:10BDE000232CC7FE9042232EC7FEE396E5FC90422B
:10BDF0003707105023A8C710904223AAC7109042BB
:10BE000023ACC710904223AEC710214610C323288D
:10BE100007303706050023A806A0210610C3984264
:10BE2000B7161050138707129385071A904213070D
:10BE300007022320C7FE90422322C7FE90422324FC
:10BE4000C7FE90422326C7FE90422328C7FE904299
:10BE5000232AC7FE9042232CC7FE9042232EC7FE02
:10BE6000E396E5FC90423707105023A0C71A904292
:10BE700023A2C71A904223A4C71A904223A6C71A26
:10BE8000214610C3232807303706070023A806A041
:10BE9000210610C39842B71610501387071B9385CD
:10BEA00007239042130707022320C7FE9042232254
:10BEB000C7FE90422324C7FE90422326C7FE90422D
:10BEC0002328C7FE9042232AC7FE9042232CC7FE98
:10BED0009042232EC7FEE396E5FC904237071050B0
:10BEE00023A8C722904223AAC722904223ACC7228C
:10BEF000904223AEC722214610C323280730416653
:10BF000023A806A0210610C39842B7161050138725
:10BF100007249385072C9042130707022320C7FEAE
:10BF200090422322C7FE90422324C7FE904223263C
:10BF3000C7FE90422328C7FE9042232AC7FE9042A4
:10BF4000232CC7FE9042232EC7FEE396E5FC9042C9
:10BF50003707105023A0C72C904223A2C72C904231
:10BF600023A4C72C904223A6C72C214610C3232804
:10BF700007303706030023A806A0210610C3984205
:10BF8000B71610501387072D938507359042130776
:10BF900007022320C7FE90422322C7FE904223249B
:10BFA000C7FE90422326C7FE90422328C7FE904238
:10BFB000232AC7FE9042232CC7FE9042232EC7FEA1
:10BFC000E396E5FC90423707105023A8C73490420F
:10BFD00023AAC734904223ACC734904223AEC7345F
:10BFE000214610C3232807303706050023A806A0E2
:10BFF000210610C39842B716105013870736938551
:10C00000073E9042130707022320C7FE90422322D7
:10C01000C7FE90422324C7FE90422326C7FE9042CB
:10C020002328C7FE9042232AC7FE9042232CC7FE36
:10C030009042232EC7FEE396E5FC9042370710504E
:10C0400023A0C73E904223A2C73E904223A4C73EEE
:10C05000904223A6C73E214610C323280730370647
:10C06000070023A806A0210610C39842B716105057
:10C070001387073F93850747904213070702232042
:10C08000C7FE90422322C7FE90422324C7FE90425F
:10C090002326C7FE90422328C7FE9042232AC7FECC
:10C0A0009042232CC7FE9042232EC7FEE396E5FC68
:10C0B00090423707105023A8C746904223AAC7468C
:10C0C000904223ACC746904223AEC746214610C3D8
:10C0D00023280730416623A806A0210610C39842F2
:10C0E000B7161050138707489385075090421307DF
:10C0F00007022320C7FE90422322C7FE904223243A
:10C10000C7FE90422326C7FE90422328C7FE9042D6
:10C11000232AC7FE9042232CC7FE9042232EC7FE3F
:10C12000E396E5FC90423707105023A0C750904299
:10C1300023A2C750904223A4C750904223A6C750C1
:10C14000214610C3232807303706030023A806A082
:10C15000210610C39842B7161050138707519385D4
:10C1600007599042130707022320C7FE904223225B
:10C17000C7FE90422324C7FE90422326C7FE90426A
:10C180002328C7FE9042232AC7FE9042232CC7FED5
:10C190009042232EC7FEE396E5FC904237071050ED
:10C1A00023A8C758904223AAC758904223ACC75827
:10C1B000904223AEC758214610C3232807303706C4
:10C1C000050023A806A0210610C39842B7161050F8
:10C1D0001387075A938507629042130707022320AB
:10C1E000C7FE90422322C7FE90422324C7FE9042FE
:10C1F0002326C7FE90422328C7FE9042232AC7FE6B
:10C200009042232CC7FE9042232EC7FEE316B7FCB4
:10C2100090423707105023A0C762904223A2C76202
:10C22000904223A4C762904223A6C762214610C34E
:10C23000232807303706070023A806A0210610C3CD
:10C240009842B7161050138707639385076B904287
:10C25000130707022320C7FE90422322C7FE904205
:10C260002324C7FE90422326C7FE90422328C7FE00
:10C270009042232AC7FE9042232CC7FE9042232ED1
:10C28000C7FEE396E5FC9842054523A8E76A984275
:10C2900023AAE76A984223ACE76A984223AEE76A8A
:10C2A000B7071050214798C38280411106C6B76670
:10C2B00000403D4723A6E68023A2E68023A0E68037
:10C2C00023A4068023A60680B70600409C4E37476D
:10C2D000FCFF7D17F98FC98FCD8F9CCE65452D2D25
:10C2E0000525370707E5104BB7060002930707023D
:10C2F000558E10CB185BB2400545558F98CB984BA7
:10C30000558F98CB410182807971AA873EC428005D
:10C31000854706D62EC63EC802CAEF00B00F22459A
:10C32000B245EF00B004B250054545618280797195
:10C33000AA873EC42800854706D62EC63EC802CA34
:10C34000EF00500D2245B245EF00F004B250054514
:10C3500045618280AA8637C5011041111305859970
:10C3600006C6EF10901301A009456F00B005014506
:10C370006F00500501458280B79700403D4798C740
:10C38000F8D7F8DF014582807D5582807D55828017
:10C390007D5582807D558280011106CE22CC26CA31
:10C3A0004AC84EC629ED635AC004AE89B384C5009D
:10C3B0002E84354921A0638897023E8437250440A6
:10C3C000EF10C04B9375F50F2300B40037250440E0
:10C3D000EF10E04A0347040093071400E31D27FD14
:10C3E000A9472300F400330534410505F2406244B7
:10C3F000D2444249B249056182800145C5BFEF1070
:10C400000063A5471CC17D55D5B7011106CE22CCCE
:10C4100026CA4AC84EC67D15854763EBA7042E84FD
:10C42000B2893389C500A944634AC00015A8050430
:10C4300037250440EF10A0446304890283450400BB
:10C44000E39795FEB54537250440EF1040438345FB
:10C450000400372504400504EF106042E31089FE14
:10C460004E85F2406244D2444249B249056182801D
:10C47000EF10E05BA5471CC17D55E5B7B70701107C
:10C4800083A70748411122C406C62A846371F502B6
:10C49000131714002297B7C701100E079387479B05
:10C4A0002244BA97B240CC4388434101EDA5B7C5B9
:10C4B000011037C501101306F0029385459E130540
:10C4C00005A2493DF1B7B707011083A707484111FD
:10C4D00022C406C62A846371F5021317140022973A
:10C4E000B7C701100E079387479B2244BA97B24003
:10C4F000CC43884341019DADB7C5011037C501103C
:10C500001306A0039385459E130505A2A135F1B737
:10C5100083A7818637E700408DCB1C4B858B8DC36D
:10C520001C4BA146A18B91C71C5B14CB1C4BA18B50
:10C53000E5FF03A7018723ACE186054723AAE1862F
:10C54000B7E70040984B98CB82801C4B918B638758
:10C55000070E83A8C18683A6C1871383F8FF133310
:10C56000130003AE01870D03114837EF0040854EDD
:10C5700003270F0303A5818783A5818703A68187EE
:10C5800036952300E500B69513558700A380A500D6
:10C590003696935507012301B6007D186398D8019C
:10C5A00003A6818761833696A301E60003A78187EE
:10C5B0001A976377C70103A781871A9723ACE1868F
:10C5C000E31808FAB7E700409C4B858BB5DB138373
:10C5D000F8FF133313000D0337E80040214F854E59
:10C5E00083270801A18BB1DB832708032328E801F7
:10C5F00003A5818783A5818703A6818736952300BC
:10C60000F500B69513D58700A380A500369693D57F
:10C6100007012301B6006398D80103A68187E1834F
:10C620003696A301F60083A781879A97E3FAC7FBA2
:10C6300083A781879A9723ACF1865DB71C4B858BC6
:10C64000E38007F083A6C18783A8C18603AE018774
:10C65000BDBF397136D032D23ACE3ECC06DE16DCC2
:10C660001ADA1ED82AD62ED442CA46C872C676C452
:10C670007AC27EC0713DB70707E5D84F370600087C
:10C6800093860702518FD8CFDC5FF250E252D18FF0
:10C69000DCCE5253C2533255A255125682567247BF
:10C6A000E2475248C248324EA24E124F824F216199
:10C6B00073002030397136D032D23ACE3ECC06DE0D
:10C6C00016DC1ADA1ED82AD62ED442CA46C872C63A
:10C6D00076C47AC27EC0AD2EB70707E5D8473706C5
:10C6E000001093860702518FD8C7DC57F250E252F0
:10C6F000D18FDCC65253C2533255A25512568256C0
:10C700007247E2475248C248324EA24E124F824F01
:10C71000216173002030000097E2FFFF9382921E98
:10C7200073905230170101101301C18D9741001011
:10C730009381810DD12A3DED938241861383018A35
:10C7400063D7620023A002009102E3CD62FE9792BC
:10C75000010093822292174300101303E38A93830C
:10C760004180635A730003AE02002320C30191028B
:10C770001103E34A73FE979201009382E28F1743FD
:10C7800000101303A38893834186635A730003AE9A
:10C7900002002320C30191021103E34A73FE938236
:10C7A000018A1383017163D7620023A00200910202
:10C7B000E3CD62FEA12AEF102028EFE0AFAD01200B
:10C7C00001200100012001000120010001200100E1
:10C7D00001200100012001000120010001200100D1
:10C7E00001200100012001000120010001200100C1
:10C7F00001200100012001000120010001200100B1
:10C8000001200100012001000120010001200100A0
:10C810000120010001200100012001000120010090
:10C820000120010001200100012001000120010080
:10C830000120010001200100012001000120010070
:10C840000120010001200100012001000120010060
:10C850000120010001200100012001000120010050
:10C860000120010001200100012001000120010040
:10C870000120010001200100012001000120010030
:10C880000120010001200100012001000120010020
:10C890000120010001200100012001000120010010
:10C8A00001200100012001000120010001208280FF
:10C8B00083A7018881CF37C701203E95130707C0A2
:10C8C0006365A70223A0A1883E858280B717012057
:10C8D000138787F123A0E188938787F137C7012069
:10C8E0003E95130707C0E37FA7FC411106C6EF1072
:10C8F0000014B240B1471CC1FD573E854101828002
:10C90000735004308280828001458280411106C6C6
:10C91000DD3FB2404101B9BC9307F00363FFA700BC
:10C92000370708405447130505FC8547B397A70010
:10C9300093C7F7FFF58F5CC78280FD47370700403C
:10C9400063FCA700344701158547B397A70093C739
:10C95000F7FFF58F3CC7828054538547B397A700F4
:10C9600093C7F7FFF58F5CD38280370700401C47E1
:10C97000E98FF5DF014582809D4763EAA706B7C7C7
:10C980000110938787B30A053E951C4182873707BC
:10C9900000401C47B706080037050008D58F1CC7A4
:10C9A000E9B7370700401C47B706100037050010ED
:10C9B000D58F1CC7F5B7370700401C47B7060400E2
:10C9C00037050004D58F1CC7E1BF37C5011013051B
:10C9D00005B289A437050020E1B7370700401C479E
:10C9E000B706020037050002D58F1CC755BF755525
:10C9F00082809307F00363F0A702130505FC8547C7
:10CA0000B397A700370708401CC7B70608409846E9
:10CA10007D8F75FF8280FD4763FFA7000115854765
:10CA2000B397A700370700407CC3B7060040F84221
:10CA30007D8F75FF82808547B397A7003707004039
:10CA40005CC3B7060040D8427D8F75FF82802DA061
:10CA50003785024081A8BD4763EEA70051473305E3
:10CA6000E5029387011AAA979843755509C7DC47D1
:10CA7000C843828075558280BD4763E3A702514752
:10CA80003305E5029387011AAA979843755511CB90
:10CA9000DC4793F5F5050145D843D98DCCC3828099
:10CAA00075558280011122CC4AC806CE26CA4EC6D0
:10CAB00052C456C2B78702402A890144630FF50069
:10CAC000B7C5011037C501101306A01A938585B5A7
:10CAD0001305C5BAEFF01F884154D144B304940242
:10CAE0009387011A930904013D4A854ABE94637FE6
:10CAF0008A000504D104E39C89FEF2406244D244DA
:10CB00004249B249224A924A056182809C40F5D34B
:10CB100003274900B3978A00F98FE1DF9C4881C75A
:10CB200081452285829722853D37AA852285053752
:10CB300083274900DDFFD1B7411122C406C6937790
:10CB400015002A8499C30145C13B9377240099C3FA
:10CB50000545D9339377440081C7130500046D3B25
:10CB600022852244B24041016F00505837070840E7
:10CB7000130707606310E502B7760040938606C08E
:10CB800090521397350093F71500418BD18FD98FB1
:10CB90009CD2828075A4B707084093870760631210
:10CBA000F502B7760040938606C093973500905201
:10CBB000C18B13F71500D98F93C7F7FFF18F9CD264
:10CBC000828049A46F001055B7070840938707601B
:10CBD0006318F500B777004093870780CCCF828039
:10CBE000A5A4B7070840938707606303F500B9ACB5
:10CBF000B777004093870780C84F82803707084087
:10CC0000130707606316E500014581E53D55828005
:10CC100081A48280011122CC004126CA06CE4AC8D6
:10CC20004EC6B7870040AA8401456304F402B79753
:10CC300000400545630FF400B7070840138707401D
:10CC400009456308E400938707600D456303F4001A
:10CC50007D5585493395A900C535D0408C4822853E
:10CC6000713F2A8905E19840B7070840938707601C
:10CC70008C446318F712638A350789476387F50880
:10CC800091C93D59F2406244D244B2494A85424971
:10CC900005618280DC40B7760040938606C013961B
:10CCA0001700139747008C52098A13770702518F98
:10CCB0001347F7FF6D8F98D285839846858BD18F68
:10CCC00093C7F7FFF98F9CC6DC441147E36BF7FA73
:10CCD00037C701101307C7BB8A07BA979443377742
:10CCE0000040DC40130707C08286DC40B776004076
:10CCF000938606C08C521396170013974700098A33
:10CD000013770702518F4D8F7DB7DC40B776004017
:10CD1000938606C08C521396170013974700098A12
:10CD200013770702518F4D8F98D298468583858B54
:10CD3000D18FD98F49BF9396270010539607918AB8
:10CD400093F70704D58FD18F1CD39C4485DF2285B0
:10CD50006244D040CC48F240D2444249B2490561D5
:10CD6000BDAA0C539396370013F61700C18A4D8E57
:10CD7000D18E14D39396270096071053918A93F778
:10CD80000704D58F93C7F7FFF18F7DBF93963700C8
:10CD90001053C18A93F51700CD8E93C6F6FFF18E1E
:10CDA000C9BFD0402285D12841E9DC4411476367DF
:10CDB000F70837C70110130707BD8A07BA979843CA
:10CDC000DC400287385093C7F7FF7D8F38D078500A
:10CDD000F98F7CD09DBF38505D8F38D0785093C785
:10CDE000F7FF7D8F78D013070408145FF58F1CDFE1
:10CDF000A9BF38505D8F38D0745013C7F7FF758FB7
:10CE000078D013070408145FD58FD5B7345013C7F3
:10CE1000F7FFF98E34D07450D58F7CD09307040877
:10CE2000945F758F98DF15B7345013C7F7FF758F70
:10CE300038D078505D8FE9B72A89A9B5755999B569
:10CE40004CCD82800CD182802CC58280284182808A
:10CE500091C58547638DF500755582808327050C44
:10CE60001346F6FF7D8E2320C50C01458280832763
:10CE7000050CD18F2320F50CCDBF1C59D18F1CD9A7
:10CE800050C1954763EBB704B7C70110938747BEFE
:10CE90008A05BE959C41828750C950C130D970DD4A
:10CEA0001305050810C50145828010C9FDB7930719
:10CEB000050890C770DD30D9F5B79307050890C70E
:10CEC00070DD70D5C5B79307050890C730DDE5B7AD
:10CED0009307050890C730DDEDB775558280894707
:10CEE0006384F50463EFB7009347F6FF8DE91305FC
:10CEF000050818597D8F18D95859F98F5CD9014503
:10CF000082808D47638CF502130505081C59134672
:10CF1000F6FFF18F1CD95C597D8E50D9CDB7130522
:10CF200005081859518FC1BF1305050818599347B3
:10CF3000F6FFF98F1CD95C59D18FC9B713050508C5
:10CF40001C59D18FC5BF09A0832705104167F99BE4
:10CF50002320F51085472320F57083270510F98FCE
:10CF6000EDDF83270510416793E717002320F510B5
:10CF700083270510F98FEDDF8280011126CA4AC888
:10CF800052C406CE22CC4EC6B7070140AA842E89D1
:10CF9000328A6309F508B7170140631DF50005449F
:10CFA00085ED7D55F2406244D2444249B249224A5D
:10CFB00005618280B72701406303F506B73701405A
:10CFC000630CF504B7170840138707C06303E50433
:10CFD0006312F5021544F1D58327C9001147F917EB
:10CFE000636FF71037C701108A071307C7C5BA97D1
:10CFF0009C438287DDD5B7C5011037C501101306E4
:10D0000050029385C5BF130505C5EFF0AFB47D543D
:10D01000E1B71144F1F171B70D44DDFD59B7094491
:10D02000C5FD41B70144CDF9ADBF8D4763C9871A2E
:10D030000145EFF07F94B7859303938505702685AE
:10D040007D2A8549954763E7870EB7C70110938707
:10D0500007C70A043E941C4082871545EFF0DF9114
:10D0600093294400B785700026858609492AD9BFCF
:10D0700091476317F4021945EFF01F90A1652685CB
:10D08000BD2A854937C50110130585A461361305EE
:10D090002004EFF01F9613052004EFF0FF8759A836
:10D0A0008D4763CE87121945EFF01F8DA165268548
:10D0B000B9228D4941BF8D4763D387120D45EFF0EB
:10D0C000BF8B9D65938505532685152A89499DBF8C
:10D0D00095476316F4101545EFF01F8AB7150E003B
:10D0E0002685312A854937C50110130505A31D364C
:10D0F00013053004EFF0FF8F1305300479BFB70735
:10D10000012083A50700268581498581CD281DBF83
:10D110001545EFF01F8E3D45EFF01F80630C0A00B0
:10D120000327890089476302F70237C501101305F9
:10D1300085B0CD346244F240224A4E86CA85B24957
:10D1400042492685D244056155A437C5011013050F
:10D1500085AAC5B71945EFF0DF894145EFF0CFFB50
:10D16000E30A0AFC0327890089476307F70037C5EC
:10D170000110130505AF75BF37C50110130505A9CB
:10D180004DBF1D45EFF0FF864545EFF0EFF8E30397
:10D190000AFA0327890089476307F70037C501109A
:10D1A000130585AD79B737C50110130585A751B7AC
:10D1B0002145EFF01F844945EFF00FF6E30C0AF626
:10D1C0000327890089476307F70037C50110130556
:10D1D00005AC85B737C50110130505A699BF3D55A8
:10D1E000D1B335A641AEC5AE81A95DA96F00807BE4
:10D1F0006F00607F6F00A07C6F00C07CA5A3411111
:10D2000022C406C6370701402E8481476308E5041F
:10D210003717014085476303E504372701408947F5
:10D22000630EE502373701408D476309E502371782
:10D230000840930607C091476302D5029547630FE4
:10D24000E500B7C5011037C50110130660099385C5
:10D2500085C8130505C5EFF0EF8FFD571387012E25
:10D260008E07BA97B240C0C3224405472380E70027
:10D27000410182803707014081476306E506371781
:10D28000014085476301E506372701408947630C64
:10D29000E504373701408D476307E5043717084039
:10D2A000930607C091476300D5049547630DE502D7
:10D2B000B7C5011037C501104111130505C5130687
:10D2C000000A938585C806C6EFF0CF88FD571387FF
:10D2D000012E8E07BA9703C70700655511C3C843CF
:10D2E000B240410182801387012E8E07BA9703C78F
:10D2F0000700655519C3C84382808280411122C44A
:10D3000026C206C6B70701402A84AE846302F5042C
:10D31000B7170140630EF502B7270140630AF50213
:10D32000B73701406306F502B7170840138707C0F7
:10D330006300E502630EF500B7C5011037C50110A3
:10D340001306E00A938585C8130505C5EFF08F80A5
:10D35000C9C89044144811679307E6FF93B71700B4
:10D3600092073317F700558FA14618C8B396F600F9
:10D37000184C758F75DFD84014483317F700558F58
:10D3800018C8D848144822073317F700558F18C813
:10D3900005473317F7009306001018C0B396F60040
:10D3A0005844758F75DF98483317F70058C0144CF0
:10D3B0000967B317F70093C7F7FFF58F1CCC8947B0
:10D3C0006311F6021C4C37070001D98F1CCC1C4896
:10D3D00037070080D98F1CC8370704001C4CF98F11
:10D3E000F5DFB2402244924441018280411122C4BF
:10D3F00026C24AC006C6B70701402A842E89B284D5
:10D400006302F504B7170140630EF502B727014028
:10D41000630AF502B73701406306F502B717084003
:10D42000138707C06300E502630EF500B7C501105E
:10D4300037C5011013060003938585C8130505C57C
:10D44000EFE05FF17D556309090A8327890013F72F
:10D45000370051C3184C0607058318CC5844C166E1
:10D460008506558F58C40547636CF706184C93F62C
:10D470003400719B558F18CC14480327090093F68C
:10D48000F6F01377070F558F18C88DEB184CB706B9
:10D490000300C204F58CB706FDFFFD16758FD98C0D
:10D4A0000327090004CC14483706F0003207718FB7
:10D4B000370610FF7D16F18E558F18C803274900D7
:10D4C000A14663EAE602B7C601100A079386C6CDF5
:10D4D000369718430287184CB7060080558FB5BFA2
:10D4E0000947E385E7FAD9BF09473D556386E70059
:10D4F000CA85228521350145B24022449244024921
:10D50000410182800947E395E7FE3D55F5B741119A
:10D5100022C406C6B70701402A846302F504B71780
:10D520000140630EF502B7270140630AF502B737E1
:10D5300001406306F502B7170840138707C0630070
:10D54000E502630EF500B7C5011037C501101306DB
:10D55000500E938585C8130505C5EFE0BFDF1C4855
:10D560002167D98F1CC81C4C918BF5DFB240224437
:10D5700041018280411122C406C6B70701402A84B6
:10D580006302F504B7170140630EF502B7270140A7
:10D59000630AF502B73701406306F502B717084082
:10D5A000138707C06300E502630EF500B7C50110DD
:10D5B00037C501101306F00E938585C8130505C500
:10D5C000EFE05FD91C4861777D17F98FB2401CC826
:10D5D000224441018280411122C406C6B70701409E
:10D5E0002A846302F504B7170140630EF502B727DA
:10D5F0000140630AF502B73701406306F502B71729
:10D600000840138707C06300E502630EF500B7C545
:10D61000011037C501101306C014938585C8130582
:10D6200005C5EFE03FD35C4441670507D98FB240A1
:10D630005CC4224441018280411122C426C206C634
:10D64000B70701402A84AE846302F504B71701408E
:10D65000630EF502B7270140630AF502B7370140B0
:10D660006306F502B7170840138707C06300E50299
:10D67000630EF500B7C5011037C501101306501928
:10D68000938585C8130505C5EFE0DFCC04C05C4475
:10D6900093F70710EDDFB2402244924441018280AB
:10D6A000797122D426D206D6B70701402A84AE84E7
:10D6B0006302F504B7170140630EF502B727014076
:10D6C000630AF502B73701406306F502B717084051
:10D6D000138707C06300E502630EF500B7C50110AC
:10D6E00037C501101306201A938585C8130505C593
:10D6F000EFE05FC6A1CCB707012003A507003746BE
:10D700000F00130606240581B335950281463305C3
:10D710009502EF10D02381479DED92072ACC2285F8
:10D720003EC402C602C802CA02CE6D3C01462C00AD
:10D730002285EFF09F841C4C370700802285D98F0B
:10D740001CCCEFF05FAA2285EFF0BFA9B2502254A3
:10D750009254456182801397F5010581598D858129
:10D7600085075DBF397122DC26DA4AD84ED606DE3F
:10D7700052D456D25AD05ECEB70701402A84AE8921
:10D78000B28436896302F504B7170140630EF502CF
:10D79000B7270140630AF502B73701406306F50277
:10D7A000B7170840138707C06300E502630EF50052
:10D7B000B7C5011037C501101306A01C938585C895
:10D7C000130505C5EFE01FB92285032A0401EFF018
:10D7D0007FAA2A846342050637460F0013060624F3
:10D7E0003346C502135A4A00137AFA008547B397A5
:10D7F0004701130A803EB38AF9029356F641B3A952
:10D800003703B3375A03330B3A03B30B5A033E9B28
:10D81000DA855E85EF10B013814799C9334644031A
:10D820005E85DA859356F641EF10701295E18547D3
:10D8300088C02320F9000144F25022856254D2545A
:10D840004259B259225A925A025BF24B21618280AC
:10D850009356F44122865E85DA8536C6EF10300F86
:10D86000B2468947F1D522865685CE85EF10300E17
:10D8700071548D47D5DDC9B781A0B1A021A039A8C9
:10D88000A1A8B9A8411122C406C62A842285CD3F89
:10D8900075DD22852244B2404101F9BF011122CC3D
:10D8A00006CE2A8422852EC6E93FB24565DD228553
:10D8B0006244F2400561D1B75C41C18B99E30851E4
:10D8C00082804D5582805C4193F7070881E70CD137
:10D8D0000145828051558280484121813D89828065
:10D8E0005C412145B183BD8B1D8D8280411122C4D5
:10D8F00083C7418806C691EB130600208145138536
:10D900000151512285472382F188B24022440145CA
:10D9100041018280011122CC06CE26CA4AC84EC6D9
:10D920008D472A8463F4A704B7C5011037C50110D9
:10D930001306E004938505D0130585D5EFE09FA17C
:10D9400001494A85EFF0EFA9AA85AA844A85EFF03C
:10D95000AFA71E04138901519389013195E4F24068
:10D960006244D2444249B24905618280378900400D
:10D9700069D9B7C701101307F5FF0A07938787D73F
:10D98000BA9703A9070075BF93F7140089CBB307B3
:10D9900024019C4389C7330734010843829785805B
:10D9A00011046DBF411122C406C62A84EFF09F8383
:10D9B00022852244B240814541016FF0FF82FD552E
:10D9C0006FF0BF82411106C622C426C2AA84EFF0BE
:10D9D0003F822A842685EFF07F81B240228522444F
:10D9E0009244410182800C4101117400300006CE46
:10D9F000EFF0DF8032478946A2476300D7028D46A9
:10DA00006302D70285463E856306D7001305803E34
:10DA100033D5A702F240056182801305803E33852D
:10DA2000A702CDBF37450F0013050524CDBF17252D
:10DA300000100325655D8280411122C426C2138433
:10DA4000418693844186818C4AC006C689840149F7
:10DA5000631199021384418693844186818C898461
:10DA60000149631D9900B240224492440249410198
:10DA700082801C40050911048297D9BF1C4005090A
:10DA800011048297F9BF2A8311C62300B3007D16C3
:10DA9000050365FE8280C5C183A7C5FF011122CCA5
:10DAA00006CE1384C5FF63D307003E942AC6EF0059
:10DAB000B0241387C1881C43324589EB232204001C
:10DAC00000C36244F24005616F007023637DF4007F
:10DAD0001040B306C4006396D7009443DC43B2966B
:10DAE00014C05CC0F1BF3E87DC4399C3E37DF4FE04
:10DAF00014433306D700631F86001040B29614C348
:10DB00003306D700E39FC7FA9043DC43B29614C3B1
:10DB10005CC345BF6375C400B1471CC15DB710400D
:10DB2000B306C4006396D7009443DC43B29614C096
:10DB30005CC040C379B7828041114AC01389818893
:10DB40008327090022C426C206C6AA842E8489E738
:10DB5000814545242320A900A2852685592C7D597D
:10DB6000631A25017D54B240228522449244024921
:10DB700041018280130435007198E30685FEB305E8
:10DB8000A4402685BD24E31025FFE9BF011126CA64
:10DB900093843500F1984AC806CE22CC4EC6A10423
:10DBA000B1472A8963F4F406B14463E3B4064A85B5
:10DBB000EF0090149389C18883A709003E8425E46F
:10DBC000A6854A85953FFD572A846316F50C03A464
:10DBD0000900A287DDE78329040081454A85A299CF
:10DBE000092C6393A90A1C408D049D8CF198A10413
:10DBF000B14763F3F400B144A6854A85353FFD572C
:10DC00006304F5081C40A6971CC03DA8E3DF04F898
:10DC1000B1472320F9000145F2406244D244424911
:10DC2000B249056182801440858E63C906042D4780
:10DC3000637ED70204C0330794006397870223A052
:10DC4000E9005C4014C35CC34A85EF00500B130528
:10DC5000B4009307440061993307F540E30EF5FAE9
:10DC60003A94898F1CC04DBFD8C3E1BF584063951B
:10DC7000870023A0E900C9BFD8C3F9B7A2874040F5
:10DC80003DBF3E84DC43B9B7B1472320F9004A8544
:10DC9000EF00F00649B704C145BF5D7122D406D636
:10DCA0002A842EDA32DC36DEBAC0BEC2C2C4C6C690
:10DCB000172500100325453511C51C4D81E72AC6DF
:10DCC000452B32450C455418228636CEEF00500ABB
:10DCD000B250225461618280011126CA06CE22CC44
:10DCE0004AC84EC652C4AA8419E11C4502901C4D74
:10DCF0002E89A5E7B52B9C4C8044B5C397E700005F
:10DD00009387870C6310F406C0407C50858B81EBB1
:10DD10008357C40093F7072099E3284CD92D8357E4
:10DD2000C400A18B99C31C48C5E7A285268575222E
:10DD300045C1FD547C50858B81EB8357C40093F71C
:10DD4000072099E3284C7D25F24062444249B249BC
:10DD5000224A2685D24405618280004545B7268542
:10DD6000012B69BF97E70000938707046314F40051
:10DD7000804461BF97E7000093870701E317F4F839
:10DD8000C04461B71CC4050963C907021C4013875E
:10DD9000170018C02380B7001C4483450900FD17F5
:10DDA000F5F11CC463D907022286A9452685B52052
:10DDB000FD57E300F5F8A944B5BF184C63C4E7006C
:10DDC000E39645FD228626858928E31735FD95B71C
:10DDD000FD59294AD1B71C401387170018C029479D
:10DDE0002380E700C9BFAA85172500100325C52198
:10DDF000E5B5411122C42A842E8523AE018806C6CA
:10DE0000EFE01FABFD576316F50083A7C18991C3EF
:10DE10001CC0B240224441018280011122CC26CA9A
:10DE20004AC806CE4EC6AA842E89328401C51C4D2E
:10DE300091E33D2997E70000938707F96318F402FF
:10DE4000C0401C4C1CC48357C400A18B99C31C4800
:10DE500095EFA2852685512015C97D59F24062446F
:10DE6000D244B2494A8542490561828097E7000061
:10DE7000938787F36314F4008044E1B797E70000C9
:10DE8000938787F0E31FF4FAC04465BF1C4808403D
:10DE90009379F90F1379F90F1D8D5C486346F500EE
:10DEA000A2852685852C55F91C440505FD171CC443
:10DEB0001C401387170018C0238037015C48638912
:10DEC000A7008357C400858BD1DBA947E318F9F875
:10DED000A2852685812459D149B7411122C426C281
:10DEE0004AC006C69724001083A404122A892E84EF
:10DEF00089C49C4C99E32685A52E97E7000093875B
:10DF0000A7EC6314F402C0408317C40013F7870022
:10DF100035EB13F7070115EB25472320E90093E7BD
:10DF200007042316F4007D5561A897E70000938746
:10DF3000A7E76314F4008044C1BF97E7000093870C
:10DF4000A7E4E313F4FCC044C1B7918B95C74C58C8
:10DF500091C9930744046385F5004A85EFF0BFB388
:10DF6000232A04028357C4002322040093F7B7FD39
:10DF70002316F4001C481CC08357C40093E7870095
:10DF80002316F4001C4881EF8357C40013070020B8
:10DF900093F707286385E700A2854A855D298317E3
:10DFA000C40013F717001DC3584823240400330787
:10DFB000E04018CC1848014501E713F7070825F39E
:10DFC000B2402244924402494101828013F7270063
:10DFD000814611E3544814C4F1BF8397C500011171
:10DFE00022CC26CA06CE4AC84EC613F78700AA849A
:10DFF0002E8471E7D8416345E000B8416359E008D9
:10E00000585451C7B18303A90400858B23A0040091
:10E010000C50A1CF70488357C400918B99C75C40C6
:10E020001D8E5C5899C33C401D8E5C540C5081463B
:10E0300026858297FD57630EF5041C480567232249
:10E0400004001CC08357C400F98F91C368C84C58A2
:10E0500023A024018DCD930744046385F500268514
:10E06000EFF07FA3232A04021DA0014685462685E2
:10E070000297FD572A86E310F5FA9C40C9DF7547E1
:10E080006385E70059476395E70623A0240101450E
:10E09000BDA098408317C40001CFF5466305D700A3
:10E0A000D9466319D7041C48232204001CC045B775
:10E0B0001848B1832322040018C0858B79B783A93F
:10E0C0000501E38609FC03A905008D8B23A035011A
:10E0D00033093941014791E3D84918C4E35920FB7A
:10E0E0001C540C50CA864E86268582976340A00237
:10E0F0008317C40093E707042316F4007D55F2400C
:10E100006244D2444249B24905618280AA993309E6
:10E11000A940E9B79C49411106C622C426C281EB39
:10E120008144B24022442685924441018280AA84DF
:10E130002E8401C51C4D91E3252A97E700009387A3
:10E14000A7C8631DF402C0408317C400F1DB7850F8
:10E15000058B11E793F7072099E3284C592C268566
:10E16000A285A53D7C50AA84858BC5FF8357C4003A
:10E1700093F70720DDF7284CB52C65B797E700002B
:10E18000938787C26314F40080447DBF97E7000043
:10E19000938787BFE31AF4FAC0447DB7411122C4C4
:10E1A00006C62A842316B5002317C50023200500C0
:10E1B0002322050023240500232205062328050029
:10E1C000232A0500232C0500214681451305C5059A
:10E1D000EFF07F8B97170000938707A05CD097170D
:10E1E0000000938767A21CD4971700009387A7A607
:10E1F0005CD497170000938767A9B24000D01CD861
:10E20000224441018280970500009385E5F0A5AA8C
:10E21000411126C2930780069384F5FFB384F4026C
:10E220004AC02E8922C406C693854407EFF01F9684
:10E230002A8401CD2320050023222501310508C4AD
:10E24000138684068145EFF01F84B2402285224464
:10E2500092440249410182801385418959AA13855C
:10E26000418949AA1385818969A21385818959A2A7
:10E27000411122C406C62A84F5371C4C89C72244A2
:10E28000B2404101DDB797070000938707F81CD41F
:10E2900023240404232604042328040497270000CD
:10E2A00083A7871E6394870085471CCC22853D2069
:10E2B00048C02285252008C422850D2048C4484036
:10E2C00001469145E13D08440546A545C13D484408
:10E2D0000946C945E13585471CCC55B7411126C2D1
:10E2E0004AC006C622C42A89853F9724000083A419
:10E2F000A4199C4C99E32685A53F9384840480440B
:10E30000DC40FD1763D607009C40BDC38440C5BFF9
:10E310000317C40039EBC17785075CC41305840576
:10E3200023220406F120253F214623200400232434
:10E3300004002322040023280400232A0400232CA1
:10E34000040081451305C405EFF0EFF3232A04020E
:10E35000232C04022324040423260404B24022852F
:10E36000224492440249410182801304840651BF31
:10E3700091454A85713D88C02A8449F9CD35B14718
:10E380002320F900E1BF797122D44AD04ECE52CC7D
:10E390005AC85EC606D626D256CA2A892E8A1304C1
:10E3A00085048149054BFD5B0444832A4400FD1A22
:10E3B00063D00A0200406DF8B250225492540259C0
:10E3C000624AD24A424BB24B4E85F2494561828045
:10E3D00083D7C400637BFB008397E40063877701E6
:10E3E000A6854A85029AB3E9A90093848406C1B739
:10E3F0008280828082805971A2D42E848395E50028
:10E40000A6D2CAD086D6B284368963D30502835792
:10E41000C40093F7070895EB13070040B650265445
:10E420002320F90098C00659965401456561828001
:10E430003000EF00100BE34C05FC3247BD67F98F4D
:10E440007977BA9793B71700C1BF814713070004C4
:10E45000F1B783D7C500797122D406D626D24AD027
:10E460004ECE898B2E8491CF930774041CC01CC898
:10E4700085475CC8B250225492540259F249456112
:10E48000828074003000AA84BD37A2492A8926857B
:10E49000CE85EFF0AFEF01ED8317C40013F707202F
:10E4A00071FBF19B93E727002316F40075BF9707D4
:10E4B0000000938787D59CD48357C40008C008C840
:10E4C00093E707082316F400B247232A340191CFBB
:10E4D0008315E4002685EF00700301C98357C4004B
:10E4E000F19B93E717002316F4008357C40033E52C
:10E4F00027012316A400BDBF13850189DDBD138547
:10E500000189CDBD1C46FD171CC663DA0700184EF5
:10E5100063C5E700A9476394F5006FF01F901C42A4
:10E520002E851387170018C22380B700828001113F
:10E5300022CC26CA4AC84EC652C406CE2A89AE8903
:10E540003284B304D6007D5A63149400014509A8AF
:10E55000834504004E864A8575370504E31645FF5A
:10E56000F2406244D2444249B249224A0561828063
:10E57000357122CD26CB4AC94EC706CF52C556C3E8
:10E580005AC1DEDEE2DCE6DAAA892E843289B6845C
:10E5900001C51C4D91E3E93997E700009387C782D5
:10E5A000631AF40403A449007C50858B81EB8357E4
:10E5B000C40093F7072099E3284C253D8357C400F6
:10E5C000A18B99C31C48ADE3A2854E85EFF0FF9067
:10E5D00021CD7C50858BA9C37D55FA406A44DA442D
:10E5E0004A49BA492A4A9A4A0A4BF65B665CD65CA3
:10E5F0000D61828097D700009387077B6315F40035
:10E6000003A4890055B797D700009387E777E31DE8
:10E61000F4F803A4C90049BF8357C40093F7072047
:10E62000C5FF284CC13B4DBF93070002A304F10274
:10E630009307000302D22305F10226C6930B500272
:10E6400097DA0000938A4A7A054C294BCA8483C71B
:10E65000040099C3639B7709B38C2441638D240123
:10E66000E6864A86A2854E85D935FD57630EF51894
:10E670009257E6973ED283C7040063870718FD5779
:10E680001389140002C802CE3ECA02CCA3090104B9
:10E6900082D48345090015465685D925C24793047F
:10E6A000190031E513F7070109C713070002A30991
:10E6B000E10413F7870009C71307B002A309E104B7
:10E6C000834609001307A002638BE602F247CA845F
:10E6D0008146254603C7040093851400130707FDF0
:10E6E0006375E6068DC63ECE1DA085048DB7330545
:10E6F00055413315AC00C98F3EC8268959BF3247F2
:10E7000093064700184336C6634A07023ACE03C74A
:10E7100004009307E002631EF70403C71400930785
:10E72000A002631AF702B2478904138747009C438B
:10E730003AC663D30700FD573ECA25A83307E04019
:10E7400093E727003ACE3EC8D9B7B3876703AE84B4
:10E750008546BA9741B7850402CA81468147254656
:10E7600003C7040093851400130707FD6374E606CE
:10E77000E1F683C504000D4617D500001305456773
:10E78000C52311CD97D70000938787661D8DC2479B
:10E79000130700043317A700D98F85043EC883C52B
:10E7A0000400194617D500001305C5641389140029
:10E7B0002304B102752325CD9307000095E7424756
:10E7C000B2471377071009CF91073EC69257D297E9
:10E7D0003ED2ADBDB3876703AE848546BA9749B7CD
:10E7E0009D07E19BA107D5B77800970600009386A7
:10E7F00046D422860C084E8597000000E7000000F2
:10E80000FD572A8AE314F5FC7C50858B89EB8357EE
:10E81000C40093F7072081E7284CEFF0BFBD835772
:10E82000C40093F70704E39907DA12557DB3780023
:10E83000970600009386E6CF22860C084E85112AA3
:10E84000C1B7797156CA9C49BA8A984522D44AD030
:10E850004ECE52CC06D626D25AC85EC6AA892E847F
:10E860003289368A63D3E700BA872320F900034749
:10E87000340401C785072320F9001C4093F70702E1
:10E8800091C78327090089072320F900044099884C
:10E8900091E8130B9401FD5B5C4403270900998FF9
:10E8A00063CCF40483473404B336F0001C4093F780
:10E8B0000702A5EB13063404D2854E85829AFD57D4
:10E8C0006303F5041C4011478144998B6399E70069
:10E8D0004444832709009D8C63D3040081441C4475
:10E8E00018486354F700998FBE94014969047D5B11
:10E8F00063982405014509A885465A86D2854E8528
:10E90000829A631E75017D55B25022549254025969
:10E91000F249624AD24A424BB24B45618280850439
:10E92000A5BF3307D40013060003A301C7040347A0
:10E93000540493871600A2978906A381E7049DBF1C
:10E9400085462286D2854E85829AE30E65FB0509AF
:10E9500045B7797122D44AD04ECE52CC06D626D2B3
:10E9600056CA5AC803C88501930780072A892E848E
:10E97000B289368A63E2070393072006938635043B
:10E9800063E107036300081E9307800517D60000A4
:10E990001306C646630AF8149304240423010405ED
:10E9A00015A89307D8F993F7F70F5546E366F6FED7
:10E9B00017D60000130606478A07B2979C43B29702
:10E9C00082871C4393842504938647009C4314C389
:10E9D0002381F504854745AA90411C431375060819
:10E9E0009385470039C19C430CC3584063D2071438
:10E9F0009305D002A301B40418C463500704B307FD
:10EA0000F04017D600001306663F2948B68433F756
:10EA10000703FD143297034707002380E4003E8775
:10EA2000B3D70703E37507FF8DA09C431375060456
:10EA30000CC345DDC207C1874DBF6D9A10C0C1B779
:10EA400090411C43137506089385470001C50CC30C
:10EA50009C4339A0137606040CC37DDA83D70700E4
:10EA60001307F00617D60000130646396310E80CAA
:10EA70002148A3010404584018C4E34907F80C4096
:10EA8000ED990CC0C1F7B68451F3A147631EF8009D
:10EA90001C40858B91CB58401C4863C7E700930707
:10EAA0000003A38FF4FEFD14858E14C85287CE8612
:10EAB0007000A2854A857133FD5A631A550D7D5544
:10EAC000B250225492540259F249624AD24A424BFD
:10EAD000456182809C4193E707029CC1130880072F
:10EAE00017D600001306C632A30204050C401C43CF
:10EAF00013F80508138547006305080008C39C4305
:10EB000001A813F8050408C3E30B08FE83D7070028
:10EB100013F7150001C793E505020CC099C34148DE
:10EB200089BF18401377F7FD18C0D5BF294891B7A2
:10EB300017D600001306862C294835BF90411C4388
:10EB4000CC4913780608138547006306080008C3FC
:10EB50009C438CC301A808C3137606049C4375DA52
:10EB60002390B70023280400B68489B71C43D04102
:10EB700081459386470014C384432685D52219C155
:10EB8000058D48C05C401CC8A301040405B71448A7
:10EB90002686CE854A85029AE30355F31C40898B6D
:10EBA0008DE7B2474844E35DF5F03E8511BF8546E9
:10EBB0005686CE854A85029AE30365F185045C4456
:10EBC0003247998FE3C5F4FEE9BF8144930A94016B
:10EBD0007D5BF5B7411122C42E848395E50006C6FE
:10EBE000692A634905007C48AA977CC8B240224440
:10EBF000410182808357C4007D777D17F98F2316EA
:10EC0000F400EDB783D7C500011122CC26CA4AC84B
:10EC10004EC606CE93F70710AA842E843289B68991
:10EC200091C78395E5008946014629228357C40090
:10EC30007D777D17F98F8315E4002316F400624475
:10EC4000F240CE864A86B24942492685D2440561C1
:10EC50003DA8411122C42E848395E50006C6D9281B
:10EC60007D578357C400631BE5007D777D17F98FBF
:10EC70002316F400B2402244410182800567D98FF7
:10EC80002316F40068C8FDB78395E5003DA0411147
:10EC900022C42A842E85B285368623AE018806C614
:10ECA000EFD0AFF6FD576316F50083A7C18991C376
:10ECB0001CC0B240224441018280411122C42A84F6
:10ECC0002E8523AE018806C6EFD00FECFD576316E4
:10ECD000F50083A7C18991C31CC0B2402244410101
:10ECE0008280411122C42A842E85B28523AE0188F8
:10ECF00006C6EFD02FEAFD576316F50083A7C1893A
:10ED000091C31CC0B240224441018280411122C4FF
:10ED10002A842E8523AE018806C6EFD02FE7FD5743
:10ED20006316F50083A7C18991C31CC0B240224479
:10ED300041018280411122C42A842E85B285368603
:10ED400023AE018806C6EFD0AFE4FD576316F50089
:10ED500083A7C18991C31CC0B24022444101828073
:10ED600093F5F50F2A966314C50001458280834709
:10ED70000500E38DB7FE0505FDB7411122C42A84C5
:10ED80002E85B285368623AE018806C6EFD0CFE049
:10ED9000FD576316F50083A7C18991C31CC0B2401B
:10EDA000224441018280411122C426C206C62A841F
:10EDB000A520AA84228569261DC19715000083A578
:10EDC000256D2285EF00D0586341A0029715000001
:10EDD00083A5456C2285EF00106163470502B240B0
:10EDE00022442685924441018280EFE05FC4B24014
:10EDF0002244930720029714000083A424691CC1B5
:10EE00002685924441018280EFE07FC29307200271
:10EE10001CC193040000E1B701119317150022CC27
:10EE200006CE26CA4AC84EC652C456C25AC08583A8
:10EE30003707807F2A846361F7121359F5016385D0
:10EE4000E7223777B142130777216343A71E634C4C
:10EE5000051E3777B13E13078721637BF7103717FD
:10EE6000853F130717596362F722931429009717F8
:10EE700000009387E762A6978C432285EF10A00DD0
:10EE8000171700001307476126978547832A070055
:10EE9000B3872741AA89B3842741D6854E85EF10D1
:10EEA000800BAA852A84EF00905D9715000083A54A
:10EEB000E5602A89EF00B05C9715000083A54560E6
:10EEC000EF106009CA85EF00905B9715000083A5DD
:10EED000655F3525CA85EF00905A9715000083A518
:10EEE000A55EEF104007CA85EF0070599715000026
:10EEF00083A5C55D2925CA85EF007058AA8522859E
:10EF0000EF1060052A89AA852285EF0050574A8BA9
:10EF10002A8A6384040ECA85171500000325C55B81
:10EF2000EF106003AA855285EF00F013AA8556857D
:10EF3000EF106002CE85EF100002AA8517150000C1
:10EF400003254559EF102001930730F863C4F412EC
:10EF5000939774013E9519A0AA855523F240624407
:10EF6000D2444249B249224A924A024B0561828008
:10EF70003707003463F1E7029715000083A5455574
:10EF80002285B52B9714000083A4C454A685EF00F6
:10EF9000303C6345A014A2852285EF00504E9715A2
:10EFA000000083A5A551AA84EF00704D97150000BD
:10EFB00083A50551EF00307AA685EF00504C9715D8
:10EFC000000083A52550252BA685EF00504B9715F3
:10EFD000000083A5654FEF001078A685EF00304A4A
:10EFE0009715000083A5854E192BA685EF003049A3
:10EFF000AA852285EF0030762A8BDA852285EF00FC
:10F000001048AA849715000083A5054D5A85EF0086
:10F010009074AA852685EF001005A285EF00B073D5
:10F02000AA85171500000325E54AEF00D0723DB709
:10F030006244F240D2444249B249224A924A024BC7
:10F0400001450561CDA837F7CF421307571BE3727F
:10F05000F7E06244F240D2444249B249224A924A1D
:10F06000024B01450561D9A013050000E31809EE24
:10F070002285EDB593874406DE079715000083A52A
:10F08000E5453E95EF00B03FD1BD9715000083A543
:10F0900025422285EF00B03E0A09971700009387AA
:10F0A000A740CA978C43A129EF10A023AA84EF1090
:10F0B00060299715000083A5E53F2A89EF00303CC1
:10F0C000AA852285EF003069AA899715000083A5DB
:10F0D000A53E4A85EF00B03AAA8AC1B3A68522852B
:10F0E0003929ADBD411122C426C206C62A84AE8488
:10F0F000EFE0FF9304C1B2402285224492444101D3
:10F100008280411106C619C9370500802D8DEF0098
:10F110001037B240930520024101E9B72E85EF0078
:10F120001036B2409305200241016DBF97150000D3
:10F1300083A5053BF9B79715000083A5A53AD1B77C
:10F140000605B707807F05813325F5008280328868
:10F15000AA882E87C5EE63F3C510C1676360F61AEF
:10F16000B7070001B337F600B307F040E19BE107B2
:10F170003353F60097D600009386C6DA9A9683C674
:10F18000060013030002B697B306F340630BF300C7
:10F190003397D500B357F5003318D6005D8FB318F9
:10F1A000D500135608013355C70293160801C182D2
:10F1B00093D708013377C702B385A6024207D98FD8
:10F1C00063FAB700C2971307F5FF63E4070163E131
:10F1D000B7323A858D8F33D7C702C20893D808015A
:10F1E000B3F7C702B386E602C207B3E8F80063FBD1
:10F1F000D800C2989307F7FF63E50801791763E326
:10F20000D8003E874205598D8145828063F5D5003F
:10F21000814501458280C16763EAF618B70700019E
:10F22000B3B7F600B307F040E19BE10733D8F6002F
:10F2300017D70000130707CF42970347070093082B
:10F2400000023E973388E8406397E81863E4B628E5
:10F250003335C500134515008145828055C6C16709
:10F260006372F62613370610134717000E07B356BE
:10F27000E60097D700009387E7CAB69783C70700D1
:10F2800093060002BA97B38EF640639FF608B387E1
:10F29000C5409356060142064182854533D5D702C3
:10F2A00013D70801B3F7D7023303C502C207D98FBA
:10F2B00063FA6700C2971307F5FF63E4070163E68B
:10F2C00067223A85B387674033D7D702C20893D8FD
:10F2D0000801B3F7D7023306C702C207B3E8F80044
:10F2E00063FBC800C2989307F7FF63E5080179172D
:10F2F00063E3C8003E874205598D8280933706102C
:10F3000093C717008E07ADB5814697D70000938746
:10F3100067C1B69783C70700014793060002BA97F3
:10F32000B38EF640E385F6F63318D60133D3F500F5
:10F3300093560801335ED30213160801B395D50125
:10F340004182B357F500CD8F13D70701B318D5010C
:10F350003373D302B305C603420333676700637B8D
:10F36000B70042971305FEFF636D0717637BB7165F
:10F37000791E42970D8F3355D702C207C183337769
:10F38000D7023303A6024207D98F63FB6700C297F7
:10F390001307F5FF63E3071563F167147915C29747
:10F3A00093150E01B3876740C98DCDBD93B7061085
:10F3B00093C717008E0733D8F60017D7000013073E
:10F3C00067B6429703470700930800023E973388C9
:10F3D000E840E38DE8E6335EE600B3960601336E5F
:10F3E000DE00B3D8E500935E0E01B3D7D803131344
:10F3F0000E01B3950501135303013357E5004D8FFB
:10F400009356070133160601B3F8D803B305F30288
:10F41000C208B3E6160163FBB600F2969388F7FFC5
:10F4200063E3C60D63F1B60CF917F2968D8EB3D572
:10F43000D60342074183B3F6D603B308B302C2062C
:10F44000558F637B170172979386F5FF6369C70930
:10F4500063771709F9157297C207C16ECD8F93862E
:10F46000FEFFB3F5D70013D30701F18E4182338E2F
:10F47000D50233071741B306D30293580E01B38563
:10F48000C502B695C6953303C30263F3D5007693E0
:10F4900093D605019A966363D7026305D7003E852C
:10F4A00081458280C166FD1633F7D5004207337E61
:10F4B000DE00331505017297E373E5FE1385F7FF50
:10F4C00081458280B70700016377F60293560601F3
:10F4D000414745B38145054582803A85D1B5B6851A
:10F4E000A5BF2A8E41BDC68791B77915C297D9BBF2
:10F4F0007915C297C5B19356860161479DBB370701
:10F50000800041117D179356750113D67501B377AD
:10F51000A70026C26D8F4AC01376F60F13F9F60FB7
:10F5200006C622C49354F501FD818E070E07B3066B
:10F53000C9406381B404635FD00031EE63010712F8
:10F540001386F6FF630E062A9305F00F638BB6163B
:10F55000B28689A8F1C2B3062641631C091CF5CF07
:10F560001385F6FF6309052C1308F00F6389061550
:10F57000AA86F9A226886358D01469C61306F00F2C
:10F580006301C91437060004518F6D466359D61EB6
:10F590008507CA8689A01306F00F6304C9123706CF
:10F5A0000004518FED45054663CDD50013060002DA
:10F5B000158E3316C700B356D7003337C00033E675
:10F5C000E600918F37070004B3F6E700CDEA13F7A2
:10F5D0007700CA8649C713F7F70011466303C700CF
:10F5E0009107370700047D8F3DCB13851600130765
:10F5F000F00F26886301E508139767001375F50F70
:10F600002583B24022445E05598D9317F801924438
:10F6100002495D8D41018280130619001376E60FC1
:10F6200063140614631A09086383072075CB3385B6
:10F63000E74037060004698E63030622B307F740EC
:10F64000AE84BDA009CF1386F6FF6303061A9305A7
:10F65000F00F6388B606B2860DBFAE84BA87130773
:10F66000F00F8D836390E60CC1CF01481305F00FB6
:10F670003707400079B71305F00F014759B77D17D9
:10F6800033F4E7002285EF00B0586D153314A40061
:10F6900063412507B3062541850693070002958F30
:10F6A000B317F400B337F0003354D400C18F814650
:10F6B00013F777000DF335B7639907145DD7AE8460
:10F6C000BA878D8355B7B1C2B30626416319090EB7
:10F6D000D1D79385F6FF638D05101305F00FE381F5
:10F6E000A6FEAE86ED4563D6D51293071700B28607
:10F6F000DDB5B70700FCFD17B306A940E18F4DBF8C
:10F7000026881305F00F0147EDBD9306190013F687
:10F71000E60F55EE6319090E63840712631407128E
:10F720008D838146A60713D7970013F5F60F268819
:10F73000C9BD1305F00FE304A6F837050004C98F0F
:10F740006D480545634DD80013050002158D3395AE
:10F75000A700B3D6D700B337A00033E5F600B30750
:10F76000A7403289AE84B9BD3384E740B7060004B0
:10F77000E18EBDEA01F801480145014759B513067C
:10F780000002158E3316C7003357D700B336C000BA
:10F79000558FBA97370700047D8FE30A07E2930677
:10F7A00019001305F00F0147E38DA6E43706007E2C
:10F7B00013D717007D16858B718FD98FD5BD930513
:10F7C000F00FE30FB6EEB7050004CD8F21BF13068F
:10F7D000F00FE382C6EA3E979357170013F67700BF
:10F7E000E31B06DE8D833DBF3304F740AE8459BD75
:10F7F000BA97370700047D8F8946054945FBC1BB91
:10F80000998F0549C1B3E38D07EAE31007E68D83BD
:10F81000A1BD93050002958DB395B700B3D6D7006F
:10F82000B337B000DD8EB387E6003289A5B721D7A4
:10F83000AE84BA87F5B5B307F740AE84054959B32E
:10F84000BA87F9BDBA97370600047D8E814659DA2A
:10F85000370700FC7D17F98F85468D83E1B5AA87B0
:10F8600019D98D83C1B57971935775014AD04ECEA0
:10F8700006D69319950022D426D252CC56CA5AC81D
:10F8800093F7F70F93D999001359F501F1CF1307A7
:10F89000F00F6381E70E8E0937070004B3E9E90032
:10F8A000938A17F80144014B93D77501139A950079
:10F8B00093F7F70F135A9A0093D4F501C1C71307B2
:10F8C000F00F6380E70C0E0A37070004336AEA0082
:10F8D000938717F80146BD4633479900B38AFA402B
:10F8E00063EB861A97C60000938646590A0436943D
:10F8F0001C40B69782879307F00F8146B25022547E
:10F9000013957701558D7E0792540259F249624A48
:10F91000D24A424B598D456182808D47630EFB0070
:10F9200085476315FB0E2A8781478146C1BF8D47F6
:10F930002685D289631CF60C01479307F00FB706A2
:10F9400040006DBF631D0A0813641400B5473347B8
:10F950009900E3E287FA97C60000938626560A04C8
:10F9600036941C40B6978287639B09041144814AF0
:10F97000054B1DBF639009042144930AF00F094B06
:10F9800025B763130A02136424007514AD46334788
:10F990009900E3EB86F817C600001306A6550A0483
:10F9A00032941440B2968286136434009307F00FA9
:10F9B0000D4615B73144930AF00F0D4BF5B54E8542
:10F9C0002EC6EF00F0249307B5FFB399F900930713
:10F9D000A0F8B245B38AA7400144014BF1B5528566
:10F9E000EF0010239307B5FF331AFA009307A0F82E
:10F9F000898F0146CDB5938A1AF089474A85E31E5F
:10FA0000FBF02A879307F00F8146CDBD2A879387A5
:10FA1000FA076351F00493F6790099C693F6F9005A
:10FA200011466383C6009109B7060008B3F6D900F2
:10FA300081CAB70700F8FD17B3F9F90093870A08E0
:10FA40009306E00FE3C9F6EA93966900A58293F75F
:10FA5000F70F6DB5054699C71D8EED458147814667
:10FA6000E3CEC5E89386EA09B396D900B336D00051
:10FA7000B3D7C900D58F93F6770099C693F6F700F0
:10FA800011466383C6009107B7060004FD8ED5CAF0
:10FA900085478146A5B5C16613185A00FD169355D2
:10FAA0000801B376D80063F8490733D6B902CE8788
:10FAB000FD1A81493305D602B3F7B702C207B3E78F
:10FAC000370163F8A700C2979308F6FF63F60707AC
:10FAD0004686898F33D5B702B3F7B702B306D5028E
:10FAE000C20763F2D702B3850701B3B8F500130369
:10FAF000F5FFAE876398080063F6D5007915B387E4
:10FB0000050111A01A854206958F498EB337F00082
:10FB1000B369F600EDBD93D7190033D6B702FE09DD
:10FB200093D909013305D60241BF26852A87EDBB4B
:10FB30000147B7064000D9B3E3FCA7F87916C2978E
:10FB400049BF9A0793D6970081474DBB268555BD7F
:10FB500013567501370780007D1793D6750113760C
:10FB6000F60F1308F00FB378A7009357F5016D8FC8
:10FB700013F5F60FFD8163050603630A050105EA27
:10FB800009E939C3639E0804A1C92E85828039E73B
:10FB900019E2E38B08FE6399B7009DCF3E85828012
:10FBA000639E08026305C50205459DE782806DDD01
:10FBB000E39CB7FEE34AC5FEE341A6FEE36617FFFA
:10FBC0000145E3ECE8FC8280E39008FE828019E7BF
:10FBD000E39CB7FC014582807D5582807955828007
:10FBE000E38EB7FCD1B713567501370780007D1738
:10FBF00093D675011376F60F1308F00FB378A700AC
:10FC00009357F5016D8F13F5F60FFD81630606031B
:10FC1000630A050105EE11E929CB639F0804B9C900
:10FC20002E858280094501EB19E2E38A08FE638B89
:10FC3000B7020545A1E38280639C0802E31BC5FE71
:10FC4000094575FBE397B7FE014582807DD1E392BC
:10FC5000B7FEE340C5FE6347A600E36C17FD014510
:10FC6000E3FBE8FC81CB3E858280E39408FC828044
:10FC7000094582807D558280E381B7FE5DBF797141
:10FC80009357750152CC56CA1317950006D622D445
:10FC900026D24AD04ECE5AC893F7F70F935A970000
:10FCA000135AF501638B07101307F00F638DE710EC
:10FCB00013973A00B7060004B36AD700938417F885
:10FCC0000149014B93D775011394950093F7F70FF2
:10FCD000258093D9F501F9C71307F00F6382E70672
:10FCE000938717F8338597000E0437070004A94758
:10FCF000598C81469304150063CF270FB3453A0111
:10FD000009472E88634C27057D190546636C261329
:10FD10006382E60C8547C2856394F60681470147F6
:10FD2000B250225413957701598D9397F50192544F
:10FD30000259F249624AD24A424B5D8D4561828046
:10FD40001385F40F49CCB3453A01136939002947AB
:10FD50002E88938404106347271F8D460547331769
:10FD600027011376075319CE89476305FB068D4794
:10FD70006304FB02DA8685475684C285E380F6FA7F
:10FD8000268535A29377072481EB137787085DCB0F
:10FD90004E88A28A368BC9BF81459307F00F37077B
:10FDA0004000BDBF3DEC268513691900A947854673
:10FDB00093041500E3D427F53DA863950A0411497F
:10FDC0008144054B01B7639A0A0221499304F00F5D
:10FDD000094BCDBDC2859307F00F014791B7136959
:10FDE0002900A9479384041039478946E3D827F1AD
:10FDF000AD47E30FF7F8528885BF31499304F00F00
:10FE00000D4BC9B556852EC621259307B5FFB39A6C
:10FE1000FA009307A0F8B245B384A7400149014B0B
:10FE200055B52285F523B387A4401307B5FF138585
:10FE3000A7F8A9473314E400814693041500E3DFD3
:10FE400027EB55BFC1689387F8FF13D60A011358F3
:10FE50000401B3FAFA00E18FB3865703B307F60241
:10FE600013D70601B30A5803BE9A56973306060302
:10FE70006373F700469641687D18B3770701B3F6C0
:10FE80000601C207B6979396670013540701E983EA
:10FE90003337D0003294D98F1A045D8CB70700082D
:10FEA000E18F91C79357140005885D8C26859307D1
:10FEB000F507635FF0021377740019C71377F40036
:10FEC00091466303D700110437070008618F19C7F3
:10FED000B70700F8FD177D8C930705081307E00F9F
:10FEE0006349F70413176400258393F7F70F0DBDDB
:10FEF000854699C79D8E6D4681470147E342D6E20C
:10FF00001307E5093317E4003337E000B357D40093
:10FF1000D98F13F7770019C713F7F70091466303DA
:10FF2000D7009107370700047D8F01CB8547014734
:10FF3000C5BB9307F00F0147E5B39A0713D79700A6
:10FF40008147F9BBBD46814537074000E30AD9DC4C
:10FF50002D478D4671BDB70780004111FD1713D69F
:10FF6000750133F7A70093567501ED8F26C24AC07D
:10FF70009354F50106C622C41376F60F1305F00F4D
:10FF800013F9F60F26880E07FD8193963700630359
:10FF9000A60493C51500B307C940638FB400635A24
:10FFA000F03035E2638F06141386F7FF6302062AEA
:10FFB000638FA702B287A9A86359F0307DCA63088E
:10FFC000A90237060004D18E6D466352F614050768
:10FFD000CA878DA8930719F0D5E693C515006383EA
:10FFE000B40E638D071863090910AE8436870D833C
:10FFF00013F814001305F00F3DCB01481305F00F63
:020000041001E9
:1000000037074000ADA0E304A9FE37060004D18EF7
:10001000ED45054663CDF500130600021D8E3396AF
:10002000C600B3D6F600B337C00033E6F600118F32
:10003000B7070004B376F700639406109376770051
:10004000CA87E1C29376F70011466383C6001107A1
:10005000B7060004F98ED5C685079306F00F13F88E
:100060001400638BD70C1A0713F5F70F2583B240E2
:1000700022445E05598D9317F801924402495D8D23
:1000800041018280E39FB4F4B9C36311091C930753
:10009000F00F3DC79385F7FF638905121305F00F35
:1000A0006386A71AED4763DBB71A13871600B2877A
:1000B00051BFA1CA1386F7FF63090610E389A7F2AF
:1000C000B28719B789C7E30409FC01470DB7930745
:1000D000190013F6E70F6315061463180916630673
:1000E000071A6396061A0D8381472607258313F5A1
:1000F000F70F13F81400A5BF9307F00F65EBAE845C
:1001000036879306F00F0D83E384D7EEF9BF13060D
:1001100000021D8E3396C6003336C000B3D6F600FB
:10012000D18E3697B7070004F98F89DB9307190042
:100130009306F00F6393D70A1305F00F014705BF2D
:10014000FD173374F7002285E1249307B5FF3314BC
:10015000F40063CA2705B387274185071307000208
:100160001D8F3317E4003337E0003354F400418F20
:10017000814793767700E39706ECD9BD9307190082
:1001800093F7E70F85EB631A090A65CFA9DEB3077A
:10019000D740370600047D8E630806103387E6409B
:1001A0008147AE84F9B7370700FC7D17B307F940E4
:1001B000618FC1B73304D740B7070004E18FD1E3A3
:1001C00059F00148014501475DB53697B70600046F
:1001D000F98E89470549E38306E63706007E935684
:1001E00017007D16058BF18E558F61B71385F7FFCC
:1001F00041C51308F00FAE84638A0705ED458547B6
:1002000063CCA50093070002898FB317F70033551D
:10021000A700B337F000C98F3387F640328909BD94
:100220001306F00FE38AC7F0BA9613D716001376B9
:100230007700E31906E00D834DBD11EFE38F06DA79
:100240006DB33384E640AE84FDBD11E7368745B318
:10025000158F0549F1BBE38C06D845B3930700021F
:100260008D8FB317F700B355B700B337F000DD8DAE
:100270003387D50032897DB53387E640AE840549A2
:1002800045BBA1D2AE843687B9BD3687A9BD3697A6
:1002900037060004798E814759DEB70700FCFD1749
:1002A0007D8F0D83854791B589DF3E870D8381471B
:1002B0002DBDE38507EC33052641AA87E30009E459
:1002C000B70700045D8FAE8415BFE38207E0B30576
:1002D000264163140900AE876DBBB70700045D8F2C
:1002E000D1B337068000135775019307F6FF1377D4
:1002F000F70F9305E007B3F6A7009357F50163DC0A
:10030000E5009305D00963DAE50037050080134561
:10031000F5FF3E9582800145828093055009D18E7C
:1003200063CDE500130660093307E640B3D6E60067
:100330003305D040F5F3368582801307A7F6B396D0
:10034000E600FDB7411106C622C426C215CD1357DB
:10035000F5413344A700198CAA87228593D4F7016D
:1003600045281307E009B307A74013076009634A4C
:10037000F70221476308E50861153317A400260733
:10038000258313F5F70F21A0814401450147B240B1
:1003900022445E059397F401598D92445D8D41018D
:1003A0008280130790096343F70415479306B5FF4E
:1003B0006304E5003314D400B70600FCFD16137681
:1003C00074003377D40011CE3D881146630BC4000E
