:020000041000EA
:10A100006F10101B6F1050256F1050256F105025C9
:10A110006F1050256F1050256F1050256F1050256F
:10A120006F1050256F1050256F1050256F1050255F
:10A130006F1050256F1050256F1050256F1050254F
:10A140006F1050256F1050256F1050256F1050253F
:10A150006F1050256F1050256F1050256F1050252F
:10A160006F1050256F10005A6F1050256F10205936
:10A170006F10D00D6F1050256F1050256F105025A7
:10A180006F1050256F1050256F1050256F105025FF
:10A190006F1050256F1050256F1050256F105025EF
:10A1A0006F1050256F1050256F1050256F105025DF
:10A1B0006F1050256F1050256F1050256F105025CF
:10A1C0006F1050256F1050256F1050256F105025BF
:10A1D0006F1050256F1050256F1050256F105025AF
:10A1E0006F1050256F00E0136F1050256F10E07F47
:10A1F0006F105025A5CD011122CC26CA4EC652C4DF
:10A2000056C206CE4AC8AE89AA8A328A014493044D
:10A21000000013192400B3872A01884352990504CA
:10A22000EF307076AA852320B90026854204EF40DE
:10A23000006B4184AA84E34E34FD014413192400C9
:10A24000529903250900A6850504EF40D01F42045A
:10A250002320A9004184E34334FFF2406244D24406
:10A260004249B249224A924A056182808280411164
:10A2700022C4138501A306C6EF10E00A138501A3CB
:10A280002244B240370601201306460A93054006D1
:10A2900041018DB7411106C6EF10604737B5024046
:10A2A00013050580EF200008370501101305858C84
:10A2B000EF207071C1650145EF106035370508402A
:10A2C0009305000213050540EF10403AE52A092ADC
:10A2D00085220D2CB7E50610130600409385452B0B
:10A2E00037850151CD20EF00507F83A7418691E74C
:10A2F0007300501083A74186E5DF370508409305BA
:10A30000000213050540EF10C0389537EF10C03A32
:10A31000B240C16737E7034085073CC301454101AF
:10A320008280397136D0B70610503ACE98423ECC72
:10A33000FD77F91706DE16DC1ADA1ED82AD62ED4D7
:10A3400032D242CA46C872C676C47AC27EC07D8FF7
:10A3500098C2B7055050984137069050B706D05074
:10A360007D8F98C1184205457D8F18C29842F98F9C
:10A370009CC2EF10C04E37050140EF20C02523A23C
:10A38000A186370707E5504FB7060002930707027B
:10A39000558E50CF585FF250E252558FD8CFD84FDC
:10A3A0005253C253558FD8CF3255A25512568256AA
:10A3B0007247E2475248C248324EA24E124F824F75
:10A3C0002161730020309307F6FF635AC000FD56E9
:10A3D0009841FD17910518C11105E39BD7FE8280B6
:10A3E00037070110B7071850130787DBB706185057
:10A3F00005437D5593E616002380660083284700B9
:10A40000130887001387F8FF63820802C2868C4214
:10A410007D1791068CC39107E31BA7FE8A083307BB
:10A4200018011443B687F9F6054582804287D5BFE7
:10A43000B7070110B705011037871050938787BB06
:10A44000938585DB03C6070085071107232EC7FE0A
:10A45000E39AB7FEB7070110B705011037875050D0
:10A460009387C7AC938585BB03C607008507110793
:10A47000232EC7FEE39AB7FEB7070110B7050110F8
:10A48000378790509387079E9385C5AC03C6070016
:10A4900085071107232EC7FEE39AB7FEB707011001
:10A4A000B70501103787D0509387478F9385059E56
:10A4B00003C6070085071107232EC7FEE39AB7FEE0
:10A4C00005458280B717005023A00700B70710008A
:10A4D000A107370610501CC29306E04054C2414702
:10A4E00018C6370650501CC254C218C637069050C2
:10A4F0001CC254C218C63706D0501CC254C218C65B
:10A500000545828039714ADA4169B70610509308CF
:10A51000190222DE26DC4ED852D656D45AD25ED04C
:10A5200062CE66CC6ACA6EC823A816015D6323A8F2
:10A53000160913030380096523A866302D6D23A82F
:10A54000A640130A0DB221683714105023A84659AB
:10A5500013080880B719600C232804A1138F89CD34
:10A56000FD4523A8E661B74E020023A8B668B707E9
:10A57000505023A8D67923A8170123A8170923A888
:10A5800067308564138E04B223A8A740B7135050D8
:10A5900023A8C75923A803A123A8E761B75A02003B
:10A5A00023A8B7681386CA0D3707905023A8C77829
:10A5B0002328170123281709232867302328A740B9
:10A5C0002328C759B712905023A802A12328E76176
:10A5D0002328B7683706D0502328D77923281601B7
:10A5E00023281609232866302328A6402328C65985
:10A5F000B71FD05023A80FA12328E6612328B668EF
:10A600002328D679377800702328067123AA1601EB
:10A6100023AA16091388048023AAA640356323AA17
:10A620000651130303B2296C930B0C8023AA6658BE
:10A63000232A74A1938989CF23AA366123AAB668F5
:10A6400023AAD67923AA170123AA170923AAA74068
:10A6500023AA075123AAC75923AA73A123AA3761A2
:10A6600023AAB76823AAD779232A1701232A17090F
:10A67000232AA740232A0751232AC75923AA72A1B4
:10A68000232A3761232AB768138F0A0B232AE77915
:10A6900037FF00F0232AE771232A1601232A16091F
:10A6A000232AA640232A0651232AC65923AA7FA17A
:10A6B000232A3661232AB6683713FF0F232AD67957
:10A6C000130BF3FF5AC4232A66718CCE23ACB60851
:10A6D00023AC0631138B049223ACA63823AC665905
:10A6E0004143232C64A0130F3010B70D000323AC9B
:10A6F000E61123ACB679930CF9FF23AC9671256370
:10A70000930C03808CCF23ACB70866C623AC97317B
:10A7100023ACA73823AC6759414923AC23A123AC10
:10A72000E71123ACB7797A833D4F23ACE7710CCFA7
:10A73000232CB708232C0731232CA738232C675947
:10A7400023AC22A1232C6710232CB7790CCE232C09
:10A75000B608232C0631232CA638232C665923ACAB
:10A760002FA1232C6610232CB67923AE160123AE1D
:10A7700016091383148023AE66309D6C23AEA64069
:10A7800013830CB2130C0C8123AE6658232E84A1C4
:10A7900023AE36617D5323AEB66823AED67923AEA1
:10A7A000667023AE170123AE1709A68C938414801C
:10A7B00023AE973023AEA74023AEC75923AE83A163
:10A7C00023AE376123AEB768B7040F0023AED77945
:10A7D000BD0423AE9770232E1701232E170913896A
:10A7E0001C80232E2731232EA740232EC75923AEAA
:10A7F00082A1232E3761232EB76813894A0C232E9A
:10A800002779232E1601232E1609938A1C80232EC6
:10A810005631232EA640232EC65923AE8FA1232EB8
:10A820003661232EB668232ED67923A0160323A0E3
:10A83000160BD96C23A0963323A0A64223A006535F
:10A8400023A0465B371A000D232074A3E68A930CDD
:10A850008AD923A09663376A060023A0461323A053
:10A86000B66A23A0D67B23A0667223A0170323A079
:10A87000170B23A0573323A0A74223A0075323A0DD
:10A88000C75B23A073A323A0976323A0471323A030
:10A89000B76A23A0D77B23A0977223201703232016
:10A8A000170B232057332320A742232007532320AD
:10A8B000C75B23A072A32320976323204713232081
:10A8C000B76A2320D77B232016032320160B2320CF
:10A8D00056332320A642232006532320C65B23A001
:10A8E0007FA323209663232046132320B66A2320C8
:10A8F000267B23A21603854523A2160B23A2B61A94
:10A9000023A2B62223A2B62A130D0D8023A2A633BA
:10A91000B56423A2A642938404BA23A2965A2322A2
:10A9200074A323A29663B724020023A2E66B23A29A
:10A93000967A23A2170323A2170B23A2B71A23A2E6
:10A94000B72223A2B72A23A2A7330569130909BA9C
:10A9500023A2A74223A2275B23A273A323A2976368
:10A9600023A2E76B23A2977A232217032322170B34
:10A970002322B71A2322B7222322B72A2322A7335E
:10A980002322A7422322275B23A272A323229763B9
:10A99000B73A02002322E76B938A8A0D2322577B62
:10A9A000B7FA00F023225773232216032322160B33
:10A9B0002322B61A2322B6222322B62A2322A63322
:10A9C0002322A6422322265B23A27FA3232296636F
:10A9D0002322E66B2322967A2322667223A4E603BF
:10A9E00023A4E60B23A4A63A23A40653C14A23A416
:10A9F000665B93082010232454A323A4161323A4D6
:10AA0000B67B23A4E70323A4E70BA96C23A4973305
:10AA100023A4A73A23A4075323A4675B23A453A327
:10AA200023A41713416D23A4B77B930B0DFF23A41D
:10AA300077732324E7032324E70B2324A73323245A
:10AA4000A73A232407532324675B23A452A3232478
:10AA500017132324B77B930BF00F2324777323243E
:10AA6000E6032324E60B2324A63A232406532324B7
:10AA7000665B23A45FA3232416132324B67B9308C9
:10AA80001D0123A61603138D1C0023A6160B23A657
:10AA9000A633BD6B23A6A642938B0BB223A6065307
:10AAA00023A6765B232684A323A6366323A6E66B20
:10AAB00023A6D67B23A6170323A6170B23A6A7330B
:10AAC00023A6A74223A6075323A6C75B23A683A3D7
:10AAD00023A6376323A6E76BB70CF1FF23A6D77B2A
:10AAE000C11C23A69773232617032326170B23269F
:10AAF000A7332326A742232607532326C75B23A673
:10AB000082A3232637632326E76BB70BFF00232698
:10AB1000D77B938BFB0F23267773232616032326DD
:10AB2000160B2326A6332326A642232606532326C6
:10AB3000C65B23A68FA323263663B75902002326BC
:10AB4000E66B4E8D9389890D2326367B23A8160349
:10AB500023A8160B23A806339D6923A8A642938930
:10AB600009B2D96A23A8365B93890A80B71A000D07
:10AB7000232834A3138C8AE523A8866323A84613CD
:10AB800023A8E66B23A8D67B23A8170323A8170BBB
:10AB900023A8073323A8A74223A8C75B23A833A36E
:10ABA00023A8876323A8471323A8E76B930A0D0BF9
:10ABB00023A8577B23A89773232817032328170B51
:10ABC000232807332328A7422328C75B23A832A3BF
:10ABD00023288763232847132328E76B2328D77B61
:10ABE00023287773232816032328160B23280633DC
:10ABF0002328A6422328C65B23A83FA323288663D5
:10AC0000232846132328E66B2328D67B23AA160382
:10AC100023AA160B23AAB61A23AAB62223AAB62A57
:10AC200023AAA6429D6923AA0653938C09BAE16917
:10AC300023AA965B138D0980371C600E232AA4A3D8
:10AC4000130C8CFD1D4F23AA866323AAE66B23AA4F
:10AC5000D67B23AA667223AA170323AA170B23AA5B
:10AC6000B71A23AAB72223AAB72A23AAA74223AA3C
:10AC7000075323AA275B23AAA3A323AA8763B75B4F
:10AC8000020023AAE76B938B0B0823AA777B23AAE6
:10AC90006772232A1703232A170B232AB71A232A9A
:10ACA000B722232AB72A232AA742232A0753232A73
:10ACB000275B23AAA2A3232A8763A24A232AE76B3E
:10ACC000232AD77B232A5773232A1603232A160BFA
:10ACD000232AB61A232AB622232AB62A232AA642D0
:10ACE000232A0653232A265B23AAAFA3232A86639B
:10ACF000232AE66B232AD67B23ACE60323ACE60BA0
:10AD000023AC063323ACA63A23AC665B414C232C20
:10AD100084A39308301023AC1613416D23ACB67B8B
:10AD2000930AFDFF23AC5673B24A23ACE70323AC6E
:10AD3000E70B23AC573323ACA73A23AC675B23ACB8
:10AD400083A323AC171323ACB77B930AFDFF23AC7B
:10AD50005773232CE703C568232CE70B138C08805B
:10AD6000232C8733232CA73A232C675BC14A23ACBF
:10AD700052A3130C3010232C8713232CB77B930A78
:10AD8000FDFF232C5773232CE603232CE60B232CE7
:10AD90000633232CA63AC14A232C665B23AC5FA35F
:10ADA000232C8613232CB67B930A9D0023AE5603D7
:10ADB000056C23AE560B130B1C8023AE66331D6B44
:10ADC00023AEA642130B0BB223AE665B93890981B7
:10ADD000371BE00F232E34A3130B8B1523AE6663B2
:10ADE00023AEE66B23AED67B23AE667223AE57034B
:10ADF00023AE570B930D1C8023AEB73323AEA7426F
:10AE000023AEC75B23AE33A323AE676323AEE76BEA
:10AE100023AED77B23AE6772232E5703232E570B07
:10AE2000232EB733232EA742232EC75B23AE32A394
:10AE3000232E6763232EE76B232E777B232E6772E7
:10AE4000232E5603232E560B232EB633232EA64233
:10AE5000232EC65B23AE3FA3232E6663232EE66B11
:10AE6000232ED67B23A0560523A0560D23A0B61C67
:10AE700023A0B62423A0B62C23A0A64423A0B64C1E
:10AE8000BD6D23A00655138F0DBA23A0E65DB71E36
:10AE90006011232034A5938E8E4523A0D66523A070
:10AEA00046150D4B23A0666D23A0967C23A06674E7
:10AEB00023A0570523A0570D23A0B71C23A0B72418
:10AEC00023A0B72C23A0A74423A0B74C23A0075549
:10AED00023A0275D23A033A523A0D76523A0471572
:10AEE00023A0676D23A0977C23A0677423205705B8
:10AEF0002320570D2320B71C2320B7242320B72C51
:10AF00002320A7442320B74C232007552320275D67
:10AF100023A032A52320D765232047152320676D62
:10AF20002320977C23206774232056052320560D69
:10AF30002320B61C2320B6242320B62C2320A6448D
:10AF40002320B64C232006552320265D23A03FA5B1
:10AF5000E28B2320D665373C020023204615930E52
:10AF60004C062320666D2320D67D23A2660523A2EE
:10AF7000660D23A2B61C23A2B62423A2B62C23A2BC
:10AF8000063523A2B63C23A2A64423A2B64CB70999
:10AF9000020023A2965D938A198737DA60B72322CD
:10AFA00054A5130A8A7523A24665930E001023A2A6
:10AFB000D61523A2867D23A2667423A2670523A249
:10AFC000670D23A2B71C23A2B72423A2B72C23A268
:10AFD000073523A2B73C23A2A74423A2B74C23A240
:10AFE000275D23A253A523A2476523A2D71523A239
:10AFF000977C23A26774232267052322670D2322EF
:10B00000B71C2322B7242322B72C2322073523225F
:10B01000B73C2322A7442322B74C2322275D23A237
:10B0200052A5232247652322D7152322977C23226A
:10B030006774232266052322660D2322B61C232271
:10B04000B6242322B62C232206352322B63C232203
:10B05000A6442322B64C2322265D23A25FA52322E9
:10B0600046652322D6152322967CACC623A4B60CB3
:10B0700023A4B63C23A4A64423A4B64C138A0DB241
:10B0800023A4065523A4465D938A7981232454A5DD
:10B09000130A85FF23A4466523A4D61523A4967C12
:10B0A00023A46674ACC723A4B70C23A4B73C23A481
:10B0B000A74423A4B74C23A4075523A4C75D23A406
:10B0C00053A523A4476523A4D71523A4877D23A4D0
:10B0D00067742CC72324B70C2324B73C2324A7442C
:10B0E0002324B74C232407552324C75D23A452A54A
:10B0F000232447652324D7152324977C23246774AE
:10B100002CC62324B60C2324B63C2324A644232493
:10B11000B64C232406552324C65D23A45FA523240F
:10B1200046652324D6152324967C23246674130EA7
:10B130003D0023A6C60523A6C60D23A6B61C23A63E
:10B14000B62423A6B62C23A6063523A6A64423A6FA
:10B15000B64C23A6E65D138F1981B719A0032326E9
:10B16000E4A5938989B923A6366523A6967C23A6F0
:10B17000667423A6C70523A6C70D23A6B71C23A65E
:10B18000B72423A6B72C23A6073523A6A74423A6B6
:10B19000B74C23A6275D23A6E3A523A6376523A6E0
:10B1A000977C23A667742326C7052326C70D23266D
:10B1B000B71C2326B7242326B72C2326073523269E
:10B1C000A7442326B74C2326275D23A6E2A52326E2
:10B1D00037652326877D232667742326C605232605
:10B1E000C60D2326B61C2326B6242326B62C2326DA
:10B1F00006352326A6442326B64C2326265D23A601
:10B20000EFA5232636652326967C2326667423A87D
:10B21000B63C914423A8A6447D6E23A8964C130EF9
:10B220000E92696F23A80655130F1F8123A8C65DD0
:10B23000377EA0682328E4A5130E8EF123A8C665E7
:10B2400023A8D61523A8667423A8B73C23A8A7442F
:10B2500023A8974C23A807559388089223A8175D25
:10B2600023A8E3A523A8C76523A8D71523A8677437
:10B270002328B73C2328A7442328974C2328075585
:10B280002328175D23A8E2A52328C7652328D715FF
:10B29000232867742328B63C2328A6442328964CE9
:10B2A000232806552328165D23A8EFA52328C66565
:10B2B0002328D6152328767D232866747254E254F9
:10B2C0005259C259325AA25A125B825B724CE24CFA
:10B2D000524DC24D0545216182804111B7171000C2
:10B2E00006C622C423A20186370410501387878024
:10B2F00018C093879780370750501CC3370790506A
:10B300001CC33707D0501CC337050140EF10602C19
:10B3100005450123B7071000A507B2401CC0224411
:10B32000054541018280B702405003A70200411148
:10B3300022C618C103A74200B78F4050AA8758C140
:10B3400003A78200370F4150B78E415018C503A79D
:10B35000C200370E80503783805058C503A70F00B6
:10B36000B70881503788815018C903A74F00B70527
:10B37000C0503786C05058C903A58F00B706C150CA
:10B380003787C15088CF03A4CF00B70300510545CC
:10B39000C0CF03240F0080D303244F00C0D3032465
:10B3A0008F0080D70324CF00C0D703A40E0080DB1A
:10B3B00003A44E00C0DB03A48E0080DF03A4CE00F4
:10B3C000C0DF03240E00A0C303244E00E0C3032407
:10B3D0008E00A0C70324CE00E0C703240300A0CB47
:10B3E00003244300E0CB03248300A0CF0324C30045
:10B3F000E0CF03A40800A0D303A44800E0D303A433
:10B400008800A0D703A4C800E0D703240800A0DB6D
:10B4100003244800E0DB03248800A0DF0324C800E5
:10B42000E0DF804123A08708C04123A28708804530
:10B4300023A48708C04523A68708004223A88708BD
:10B44000404223AA8708004623AC8708404623AE23
:10B450008708804223A0870AC04223A2870A804629
:10B4600023A4870AC04623A6870A004323A8870A85
:10B47000404323AA870A004723AC870A404723AEEC
:10B48000870A03A4030023A0870C03A4430023A27C
:10B49000870C03A4830023A4870C83A3C30023A6E3
:10B4A000770C83A3020123A8770C83A3420123AA6C
:10B4B000770C83A3820123AC770C83A2C20123AE55
:10B4C000570C83A20F0123A0570E83A24F0123A282
:10B4D000570E83A28F0123A4570E83AFCF0123A65B
:10B4E000F70F832F0F0123A8F70F832F4F0123AAF4
:10B4F000F70F832F8F0123ACF70F032FCF0123AE5C
:10B50000E70F03AF0E0123A0E71103AF4E0123A203
:10B51000E71103AF8E0123A4E71183AECE0123A66A
:10B52000D711832E0E0123A8D711832E4E0123AAF3
:10B53000D711832E8E0123ACD711032ECE0123AE5B
:10B54000C711032E030123A0C713032E430123A217
:10B55000C713032E830123A4C7130323C30123A608
:10B56000671203A3080123A8671203A3480123AAB3
:10B57000671203A3880123AC671283A8C80123AE16
:10B5800017138328080123A017158328480123A235
:10B5900017158328880123A417150328C80123A69B
:10B5A000071503A8050123A8071503A8450123AA29
:10B5B000071503A8850123AC0715CC4D23AEB7149E
:10B5C0000C4A23A0B7164C4A23A2B7160C4E23A44C
:10B5D000B716504E23A6C716904A23A8C716D04ABE
:10B5E00023AAC716904E23ACC716D44E23AED71647
:10B5F000144B324423A0D718544B23A2D718144F0E
:10B6000023A4D718584F23A6E7184101828041117F
:10B6100006C6B76600403D4723A6E68023A2E68023
:10B6200023A0E68023A4068023A60680B706004058
:10B630009C4E3747FCFF7D17F98FC98FCD8F9CCE6D
:10B640006545552D912D370707E5104BB7060002CC
:10B6500093070702558E10CB185BB2400545558FF6
:10B6600098CB984B558F98CB410182807971AA87EE
:10B670003EC42800854706D62EC63EC802CAEF0043
:10B6800050172245B245EF00500CB25005454561B8
:10B6900082807971AA873EC42800854706D62EC6C7
:10B6A0003EC802CAEF00F0142245B245EF00900CEC
:10B6B000B2500545456182804111654506C6CD2BD6
:10B6C000B76600403D4723A6E68003A78680B240C8
:10B6D00005451367F70023A4E68023A0068023A274
:10B6E000068023A6068041018280AA8637E50610DF
:10B6F00041111305C5BD06C6EF10301801A009455C
:10B700006F00300A01456F00D00901458280B7976C
:10B7100000403D4798C7F8D7F8DF014582807D5546
:10B7200082807D5582807D5582807D558280011189
:10B7300006CE22CC26CA4AC84EC629ED635AC0049A
:10B74000AE89B384C5002E84354921A06388970251
:10B750003E8437250440EF1060509375F50F2300A9
:10B76000B40037250440EF10804F034704009307CF
:10B770001400E31D27FDA9472300F40033053441DD
:10B780000505F2406244D2444249B24905618280D3
:10B790000145C5BFEF10A067A5471CC17D55D5B7B2
:10B7A000011106CE22CC26CA4AC84EC67D15854751
:10B7B00063EBA7042E84B2893389C500A944634A88
:10B7C000C00015A8050437250440EF104049630464
:10B7D000890283450400E39795FEB545372504406B
:10B7E000EF10E04783450400372504400504EF10BF
:10B7F0000047E31089FE4E85F2406244D24442493C
:10B80000B24905618280EF108060A5471CC17D555B
:10B81000E5B7B707011083A70786411122C406C602
:10B820002A846372F502131714002297B7E70610F3
:10B830000E07938787BF2244BA97B240CC43884310
:10B8400041016F002073B7E5061037E506101306B7
:10B85000F002938585C2130545C6413DE9B7B70798
:10B86000011083A70786411122C406C62A8463718A
:10B87000F502131714002297B7E706100E079387F7
:10B8800087BF2244BA97B240CC438843410175AD8B
:10B89000B7E5061037E506101306A003938585C2A9
:10B8A000130545C69935F1B783A7818637E7004070
:10B8B0008DCB1C4B858B8DC31C4BA146A18B91C797
:10B8C0001C5B14CB1C4BA18BE5FF03A7018723ACAA
:10B8D000E186054723AAE186B7E70040984B98CB5D
:10B8E00082801C4B918B6387070E83A8C18683A639
:10B8F000C1871383F8FF1333130003AE01870D03D1
:10B90000114837EF0040854E03270F0303A58187B9
:10B9100083A5818703A6818736952300E500B69528
:10B9200013558700A380A500369693550701230180
:10B93000B6007D186398D80103A681876183369687
:10B94000A301E60003A781871A976377C70103A7BE
:10B9500081871A9723ACE186E31808FAB7E700401D
:10B960009C4B858BB5DB1383F8FF133313000D035A
:10B9700037E80040214F854E83270801A18BB1DBBA
:10B98000832708032328E80103A5818783A58187EE
:10B9900003A6818736952300F500B69513D5870059
:10B9A000A380A500369693D507012301B6006398BE
:10B9B000D80103A68187E1833696A301F60083A709
:10B9C00081879A97E3FAC7FB83A781879A9723AC6D
:10B9D000F1865DB71C4B858BE38007F083A6C1879A
:10B9E00083A8C18603AE0187BDBF397136D032D27C
:10B9F0003ACE3ECC06DE16DC1ADA1ED82AD62ED473
:10BA000042CA46C872C676C47AC27EC0713DB707C4
:10BA100007E5D84F3706000893860702518FD8CF25
:10BA2000DC5FF250E252D18FDCCE5253C25332551A
:10BA3000A255125682567247E2475248C248324EC9
:10BA4000A24E124F824F216173002030397136D0DF
:10BA500032D23ACE3ECC06DE16DC1ADA1ED82AD610
:10BA60002ED442CA46C872C676C47AC27EC0C126E7
:10BA7000B70707E5D8473706001093860702518FAE
:10BA8000D8C7DC57F250E252D18FDCC65253C253B2
:10BA90003255A255125682567247E2475248C24862
:10BAA000324EA24E124F824F2161730020300000AF
:10BAB00097E2FFFF938212657390523017010110D5
:10BAC0001301415497510010938101D4D12A3DEDC7
:10BAD000938241861383018A63D7620023A0020008
:10BAE0009102E3CD62FE973206009382E27C174317
:10BAF00000101303635193834180635A730003AEB4
:10BB000002002320C30191021103E34A73FE97321E
:10BB100006009382A27A174300101303234F9383E6
:10BB20004186635A730003AE02002320C3019102D1
:10BB30001103E34A73FE9382018A1383011363D7CF
:10BB4000620023A002009102E3CD62FEA12AEF1061
:10BB5000A02CEFE02FF401200120010001200100C2
:10BB6000012001000120010001200100012001004D
:10BB7000012001000120010001200100012001003D
:10BB8000012001000120010001200100012001002D
:10BB9000012001000120010001200100012001001D
:10BBA000012001000120010001200100012001000D
:10BBB00001200100012001000120010001200100FD
:10BBC00001200100012001000120010001200100ED
:10BBD00001200100012001000120010001200100DD
:10BBE00001200100012001000120010001200100CD
:10BBF00001200100012001000120010001200100BD
:10BC000001200100012001000120010001200100AC
:10BC1000012001000120010001200100012001009C
:10BC2000012001000120010001200100012001008C
:10BC3000012001000120010001200100012001007C
:10BC4000012001000120828083A7018881CF37C7AE
:10BC500001203E95130707C06365A70223A0A188B2
:10BC60003E858280B71701201387879323A0E18840
:10BC70009387879337C701203E95130707C0E37F5B
:10BC8000A7FC411106C6EF108018B240B1471CC195
:10BC9000FD573E854101828073500430828082804E
:10BCA00001458280411106C6DD3FB2404101B1BC71
:10BCB0009307F00363FDA7003707084054471305B7
:10BCC00005FC8547B397A700D58F5CC78280FD47E9
:10BCD0003707004063FAA700344701158547B3973B
:10BCE000A700D58F3CC7828054538547B397A700E0
:10BCF000D58F5CD382809307F00363FFA7003707DB
:10BD000008405447130505FC8547B397A70093C720
:10BD1000F7FFF58F5CC78280FD473707004063FC63
:10BD2000A700344701158547B397A70093C7F7FFCE
:10BD3000F58F3CC7828054538547B397A70093C7BC
:10BD4000F7FFF58F5CD38280370700401C47E98FEF
:10BD5000F5DF014582809D4763EAA706B7E7061035
:10BD60009387C7D70A053E951C4182873707004055
:10BD70001C47B706080037050008D58F1CC7E9B770
:10BD8000370700401C47B706100037050010D58F55
:10BD90001CC7F5B7370700401C47B7060400370536
:10BDA0000004D58F1CC7E1BF37E50610130545D643
:10BDB00089A437050020E1B7370700401C47B706C4
:10BDC000020037050002D58F1CC755BF755582800C
:10BDD0009307F00363F0A702130505FC8547B397AB
:10BDE000A700370708401CC7B706084098467D8F54
:10BDF00075FF8280FD4763FFA70001158547B39754
:10BE0000A700370700407CC3B7060040F8427D8F8B
:10BE100075FF82808547B397A700370700405CC352
:10BE2000B7060040D8427D8F75FF82802DA03785F0
:10BE3000024081A8BD4763EEA70051473305E502E4
:10BE4000938701BCAA979843755509C7DC47C84337
:10BE5000828075558280BD4763E3A7025147330551
:10BE6000E502938701BCAA979843755511CBDC472F
:10BE700093F5F5050145D843D98DCCC3828075551E
:10BE80008280011122CC4AC806CE26CA4EC652C4B0
:10BE900056C2B78702402A890144630FF500B7E50F
:10BEA000061037E506101306A01A9385C5D91305A9
:10BEB00005DFEFF09F834154D144B304940293878C
:10BEC00001BC930904013D4A854ABE94637F8A0000
:10BED0000504D104E39C89FEF2406244D244424905
:10BEE000B249224A924A056182809C40F5D30327D9
:10BEF0004900B3978A00F98FE1DF9C4881C78145EB
:10BF00002285829722853D37AA852285053783279A
:10BF10004900DDFFD1B7411122C406C69377150051
:10BF20002A8499C30145C13B9377240099C30545F1
:10BF3000D9339377440081C7130500046D3B2285F4
:10BF40002244B24041016F00705837070840130780
:10BF500007606310E502B7760040938606C09052F2
:10BF60001397350093F71500418BD18FD98F9CD251
:10BF7000828075A4B7070840938707606312F502B3
:10BF8000B7760040938606C0939735009052C18BD8
:10BF900013F71500D98F93C7F7FFF18F9CD28280DA
:10BFA00049A46F003055B7070840938707606318AE
:10BFB000F500B777004093870780CCCF8280A5A497
:10BFC000B7070840938707606303F500B9ACB777FC
:10BFD000004093870780C84F8280370708401307C7
:10BFE00007606316E500014581E53D55828081A427
:10BFF0008280011122CC004126CA06CE4AC84EC614
:10C00000B7870040AA8401456304F402B797004053
:10C010000545630FF400B70708401387074009453B
:10C020006308E400938707600D456303F4007D55C2
:10C0300085493395A900C535D0408C482285713F8C
:10C040002A8905E19840B7070840938707608C4428
:10C050006318F712638A350789476387F50891C922
:10C060003D59F2406244D244B2494A854249056191
:10C070008280DC40B7760040938606C01396170096
:10C08000139747008C52098A13770702518F134781
:10C09000F7FF6D8F98D285839846858BD18F93C794
:10C0A000F7FFF98F9CC6DC441147E36BF7FA37E7DB
:10C0B0000610130707E08A07BA97944337770040C2
:10C0C000DC40130707C08286DC40B77600409386C9
:10C0D00006C08C521396170013974700098A1377EE
:10C0E0000702518F4D8F7DB7DC40B77600409386B5
:10C0F00006C08C521396170013974700098A1377CE
:10C100000702518F4D8F98D298468583858BD18FAA
:10C11000D98F49BF9396270010539607918A93F7BA
:10C120000704D58FD18F1CD39C4485DF22856244C0
:10C13000D040CC48F240D2444249B2490561BDAA40
:10C140000C539396370013F61700C18A4D8ED18E8B
:10C1500014D39396270096071053918A93F70704F8
:10C16000D58F93C7F7FFF18F7DBF9396370010539C
:10C17000C18A93F51700CD8E93C6F6FFF18EC9BF25
:10C18000D0402285D12841E9DC4411476367F70894
:10C1900037E70610130747E18A07BA979843DC4050
:10C1A0000287385093C7F7FF7D8F38D07850F98FCA
:10C1B0007CD09DBF38505D8F38D0785093C7F7FF43
:10C1C0007D8F78D013070408145FF58F1CDFA9BF9B
:10C1D00038505D8F38D0745013C7F7FF758F78D003
:10C1E00013070408145FD58FD5B7345013C7F7FF72
:10C1F000F98E34D07450D58F7CD093070408945FA7
:10C20000758F98DF15B7345013C7F7FF758F38D087
:10C2100078505D8FE9B72A89A9B5755999B54CCD84
:10C2200082800CD182802CC582802841828091C579
:10C230008547638DF500755582808327050C13466D
:10C24000F6FF7D8E2320C50C014582808327050CD7
:10C25000D18F2320F50CCDBF1C59D18F1CD950C1D3
:10C26000954763EBB704B7E70610938787E28A0523
:10C27000BE959C41828750C950C130D970DD1305ED
:10C28000050810C50145828010C9FDB79307050850
:10C2900090C770DD30D9F5B79307050890C770DDFA
:10C2A00070D5C5B79307050890C730DDE5B793078C
:10C2B000050890C730DDEDB77555828089476384E6
:10C2C000F50463EFB7009347F6FF8DE91305050802
:10C2D00018597D8F18D95859F98F5CD9014582803A
:10C2E0008D47638CF502130505081C591346F6FFAC
:10C2F000F18F1CD95C597D8E50D9CDB71305050837
:10C300001859518FC1BF1305050818599347F6FFF7
:10C31000F98F1CD95C59D18FC9B7130505081C5971
:10C32000D18FC5BF09A0832705104167F99B232042
:10C33000F51085472320F57083270510F98FEDDF71
:10C3400083270510416793E717002320F510832703
:10C350000510F98FEDDF8280011126CA4AC852C448
:10C3600006CE22CC4EC6B7070140AA842E89328A57
:10C370006309F508B7170140631DF500054485ED15
:10C380007D55F2406244D2444249B249224A056195
:10C390008280B72701406303F506B7370140630C7D
:10C3A000F504B7170840138707C06303E504631259
:10C3B000F5021544F1D58327C9001147F917636FBA
:10C3C000F71037E706108A07130707EABA979C4366
:10C3D0008287DDD5B7E5061037E506101306500253
:10C3E000938505E4130545E9EFF02FB07D54E1B7DF
:10C3F0001144F1F171B70D44DDFD59B70944C5FD94
:10C4000041B70144CDF9ADBF8D4763C9871A0145D6
:10C41000EFF07F94B78593039385057026857D2A79
:10C420008549954763E7870EB7E70610938747EB83
:10C430000A043E941C4082871545EFF0DF91932952
:10C440004400B785700026858609492AD9BF9147DF
:10C450006317F4021945EFF01F90A1652685BD2AE8
:10C46000854937E506101305C5C861361305200454
:10C47000EFF01F9613052004EFF0FF8759A88D47B2
:10C4800063CE87121945EFF01F8DA1652685B9226D
:10C490008D4941BF8D4763D387120D45EFF0BF8BA8
:10C4A0009D65938505532685152A89499DBF954726
:10C4B0006316F4101545EFF01F8AB7150E00268598
:10C4C000312A854937E50610130545C71D36130582
:10C4D0003004EFF0FF8F1305300479BFB707012058
:10C4E00083A50700268581498581CD281DBF154577
:10C4F000EFF01F8E3D45EFF01F80630C0A0003270D
:10C50000890089476302F70237E506101305C5D491
:10C51000CD346244F240224A4E86CA85B24942492D
:10C520002685D244056155A437E506101305C5CE0E
:10C53000C5B71945EFF0DF894145EFF0CFFBE30ABE
:10C540000AFC0327890089476307F70037E50610CF
:10C55000130545D375BF37E50610130545CD4DBF0F
:10C560001D45EFF0FF864545EFF0EFF8E3030AFACB
:10C570000327890089476307F70037E5061013058D
:10C58000C5D179B737E506101305C5CB51B721459D
:10C59000EFF01F844945EFF00FF6E30C0AF603278E
:10C5A000890089476307F70037E50610130545D072
:10C5B00085B737E50610130545CA99BF3D55D1B378
:10C5C00035A641AEC5AE81A95DA96F00A07B6F0005
:10C5D000807F6F00C07C6F00E07CADA3411122C45E
:10C5E00006C6370701402E8481476308E5043717E4
:10C5F000014085476303E504372701408947630EFF
:10C60000E502373701408D476309E50237170840D7
:10C61000930607C091476302D5029547630FE50073
:10C62000B7E5061037E50610130660099385C5ECDB
:10C63000130545E9EFF06F8BFD57138701D08E0787
:10C64000BA97B240C0C3224405472380E7004101A6
:10C6500082803707014081476306E50637170140AE
:10C6600085476301E506372701408947630CE504E8
:10C67000373701408D476307E504371708409306B5
:10C6800007C091476300D5049547630DE502B7E500
:10C69000061037E506104111130545E91306000A97
:10C6A0009385C5EC06C6EFF04F84FD57138701D084
:10C6B0008E07BA9703C70700655511C3C843B24038
:10C6C00041018280138701D08E07BA9703C7070004
:10C6D000655519C3C84382808280411122C426C295
:10C6E00006C6B70701402A84AE846302F504B71773
:10C6F0000140630EF502B7270140630AF502B73720
:10C7000001406306F502B7170840138707C06300AE
:10C71000E502630EF500B7E5061037E506101306CF
:10C72000E00A9385C5EC130545E9EFE01FFCC9C895
:10C730009044144811679307E6FF93B717009207D8
:10C740003317F700558FA14618C8B396F600184C5A
:10C75000758F75DFD84014483317F700558F18C808
:10C76000D848144822073317F700558F18C80547D3
:10C770003317F7009306001018C0B396F60058441C
:10C78000758F75DF98483317F70058C0144C096748
:10C79000B317F70093C7F7FFF58F1CCC89476311D8
:10C7A000F6021C4C37070001D98F1CCC1C483707F8
:10C7B0000080D98F1CC8370704001C4CF98FF5DFA7
:10C7C000B2402244924441018280411122C426C2D7
:10C7D0004AC006C6B70701402A842E89B284630284
:10C7E000F504B7170140630EF502B7270140630A4D
:10C7F000F502B73701406306F502B7170840138703
:10C8000007C06300E502630EF500B7E5061037E5E3
:10C810000610130600039385C5EC130545E9EFE008
:10C82000DFEC7D556309090A8327890013F7370078
:10C8300051C3184C0607058318CC5844C1668506B9
:10C84000558F58C40547636CF706184C93F63400AF
:10C85000719B558F18CC14480327090093F6F6F006
:10C860001377070F558F18C88DEB184CB7060300C8
:10C87000C204F58CB706FDFFFD16758FD98C032712
:10C88000090004CC14483706F0003207718F3706D0
:10C8900010FF7D16F18E558F18C803274900A14659
:10C8A00063EAE602B7E606100A07938606F23697B1
:10C8B00018430287184CB7060080558FB5BF09474B
:10C8C000E385E7FAD9BF09473D556386E700CA8586
:10C8D000228521350145B24022449244024941015A
:10C8E00082800947E395E7FE3D55F5B7411122C423
:10C8F00006C6B70701402A846302F504B717014052
:10C90000630EF502B7270140630AF502B73701400D
:10C910006306F502B7170840138707C06300E502F6
:10C92000630EF500B7E5061037E506101306500E46
:10C930009385C5EC130545E9EFE03FDB1C48216713
:10C94000D98F1CC81C4C918BF5DFB24022444101A9
:10C950008280411122C406C6B70701402A846302BF
:10C96000F504B7170140630EF502B7270140630ACB
:10C97000F502B73701406306F502B7170840138781
:10C9800007C06300E502630EF500B7E5061037E562
:10C9900006101306F00E9385C5EC130545E9EFE08C
:10C9A000DFD41C4861777D17F98FB2401CC8224440
:10C9B00041018280411122C406C6B70701402A8482
:10C9C0006302F504B7170140630EF502B727014073
:10C9D000630AF502B73701406306F502B71708404E
:10C9E000138707C06300E502630EF500B7E5061084
:10C9F00037E506101306C0149385C5EC130545E909
:10CA0000EFE0BFCE5C4441670507D98FB2405CC4FC
:10CA1000224441018280411122C426C206C6B707C2
:10CA200001402A84AE846302F504B7170140630E07
:10CA3000F502B7270140630AF502B73701406306E4
:10CA4000F502B7170840138707C06300E502630EBD
:10CA5000F500B7E5061037E5061013065019938563
:10CA6000C5EC130545E9EFE05FC804C05C4493F7EB
:10CA70000710EDDFB2402244924441018280797177
:10CA800022D426D206D6B70701402A84AE84630298
:10CA9000F504B7170140630EF502B7270140630A9A
:10CAA000F502B73701406306F502B7170840138750
:10CAB00007C06300E502630EF500B7E5061037E531
:10CAC00006101306201A9385C5EC130545E9EFE01F
:10CAD000DFC1A9CCB707012003A5070037460F0027
:10CAE000130606240581B335950281463305950268
:10CAF000EF10F0238147A1E192072ACC22853EC4A2
:10CB000002C602C802CA02CEEFF0BFAB01462C003B
:10CB10002285EFF07F841C4C370700802285D98F57
:10CB20001CCCEFF03FAA2285EFF09FA9B25022540F
:10CB30009254456182801397F5010581598D858155
:10CB4000850755BF397122DC26DA4AD84ED606DE73
:10CB500052D456D25AD05ECEB70701402A84AE894D
:10CB6000B28436896302F504B7170140630EF502FB
:10CB7000B7270140630AF502B73701406306F502A3
:10CB8000B7170840138707C06300E502630EF5007E
:10CB9000B7E5061037E506101306A01C9385C5EC13
:10CBA000130545E9EFE07FB42285032A0401EFF085
:10CBB0005FAA2A846342050637460F00130606243F
:10CBC0003346C502135A4A00137AFA008547B397D1
:10CBD0004701130A803EB38AF9029356F641B3A97E
:10CBE0003703B3375A03330B3A03B30B5A033E9B55
:10CBF000DA855E85EF10B013814799C93346440347
:10CC00005E85DA859356F641EF10701295E18547FF
:10CC100088C02320F9000144F25022856254D25486
:10CC20004259B259225A925A025BF24B21618280D8
:10CC30009356F44122865E85DA8536C6EF10300FB2
:10CC4000B2468947F1D522865685CE85EF10300E43
:10CC500071548D47D5DDC9B781A0B1A021A039A8F5
:10CC6000A1A8B9A8411122C406C62A842285CD3FB5
:10CC700075DD22852244B2404101F9BF011122CC69
:10CC800006CE2A8422852EC6E93FB24565DD22857F
:10CC90006244F2400561D1B75C41C18B99E3085110
:10CCA00082804D5582805C4193F7070881E70CD163
:10CCB0000145828051558280484121813D89828091
:10CCC0005C412145B183BD8B1D8D8280411122C401
:10CCD00083C7418806C691EB130600208145138562
:10CCE00001F3512285472382F188B2402244014555
:10CCF00041018280011122CC06CE26CA4AC84EC606
:10CD00008D472A8463F4A704B7E5061037E50610BB
:10CD10001306E004938545F41305C5F9EFE0FF9C85
:10CD200001494A85EFF0CFA9AA85AA844A85EFF088
:10CD30008FA71E04138901F3938901D395E4F24070
:10CD40006244D2444249B249056182803789004039
:10CD500069D9B7E706101307F5FF0A079387C7FBE2
:10CD6000BA9703A9070075BF93F7140089CBB307DF
:10CD700024019C4389C73307340108438297858087
:10CD800011046DBF411122C406C62A84EFF07F83CF
:10CD900022852244B240814541016FF0DF82FD557A
:10CDA0006FF09F82411106C622C426C2AA84EFF00A
:10CDB0001F822A842685EFF05F81B24022852244BB
:10CDC0009244410182800C4101117400300006CE72
:10CDD000EFF0BF8032478946A2476300D7028D46F5
:10CDE0006302D70285463E856306D7001305803E61
:10CDF00033D5A702F240056182801305803E33855A
:10CE0000A702CDBF37450F0013050524CDBF173549
:10CE100000100325651F8280411122C426C213849D
:10CE2000418693844186818C4AC006C68984014923
:10CE3000631199021384418693844186818C89848D
:10CE40000149631D9900B2402244924402494101C4
:10CE500082801C40050911048297D9BF1C40050936
:10CE600011048297F9BF2A8311C62300B3007D16EF
:10CE7000050365FE8280C5C183A7C5FF011122CCD1
:10CE800006CE1384C5FF63D307003E942AC6EF0085
:10CE9000B0241387C1881C43324589EB2322040048
:10CEA00000C36244F24005616F007023637DF400AB
:10CEB0001040B306C4006396D7009443DC43B29697
:10CEC00014C05CC0F1BF3E87DC4399C3E37DF4FE30
:10CED00014433306D700631F86001040B29614C374
:10CEE0003306D700E39FC7FA9043DC43B29614C3DE
:10CEF0005CC345BF6375C400B1471CC15DB710403A
:10CF0000B306C4006396D7009443DC43B29614C0C2
:10CF10005CC040C379B7828041114AC013898188BF
:10CF20008327090022C426C206C6AA842E8489E764
:10CF3000814545242320A900A2852685592C7D59A9
:10CF4000631A25017D54B24022852244924402494D
:10CF500041018280130435007198E30685FEB30514
:10CF6000A4402685BD24E31025FFE9BF011126CA90
:10CF700093843500F1984AC806CE22CC4EC6A1044F
:10CF8000B1472A8963F4F406B14463E3B4064A85E1
:10CF9000EF0090149389C18883A709003E8425E49B
:10CFA000A6854A85953FFD572A846316F50C03A490
:10CFB0000900A287DDE78329040081454A85A299FB
:10CFC000092C6393A90A1C408D049D8CF198A1043F
:10CFD000B14763F3F400B144A6854A85353FFD5758
:10CFE0006304F5081C40A6971CC03DA8E3DF04F8C5
:10CFF000B1472320F9000145F2406244D24442493E
:10D00000B249056182801440858E63C906042D47AC
:10D01000637ED70204C0330794006397870223A07E
:10D02000E9005C4014C35CC34A85EF00500B130554
:10D03000B4009307440061993307F540E30EF5FA15
:10D040003A94898F1CC04DBFD8C3E1BF5840639547
:10D05000870023A0E900C9BFD8C3F9B7A287404021
:10D060003DBF3E84DC43B9B7B1472320F9004A8570
:10D07000EF00F00649B704C145BF5D7122D406D662
:10D080002A842EDA32DC36DEBAC0BEC2C2C4C6C6BC
:10D0900017350010032545F711C51C4D81E72AC639
:10D0A000452B32450C455418228636CEEF00500AE7
:10D0B000B250225461618280011126CA06CE22CC70
:10D0C0004AC84EC652C4AA8419E11C4502901C4DA0
:10D0D0002E89A5E7B52B9C4C8044B5C39717060055
:10D0E0009387C7F26310F406C0407C50858B81EBB8
:10D0F0008357C40093F7072099E3284CD92D835711
:10D10000C400A18B99C31C48C5E7A285268575225A
:10D1100045C1FD547C50858B81EB8357C40093F748
:10D12000072099E3284C7D25F24062444249B249E8
:10D13000224A2685D24405618280004545B726856E
:10D14000012B69BF97170600938747EA6314F40021
:10D15000804461BF97170600938747E7E317F4F809
:10D16000C04461B71CC4050963C907021C4013878A
:10D17000170018C02380B7001C4483450900FD1721
:10D18000F5F11CC463D907022286A9452685B5207E
:10D19000FD57E300F5F8A944B5BF184C63C4E70098
:10D1A000E39645FD228626858928E31735FD95B748
:10D1B000FD59294AD1B71C401387170018C02947C9
:10D1C0002380E700C9BFAA85173500100325C5E3F2
:10D1D000E5B5411122C42A842E8523AE018806C6F6
:10D1E000EFE09FA6FD576316F50083A7C18991C3A1
:10D1F0001CC0B240224441018280011122CC26CAC7
:10D200004AC806CE4EC6AA842E89328401C51C4D5A
:10D2100091E33D2997170600938747DF6318F402CF
:10D22000C0401C4C1CC48357C400A18B99C31C482C
:10D2300095EFA2852685512015C97D59F24062449B
:10D24000D244B2494A854249056182809717060057
:10D250009387C7D96314F4008044E1B79717060099
:10D260009387C7D6E31FF4FAC04465BF1C48084043
:10D270009379F90F1379F90F1D8D5C486346F5001A
:10D28000A2852685852C55F91C440505FD171CC46F
:10D290001C401387170018C0238037015C4863893E
:10D2A000A7008357C400858BD1DBA947E318F9F8A1
:10D2B000A2852685812459D149B7411122C426C2AD
:10D2C0004AC006C69734001083A404D42A892E8449
:10D2D00089C49C4C99E32685A52E97170600938751
:10D2E000E7D26314F402C0408317C40013F7870029
:10D2F00035EB13F7070115EB25472320E90093E7EA
:10D3000007042316F4007D5561A89717060093873C
:10D31000E7CD6314F4008044C1BF971706009387DC
:10D32000E7CAE313F4FCC044C1B7918B95C74C58CE
:10D3300091C9930744046385F5004A85EFF0BFB3B4
:10D34000232A04028357C4002322040093F7B7FD65
:10D350002316F4001C481CC08357C40093E78700C1
:10D360002316F4001C4881EF8357C40013070020E4
:10D3700093F707286385E700A2854A855D2983170F
:10D38000C40013F717001DC35848232404003307B3
:10D39000E04018CC1848014501E713F7070825F3CA
:10D3A000B2402244924402494101828013F727008F
:10D3B000814611E3544814C4F1BF8397C50001119D
:10D3C00022CC26CA06CE4AC84EC613F78700AA84C6
:10D3D0002E8471E7D8416345E000B8416359E00805
:10D3E000585451C7B18303A90400858B23A00400BE
:10D3F0000C50A1CF70488357C400918B99C75C40F3
:10D400001D8E5C5899C33C401D8E5C540C50814667
:10D4100026858297FD57630EF5041C480567232275
:10D4200004001CC08357C400F98F91C368C84C58CE
:10D4300023A024018DCD930744046385F500268540
:10D44000EFF07FA3232A04021DA00146854626850E
:10D450000297FD572A86E310F5FA9C40C9DF75470D
:10D460006385E70059476395E70623A0240101453A
:10D47000BDA098408317C40001CFF5466305D700CF
:10D48000D9466319D7041C48232204001CC045B7A1
:10D490001848B1832322040018C0858B79B783A96B
:10D4A0000501E38609FC03A905008D8B23A0350146
:10D4B00033093941014791E3D84918C4E35920FBA6
:10D4C0001C540C50CA864E86268582976340A00263
:10D4D0008317C40093E707042316F4007D55F24038
:10D4E0006244D2444249B24905618280AA99330913
:10D4F000A940E9B79C49411106C622C426C281EB66
:10D500008144B24022442685924441018280AA840B
:10D510002E8401C51C4D91E3252A97170600938799
:10D52000E7AE631DF402C0408317C400F1DB7850FE
:10D53000058B11E793F7072099E3284C592C268592
:10D54000A285A53D7C50AA84858BC5FF8357C40066
:10D5500093F70720DDF7284CB52C65B79717060021
:10D560009387C7A86314F40080447DBF9717060013
:10D570009387C7A5E31AF4FAC0447DB7411122C4CA
:10D5800006C62A842316B5002317C50023200500EC
:10D590002322050023240500232205062328050055
:10D5A000232A0500232C0500214681451305C505C6
:10D5B000EFF07F8B97170000938707A05CD0971739
:10D5C0000000938767A21CD4971700009387A7A633
:10D5D0005CD497170000938767A9B24000D01CD88D
:10D5E000224441018280970500009385E5F0A5AAB9
:10D5F000411126C2930780069384F5FFB384F40299
:10D600004AC02E8922C406C693854407EFF01F96B0
:10D610002A8401CD2320050023222501310508C4D9
:10D62000138684068145EFF01F84B2402285224490
:10D6300092440249410182801385418959AA138588
:10D64000418949AA1385818969A21385818959A2D3
:10D65000411122C406C62A84F5371C4C89C72244CE
:10D66000B2404101DDB797070000938707F81CD44B
:10D6700023240404232604042328040497270000F9
:10D6800083A7871E6394870085471CCC22853D2095
:10D6900048C02285252008C422850D2048C4484062
:10D6A00001469145E13D08440546A545C13D484434
:10D6B0000946C945E13585471CCC55B7411126C2FD
:10D6C0004AC006C622C42A89853F9724000083A445
:10D6D000A4199C4C99E32685A53F93848404804437
:10D6E000DC40FD1763D607009C40BDC38440C5BF26
:10D6F0000317C40039EBC17785075CC413058405A3
:10D7000023220406F120253F214623200400232460
:10D7100004002322040023280400232A0400232CCD
:10D72000040081451305C405EFF0EFF3232A04023A
:10D73000232C04022324040423260404B24022855B
:10D74000224492440249410182801304840651BF5D
:10D7500091454A85713D88C02A8449F9CD35B14744
:10D760002320F900E1BF797122D44AD04ECE52CCA9
:10D770005AC85EC606D626D256CA2A892E8A1304ED
:10D7800085048149054BFD5B0444832A4400FD1A4E
:10D7900063D00A0200406DF8B250225492540259EC
:10D7A000624AD24A424BB24B4E85F2494561828071
:10D7B00083D7C400637BFB008397E4006387770112
:10D7C000A6854A85029AB3E9A90093848406C1B765
:10D7D0008280828082805971A2D42E848395E50054
:10D7E000A6D2CAD086D6B284368963D305028357BF
:10D7F000C40093F7070895EB13070040B650265472
:10D800002320F90098C0065996540145656182802D
:10D810003000EF00100BE34C05FC3247BD67F98F79
:10D820007977BA9793B71700C1BF814713070004F0
:10D83000F1B783D7C500797122D406D626D24AD053
:10D840004ECE898B2E8491CF930774041CC01CC8C4
:10D8500085475CC8B250225492540259F24945613E
:10D86000828074003000AA84BD37A2492A892685A7
:10D87000CE85EFF0AFEF01ED8317C40013F707205B
:10D8800071FBF19B93E727002316F40075BF970700
:10D890000000938787D59CD48357C40008C008C86C
:10D8A00093E707082316F400B247232A340191CFE7
:10D8B0008315E4002685EF00700301C98357C40077
:10D8C000F19B93E717002316F4008357C40033E558
:10D8D00027012316A400BDBF13850189DDBD138573
:10D8E0000189CDBD1C46FD171CC663DA0700184E22
:10D8F00063C5E700A9476394F5006FF01F901C42D1
:10D900002E851387170018C22380B700828001116B
:10D9100022CC26CA4AC84EC652C406CE2A89AE892F
:10D920003284B304D6007D5A63149400014509A8DB
:10D93000834504004E864A8575370504E31645FF86
:10D94000F2406244D2444249B249224A056182808F
:10D95000357122CD26CB4AC94EC706CF52C556C314
:10D960005AC1DEDEE2DCE6DAAA892E843289B68488
:10D9700001C51C4D91E3E9399707060093870769B4
:10D98000631AF40403A449007C50858B81EB835710
:10D99000C40093F7072099E3284C253D8357C40022
:10D9A000A18B99C31C48ADE3A2854E85EFF0FF9093
:10D9B00021CD7C50858BA9C37D55FA406A44DA4459
:10D9C0004A49BA492A4A9A4A0A4BF65B665CD65CCF
:10D9D0000D61828097070600938747616315F40005
:10D9E00003A4890055B7970706009387275EE31DB8
:10D9F000F4F803A4C90049BF8357C40093F7072074
:10DA0000C5FF284CC13B4DBF93070002A304F102A0
:10DA10009307000302D22305F10226C6930B50029E
:10DA2000970A0600938A8A60054C294BCA8483C7EB
:10DA3000040099C3639B7709B38C2441638D24014F
:10DA4000E6864A86A2854E85D935FD57630EF518C0
:10DA50009257E6973ED283C7040063870718FD57A5
:10DA60001389140002C802CE3ECA02CCA3090104E5
:10DA700082D48345090015465685D925C2479304AB
:10DA8000190031E513F7070109C713070002A309BD
:10DA9000E10413F7870009C71307B002A309E104E3
:10DAA000834609001307A002638BE602F247CA848B
:10DAB0008146254603C7040093851400130707FD1C
:10DAC0006375E6068DC63ECE1DA085048DB7330571
:10DAD00055413315AC00C98F3EC8268959BF32471E
:10DAE00093064700184336C6634A07023ACE03C777
:10DAF00004009307E002631EF70403C714009307B2
:10DB0000A002631AF702B2478904138747009C43B7
:10DB10003AC663D30700FD573ECA25A83307E04045
:10DB200093E727003ACE3EC8D9B7B3876703AE84E0
:10DB30008546BA9741B7850402CA81468147254682
:10DB400003C7040093851400130707FD6374E606FA
:10DB5000E1F683C504000D46170506001305854D43
:10DB6000C52311CD970706009387C74C1D8DC2476B
:10DB7000130700043317A700D98F85043EC883C557
:10DB800004001946170506001305054B13891400F8
:10DB90002304B102752325CD9307000095E7424782
:10DBA000B2471377071009CF91073EC69257D29715
:10DBB0003ED2ADBDB3876703AE848546BA9749B7F9
:10DBC0009D07E19BA107D5B77800970600009386D3
:10DBD00046D422860C084E8597000000E70000001E
:10DBE000FD572A8AE314F5FC7C50858B89EB83571B
:10DBF000C40093F7072081E7284CEFF0BFBD83579F
:10DC0000C40093F70704E39907DA12557DB378004F
:10DC1000970600009386E6CF22860C084E85112ACF
:10DC2000C1B7797156CA9C49BA8A984522D44AD05C
:10DC30004ECE52CC06D626D25AC85EC6AA892E84AB
:10DC40003289368A63D3E700BA872320F900034775
:10DC5000340401C785072320F9001C4093F707020D
:10DC600091C78327090089072320F9000440998878
:10DC700091E8130B9401FD5B5C4403270900998F25
:10DC800063CCF40483473404B336F0001C4093F7AC
:10DC90000702A5EB13063404D2854E85829AFD5700
:10DCA0006303F5041C4011478144998B6399E70095
:10DCB0004444832709009D8C63D3040081441C44A1
:10DCC00018486354F700998FBE94014969047D5B3D
:10DCD00063982405014509A885465A86D2854E8554
:10DCE000829A631E75017D55B25022549254025996
:10DCF000F249624AD24A424BB24B45618280850466
:10DD0000A5BF3307D40013060003A301C7040347CC
:10DD1000540493871600A2978906A381E7049DBF48
:10DD200085462286D2854E85829AE30E65FB0509DB
:10DD300045B7797122D44AD04ECE52CC06D626D2DF
:10DD400056CA5AC803C88501930780072A892E84BA
:10DD5000B289368A63E20703930720069386350467
:10DD600063E107036300081E93078005170606009A
:10DD70001306062D630AF8149304240423010405F2
:10DD800015A89307D8F993F7F70F5546E366F6FE03
:10DD9000170606001306462D8A07B2979C43B297D2
:10DDA00082871C4393842504938647009C4314C3B5
:10DDB0002381F504854745AA90411C431375060845
:10DDC0009385470039C19C430CC3584063D2071464
:10DDD0009305D002A301B40418C463500704B30729
:10DDE000F040170606001306A6252948B68433F727
:10DDF0000703FD143297034707002380E4003E87A2
:10DE0000B3D70703E37507FF8DA09C431375060482
:10DE10000CC345DDC207C1874DBF6D9A10C0C1B7A5
:10DE200090411C43137506089385470001C50CC338
:10DE30009C4339A0137606040CC37DDA83D7070010
:10DE40001307F006170606001306861F6310E80C7A
:10DE50002148A3010404584018C4E34907F80C40C2
:10DE6000ED990CC0C1F7B68451F3A147631EF800C9
:10DE70001C40858B91CB58401C4863C7E700930733
:10DE80000003A38FF4FEFD14858E14C85287CE863E
:10DE90007000A2854A857133FD5A631A550D7D5570
:10DEA000B250225492540259F249624AD24A424B29
:10DEB000456182809C4193E707029CC1130880075B
:10DEC0001706060013060619A30204050C401C439E
:10DED00013F80508138547006305080008C39C4331
:10DEE00001A813F8050408C3E30B08FE83D7070055
:10DEF00013F7150001C793E505020CC099C341480B
:10DF000089BF18401377F7FD18C0D5BF294891B7CE
:10DF1000170606001306C612294835BF90411C4358
:10DF2000CC4913780608138547006306080008C328
:10DF30009C438CC301A808C3137606049C4375DA7E
:10DF40002390B70023280400B68489B71C43D0412E
:10DF500081459386470014C384432685D52219C181
:10DF6000058D48C05C401CC8A301040405B71448D3
:10DF70002686CE854A85029AE30355F31C40898B99
:10DF80008DE7B2474844E35DF5F03E8511BF854615
:10DF90005686CE854A85029AE30365F185045C4482
:10DFA0003247998FE3C5F4FEE9BF8144930A940197
:10DFB0007D5BF5B7411122C42E848395E50006C62A
:10DFC000692A634905007C48AA977CC8B24022446C
:10DFD000410182808357C4007D777D17F98F231616
:10DFE000F400EDB783D7C500011122CC26CA4AC878
:10DFF0004EC606CE93F70710AA842E843289B689BE
:10E0000091C78395E5008946014629228357C400BC
:10E010007D777D17F98F8315E4002316F4006244A1
:10E02000F240CE864A86B24942492685D2440561ED
:10E030003DA8411122C42E848395E50006C6D92847
:10E040007D578357C400631BE5007D777D17F98FEB
:10E050002316F400B2402244410182800567D98F23
:10E060002316F40068C8FDB78395E5003DA0411173
:10E0700022C42A842E85B285368623AE018806C640
:10E08000EFD00FF2FD576316F50083A7C18991C346
:10E090001CC0B240224441018280411122C42A8422
:10E0A0002E8523AE018806C6EFD06FE7FD576316B5
:10E0B000F50083A7C18991C31CC0B240224441012D
:10E0C0008280411122C42A842E85B28523AE018824
:10E0D00006C6EFD08FE5FD576316F50083A7C1890B
:10E0E00091C31CC0B240224441018280411122C42C
:10E0F0002A842E8523AE018806C6EFD08FE2FD5715
:10E100006316F50083A7C18991C31CC0B2402244A5
:10E1100041018280411122C42A842E85B28536862F
:10E1200023AE018806C6EFD00FE0FD576316F50059
:10E1300083A7C18991C31CC0B2402244410182809F
:10E1400093F5F50F2A966314C50001458280834735
:10E150000500E38DB7FE0505FDB7411122C42A84F1
:10E160002E85B285368623AE018806C6EFD02FDC19
:10E17000FD576316F50083A7C18991C31CC0B24047
:10E18000224441018280411122C426C206C62A844B
:10E19000A520AA84228569261DC19715000083A5A4
:10E1A000256D2285EF00D0586341A002971500002D
:10E1B00083A5456C2285EF00106163470502B240DC
:10E1C00022442685924441018280EFE05FC4B24040
:10E1D0002244930720029714000083A424691CC1E1
:10E1E0002685924441018280EFE07FC2930720029E
:10E1F0001CC193040000E1B701119317150022CC54
:10E2000006CE26CA4AC84EC652C456C25AC08583D4
:10E210003707807F2A846361F7121359F5016385FC
:10E22000E7223777B142130777216343A71E634C78
:10E23000051E3777B13E13078721637BF710371729
:10E24000853F130717596362F72293142900971724
:10E2500000009387E762A6978C432285EF10A00DFC
:10E26000171700001307476126978547832A070081
:10E27000B3872741AA89B3842741D6854E85EF10FD
:10E28000800BAA852A84EF00905D9715000083A576
:10E29000E5602A89EF00B05C9715000083A5456012
:10E2A000EF106009CA85EF00905B9715000083A509
:10E2B000655F3525CA85EF00905A9715000083A544
:10E2C000A55EEF104007CA85EF0070599715000052
:10E2D00083A5C55D2925CA85EF007058AA852285CA
:10E2E000EF1060052A89AA852285EF0050574A8BD6
:10E2F0002A8A6384040ECA85171500000325C55BAE
:10E30000EF106003AA855285EF00F013AA855685A9
:10E31000EF106002CE85EF100002AA8517150000ED
:10E3200003254559EF102001930730F863C4F41218
:10E33000939774013E9519A0AA855523F240624433
:10E34000D2444249B249224A924A024B0561828034
:10E350003707003463F1E7029715000083A54555A0
:10E360002285B52B9714000083A4C454A685EF0022
:10E37000303C6345A014A2852285EF00504E9715CE
:10E38000000083A5A551AA84EF00704D97150000E9
:10E3900083A50551EF00307AA685EF00504C971504
:10E3A000000083A52550252BA685EF00504B97151F
:10E3B000000083A5654FEF001078A685EF00304A76
:10E3C0009715000083A5854E192BA685EF003049CF
:10E3D000AA852285EF0030762A8BDA852285EF0028
:10E3E0001048AA849715000083A5054D5A85EF00B3
:10E3F0009074AA852685EF001005A285EF00B07302
:10E40000AA85171500000325E54AEF00D0723DB735
:10E410006244F240D2444249B249224A924A024BF3
:10E4200001450561CDA837F7CF421307571BE372AB
:10E43000F7E06244F240D2444249B249224A924A49
:10E44000024B01450561D9A013050000E31809EE50
:10E450002285EDB593874406DE079715000083A556
:10E46000E5453E95EF00B03FD1BD9715000083A56F
:10E4700025422285EF00B03E0A09971700009387D6
:10E48000A740CA978C43A129EF10A023AA84EF10BC
:10E4900060299715000083A5E53F2A89EF00303CED
:10E4A000AA852285EF003069AA899715000083A507
:10E4B000A53E4A85EF00B03AAA8AC1B3A685228557
:10E4C0003929ADBD411122C426C206C62A84AE84B4
:10E4D000EFE0FF9304C1B2402285224492444101FF
:10E4E0008280411106C619C9370500802D8DEF00C5
:10E4F0001037B240930520024101E9B72E85EF00A5
:10E500001036B2409305200241016DBF97150000FF
:10E5100083A5053BF9B79715000083A5A53AD1B7A8
:10E520000605B707807F05813325F5008280328894
:10E53000AA882E87C5EE63F3C510C1676360F61A1B
:10E54000B7070001B337F600B307F040E19BE107DE
:10E550003353F60097060600938606C19A9683C643
:10E56000060013030002B697B306F340630BF300F3
:10E570003397D500B357F5003318D6005D8FB31825
:10E58000D500135608013355C70293160801C182FE
:10E5900093D708013377C702B385A6024207D98F04
:10E5A00063FAB700C2971307F5FF63E4070163E15D
:10E5B000B7323A858D8F33D7C702C20893D8080186
:10E5C000B3F7C702B386E602C207B3E8F80063FBFD
:10E5D000D800C2989307F7FF63E50801791763E352
:10E5E000D8003E874205598D8145828063F5D5006C
:10E5F000814501458280C16763EAF618B7070001CB
:10E60000B3B7F600B307F040E19BE10733D8F6005B
:10E6100017070600130747B54297034707009308FB
:10E6200000023E973388E8406397E81863E4B62811
:10E630003335C500134515008145828055C6C16735
:10E640006372F62613370610134717000E07B356EA
:10E65000E60097070600938727B1B69783C70700A0
:10E6600093060002BA97B38EF640639FF608B3870D
:10E67000C5409356060142064182854533D5D702EF
:10E6800013D70801B3F7D7023303C502C207D98FE6
:10E6900063FA6700C2971307F5FF63E4070163E6B7
:10E6A00067223A85B387674033D7D702C20893D829
:10E6B0000801B3F7D7023306C702C207B3E8F80070
:10E6C00063FBC800C2989307F7FF63E50801791759
:10E6D00063E3C8003E874205598D82809337061058
:10E6E00093C717008E07ADB581469707060093873D
:10E6F000A7A7B69783C70700014793060002BA97FA
:10E70000B38EF640E385F6F63318D60133D3F50021
:10E7100093560801335ED30213160801B395D50151
:10E720004182B357F500CD8F13D70701B318D50138
:10E730003373D302B305C603420333676700637BB9
:10E74000B70042971305FEFF636D0717637BB7168B
:10E75000791E42970D8F3355D702C207C183337795
:10E76000D7023303A6024207D98F63FB6700C29723
:10E770001307F5FF63E3071563F167147915C29773
:10E7800093150E01B3876740C98DCDBD93B70610B1
:10E7900093C717008E0733D8F60017070600130734
:10E7A000A79C429703470700930800023E973388CF
:10E7B000E840E38DE8E6335EE600B3960601336E8B
:10E7C000DE00B3D8E500935E0E01B3D7D803131370
:10E7D0000E01B3950501135303013357E5004D8F27
:10E7E0009356070133160601B3F8D803B305F302B5
:10E7F000C208B3E6160163FBB600F2969388F7FFF2
:10E8000063E3C60D63F1B60CF917F2968D8EB3D59E
:10E81000D60342074183B3F6D603B308B302C20658
:10E82000558F637B170172979386F5FF6369C7095C
:10E8300063771709F9157297C207C16ECD8F93865A
:10E84000FEFFB3F5D70013D30701F18E4182338E5B
:10E85000D50233071741B306D30293580E01B3858F
:10E86000C502B695C6953303C30263F3D50076930C
:10E8700093D605019A966363D7026305D7003E8558
:10E8800081458280C166FD1633F7D5004207337E8D
:10E89000DE00331505017297E373E5FE1385F7FF7C
:10E8A00081458280B70700016377F602935606011F
:10E8B000414745B38145054582803A85D1B5B68546
:10E8C000A5BF2A8E41BDC68791B77915C297D9BB1E
:10E8D0007915C297C5B19356860161479DBB37072D
:10E8E000800041117D179356750113D67501B377DA
:10E8F000A70026C26D8F4AC01376F60F13F9F60FE4
:10E9000006C622C49354F501FD818E070E07B30697
:10E91000C9406381B404635FD00031EE6301071224
:10E920001386F6FF630E062A9305F00F638BB61667
:10E93000B28689A8F1C2B3062641631C091CF5CF33
:10E940001385F6FF6309052C1308F00F638906157C
:10E95000AA86F9A226886358D01469C61306F00F58
:10E960006301C91437060004518F6D466359D61EE2
:10E970008507CA8689A01306F00F6304C9123706FB
:10E980000004518FED45054663CDD5001306000206
:10E99000158E3316C700B356D7003337C00033E6A1
:10E9A000E600918F37070004B3F6E700CDEA13F7CE
:10E9B0007700CA8649C713F7F70011466303C700FB
:10E9C0009107370700047D8F3DCB13851600130791
:10E9D000F00F26886301E508139767001375F50F9C
:10E9E0002583B24022445E05598D9317F801924465
:10E9F00002495D8D41018280130619001376E60FEE
:10EA000063140614631A09086383072075CB3385E2
:10EA1000E74037060004698E63030622B307F74018
:10EA2000AE84BDA009CF1386F6FF6303061A9305D3
:10EA3000F00F6388B606B2860DBFAE84BA8713079F
:10EA4000F00F8D836390E60CC1CF01481305F00FE2
:10EA50003707400079B71305F00F014759B77D1705
:10EA600033F4E7002285EF00B0586D153314A4008D
:10EA700063412507B3062541850693070002958F5C
:10EA8000B317F400B337F0003354D400C18F81467C
:10EA900013F777000DF335B7639907145DD7AE848C
:10EAA000BA878D8355B7B1C2B30626416319090EE3
:10EAB000D1D79385F6FF638D05101305F00FE38121
:10EAC000A6FEAE86ED4563D6D51293071700B28633
:10EAD000DDB5B70700FCFD17B306A940E18F4DBFB8
:10EAE00026881305F00F0147EDBD9306190013F6B4
:10EAF000E60F55EE6319090E6384071263140712BB
:10EB00008D838146A60713D7970013F5F60F268845
:10EB1000C9BD1305F00FE304A6F837050004C98F3B
:10EB20006D480545634DD80013050002158D3395DA
:10EB3000A700B3D6D700B337A00033E5F600B3077C
:10EB4000A7403289AE84B9BD3384E740B7060004DC
:10EB5000E18EBDEA01F801480145014759B51306A8
:10EB60000002158E3316C7003357D700B336C000E6
:10EB7000558FBA97370700047D8FE30A07E29306A3
:10EB800019001305F00F0147E38DA6E43706007E58
:10EB900013D717007D16858B718FD98FD5BD93053F
:10EBA000F00FE30FB6EEB7050004CD8F21BF1306BB
:10EBB000F00FE382C6EA3E979357170013F67700EB
:10EBC000E31B06DE8D833DBF3304F740AE8459BDA1
:10EBD000BA97370700047D8F8946054945FBC1BBBD
:10EBE000998F0549C1B3E38D07EAE31007E68D83EA
:10EBF000A1BD93050002958DB395B700B3D6D7009C
:10EC0000B337B000DD8EB387E6003289A5B721D7D0
:10EC1000AE84BA87F5B5B307F740AE84054959B35A
:10EC2000BA87F9BDBA97370600047D8E814659DA56
:10EC3000370700FC7D17F98F85468D83E1B5AA87DC
:10EC400019D98D83C1B57971935775014AD04ECECC
:10EC500006D69319950022D426D252CC56CA5AC849
:10EC600093F7F70F93D999001359F501F1CF1307D3
:10EC7000F00F6381E70E8E0937070004B3E9E9005E
:10EC8000938A17F80144014B93D77501139A9500A5
:10EC900093F7F70F135A9A0093D4F501C1C71307DE
:10ECA000F00F6380E70C0E0A37070004336AEA00AE
:10ECB000938717F80146BD4633479900B38AFA4057
:10ECC00063EB861A97F605009386863F0A0436940E
:10ECD0001C40B69782879307F00F8146B2502254AA
:10ECE00013957701558D7E0792540259F249624A75
:10ECF000D24A424B598D456182808D47630EFB009D
:10ED000085476315FB0E2A8781478146C1BF8D4722
:10ED10002685D289631CF60C01479307F00FB706CE
:10ED200040006DBF631D0A0813641400B5473347E4
:10ED30009900E3E287FA97F605009386663C0A0499
:10ED400036941C40B6978287639B09041144814A1C
:10ED5000054B1DBF639009042144930AF00F094B32
:10ED600025B763130A02136424007514AD463347B4
:10ED70009900E3EB86F817F605001306E63B0A0454
:10ED800032941440B2968286136434009307F00FD5
:10ED90000D4615B73144930AF00F0D4BF5B54E856E
:10EDA0002EC6EF00F0249307B5FFB399F90093073F
:10EDB000A0F8B245B38AA7400144014BF1B5528592
:10EDC000EF0010239307B5FF331AFA009307A0F85A
:10EDD000898F0146CDB5938A1AF089474A85E31E8B
:10EDE000FBF02A879307F00F8146CDBD2A879387D2
:10EDF000FA076351F00493F6790099C693F6F90087
:10EE000011466383C6009109B7060008B3F6D9001E
:10EE100081CAB70700F8FD17B3F9F90093870A080C
:10EE20009306E00FE3C9F6EA93966900A58293F78B
:10EE3000F70F6DB5054699C71D8EED458147814693
:10EE4000E3CEC5E89386EA09B396D900B336D0007D
:10EE5000B3D7C900D58F93F6770099C693F6F7001C
:10EE600011466383C6009107B7060004FD8ED5CA1C
:10EE700085478146A5B5C16613185A00FD169355FE
:10EE80000801B376D80063F8490733D6B902CE87B4
:10EE9000FD1A81493305D602B3F7B702C207B3E7BB
:10EEA000370163F8A700C2979308F6FF63F60707D8
:10EEB0004686898F33D5B702B3F7B702B306D502BA
:10EEC000C20763F2D702B3850701B3B8F500130395
:10EED000F5FFAE876398080063F6D5007915B38710
:10EEE000050111A01A854206958F498EB337F000AF
:10EEF000B369F600EDBD93D7190033D6B702FE090A
:10EF000093D909013305D60241BF26852A87EDBB77
:10EF10000147B7064000D9B3E3FCA7F87916C297BA
:10EF200049BF9A0793D6970081474DBB268555BDAB
:10EF300013567501370780007D1793D67501137638
:10EF4000F60F1308F00FB378A7009357F5016D8FF4
:10EF500013F5F60FFD8163050603630A050105EA53
:10EF600009E939C3639E0804A1C92E85828039E767
:10EF700019E2E38B08FE6399B7009DCF3E8582803E
:10EF8000639E08026305C50205459DE782806DDD2D
:10EF9000E39CB7FEE34AC5FEE341A6FEE36617FF26
:10EFA0000145E3ECE8FC8280E39008FE828019E7EB
:10EFB000E39CB7FC014582807D5582807955828033
:10EFC000E38EB7FCD1B713567501370780007D1764
:10EFD00093D675011376F60F1308F00FB378A700D8
:10EFE0009357F5016D8F13F5F60FFD816306060348
:10EFF000630A050105EE11E929CB639F0804B9C92D
:10F000002E858280094501EB19E2E38A08FE638BB5
:10F01000B7020545A1E38280639C0802E31BC5FE9D
:10F02000094575FBE397B7FE014582807DD1E392E8
:10F03000B7FEE340C5FE6347A600E36C17FD01453C
:10F04000E3FBE8FC81CB3E858280E39408FC828070
:10F05000094582807D558280E381B7FE5DBF79716D
:10F060009357750152CC56CA1317950006D622D471
:10F0700026D24AD04ECE5AC893F7F70F935A97002C
:10F08000135AF501638B07101307F00F638DE71018
:10F0900013973A00B7060004B36AD700938417F8B1
:10F0A0000149014B93D775011394950093F7F70F1E
:10F0B000258093D9F501F9C71307F00F6382E7069E
:10F0C000938717F8338597000E0437070004A94784
:10F0D000598C81469304150063CF270FB3453A013D
:10F0E00009472E88634C27057D190546636C261356
:10F0F0006382E60C8547C2856394F6068147014723
:10F10000B250225413957701598D9397F50192547B
:10F110000259F249624AD24A424B5D8D4561828072
:10F120001385F40F49CCB3453A01136939002947D7
:10F130002E88938404106347271F8D460547331795
:10F1400027011376075319CE89476305FB068D47C0
:10F150006304FB02DA8685475684C285E380F6FAAB
:10F16000268535A29377072481EB137787085DCB3B
:10F170004E88A28A368BC9BF81459307F00F3707A7
:10F180004000BDBF3DEC268513691900A94785469F
:10F1900093041500E3D427F53DA863950A041149AB
:10F1A0008144054B01B7639A0A0221499304F00F89
:10F1B000094BCDBDC2859307F00F014791B7136985
:10F1C0002900A9479384041039478946E3D827F1D9
:10F1D000AD47E30FF7F8528885BF31499304F00F2C
:10F1E0000D4BC9B556852EC621259307B5FFB39A99
:10F1F000FA009307A0F8B245B384A7400149014B38
:10F2000055B52285F523B387A4401307B5FF1385B1
:10F21000A7F8A9473314E400814693041500E3DFFF
:10F2200027EB55BFC1689387F8FF13D60A0113581F
:10F230000401B3FAFA00E18FB3865703B307F6026D
:10F2400013D70601B30A5803BE9A5697330606032E
:10F250006373F700469641687D18B3770701B3F6EC
:10F260000601C207B6979396670013540701E98316
:10F270003337D0003294D98F1A045D8CB707000859
:10F28000E18F91C79357140005885D8C26859307FD
:10F29000F507635FF0021377740019C71377F40062
:10F2A00091466303D700110437070008618F19C71F
:10F2B000B70700F8FD177D8C930705081307E00FCB
:10F2C0006349F70413176400258393F7F70F0DBD07
:10F2D000854699C79D8E6D4681470147E342D6E238
:10F2E0001307E5093317E4003337E000B357D400C0
:10F2F000D98F13F7770019C713F7F7009146630307
:10F30000D7009107370700047D8F01CB8547014760
:10F31000C5BB9307F00F0147E5B39A0713D79700D2
:10F320008147F9BBBD46814537074000E30AD9DC78
:10F330002D478D4671BDB70780004111FD1713D6CB
:10F34000750133F7A70093567501ED8F26C24AC0A9
:10F350009354F50106C622C41376F60F1305F00F79
:10F3600013F9F60F26880E07FD8193963700630385
:10F37000A60493C51500B307C940638FB400635A50
:10F38000F03035E2638F06141386F7FF6302062A16
:10F39000638FA702B287A9A86359F0307DCA6308BA
:10F3A000A90237060004D18E6D466352F614050794
:10F3B000CA878DA8930719F0D5E693C51500638316
:10F3C000B40E638D071863090910AE8436870D8368
:10F3D00013F814001305F00F3DCB01481305F00F8F
:10F3E00037074000ADA0E304A9FE37060004D18E24
:10F3F000ED45054663CDF500130600021D8E3396DC
:10F40000C600B3D6F600B337C00033E6F600118F5E
:10F41000B7070004B376F70063940610937677007D
:10F42000CA87E1C29376F70011466383C6001107CD
:10F43000B7060004F98ED5C685079306F00F13F8BA
:10F440001400638BD70C1A0713F5F70F2583B2400E
:10F4500022445E05598D9317F801924402495D8D4F
:10F4600041018280E39FB4F4B9C36311091C93077F
:10F47000F00F3DC79385F7FF638905121305F00F61
:10F480006386A71AED4763DBB71A13871600B287A6
:10F4900051BFA1CA1386F7FF63090610E389A7F2DB
:10F4A000B28719B789C7E30409FC01470DB7930771
:10F4B000190013F6E70F631506146318091663069F
:10F4C000071A6396061A0D8381472607258313F5CD
:10F4D000F70F13F81400A5BF9307F00F65EBAE8488
:10F4E00036879306F00F0D83E384D7EEF9BF13063A
:10F4F00000021D8E3396C6003336C000B3D6F60028
:10F50000D18E3697B7070004F98F89DB930719006E
:10F510009306F00F6393D70A1305F00F014705BF59
:10F52000FD173374F7002285E1249307B5FF3314E8
:10F53000F40063CA2705B387274185071307000234
:10F540001D8F3317E4003337E0003354F400418F4C
:10F55000814793767700E39706ECD9BD93071900AE
:10F5600093F7E70F85EB631A090A65CFA9DEB307A6
:10F57000D740370600047D8E630806103387E640C7
:10F580008147AE84F9B7370700FC7D17B307F94010
:10F59000618FC1B73304D740B7070004E18FD1E3CF
:10F5A00059F00148014501475DB53697B70600049B
:10F5B000F98E89470549E38306E63706007E9356B0
:10F5C00017007D16058BF18E558F61B71385F7FFF8
:10F5D00041C51308F00FAE84638A0705ED458547E2
:10F5E00063CCA50093070002898FB317F70033554A
:10F5F000A700B337F000C98F3387F640328909BDC1
:10F600001306F00FE38AC7F0BA9613D716001376E5
:10F610007700E31906E00D834DBD11EFE38F06DAA5
:10F620006DB33384E640AE84FDBD11E7368745B344
:10F63000158F0549F1BBE38C06D845B3930700024B
:10F640008D8FB317F700B355B700B337F000DD8DDA
:10F650003387D50032897DB53387E640AE840549CE
:10F6600045BBA1D2AE843687B9BD3687A9BD3697D2
:10F6700037060004798E814759DEB70700FCFD1775
:10F680007D8F0D83854791B589DF3E870D83814747
:10F690002DBDE38507EC33052641AA87E30009E485
:10F6A000B70700045D8FAE8415BFE38207E0B305A2
:10F6B000264163140900AE876DBBB70700045D8F58
:10F6C000D1B337068000135775019307F6FF137700
:10F6D000F70F9305E007B3F6A7009357F50163DC36
:10F6E000E5009305D00963DAE5003705008013458E
:10F6F000F5FF3E9582800145828093055009D18EA9
:10F7000063CDE500130660093307E640B3D6E60093
:10F710003305D040F5F3368582801307A7F6B396FC
:10F72000E600FDB7411106C622C426C215CD135707
:10F73000F5413344A700198CAA87228593D4F70199
:10F7400045281307E009B307A74013076009634A78
:10F75000F70221476308E50861153317A40026075F
:10F76000258313F5F70F21A0814401450147B240DD
:10F7700022445E059397F401598D92445D8D4101B9
:10F780008280130790096343F70415479306B5FF7A
:10F790006304E5003314D400B70600FCFD161376AD
:10F7A00074003377D40011CE3D881146630BC4003A
:10F7B000110737060004798E09C69307F009758F83
:10F7C000898F1A07258313F5F70F55B71307B5016E
:10F7D00095463317E400898E3354D4003337E00064
:10F7E000598C5DBF2604135794001305600941B777
:10F7F000C1676376F5029337051093C717008E072C
:10F80000130700021D8F3355F50097F70500938706
:10F81000A795AA9703C507003305A7408280B707BD
:10F8200000016370F502C1473355F50097F70500F5
:10F8300093878793AA9703C5070041473305A740DD
:10F840008280E1473355F50097F705009387C7910C
:10F85000AA9703C5070021473305A740828000000F
:10F8600002000000080001200000807F8071B1428A
:10F87000B5F1CFC2D1F71737D1F717B78071313F44
:10F88000807131BF0000003F000000BF3BAAB83FBD
:10F890008071313FD1F717374CBB31330EEADD357C
:10F8A00055B38A38610B363BABAA2A3ECAF249717E
:10F8B0000000803F000000400000800D00000010AC
:10F8C00000000070000080BF0A2A2A2A20434E4E02
:10F8D00020496E666572656E636520546573742099
:10F8E000765F7265736E65745F7269736376202AE2
:10F8F0002A2A0000FFFF00FFFFFFFF0000FF0000BB
:10F90000000000FF0000000000FF000000FFFF00FB
:10F91000FF0000FF00FFFF00FFFF00FF00FF0000EF
:10F920000000FF00FF00FFFF000000FFFF000000DD
:10F93000FFFF00FF00FFFF000000FFFFFF0000FFD0
:10F9400000FF00FF0000FFFF000000FF00FF00FFBE
:10F950000000FF00FFFF0000000000FF0000FF00AC
:10F96000FF0000FFFF0000FF0000FFFF0000FFFF9F
:10F97000FF00FFFF0000FFFF00FF00FFFF0000FF90
:10F9800000FFFF0000FF00FF0000FFFF0000FFFF7F
:10F99000000000FFFF0000000000FFFF000000006B
:10F9A000FF0000FFFF00000000FFFF00FF0000005D
:10F9B0000000FF0000FF00FFFFFF0000000000FF4D
:10F9C0000000FFFF00FFFFFF0000FF00FF0000003E
:10F9D000FFFF00000000FFFF0000FFFF00FF00002E
:10F9E000FFFFFFFFFFFFFFFFFFFF0000000000FF22
:10F9F000FF00FF000000FF00FFFF00FF000000000D
:10FA0000FFFFFFFFFFFF0000000000FF00000000FD
:10FA1000FF00FFFFFF00FFFFFFFF00FF000000FFF0
:10FA200000FFFFFFFF00FFFF0000FF0000FF00FFDF
:10FA3000FFFFFF00FF00FF00FFFF000000FF0000CE
:10FA400000FF00FFFF00FFFF000000FF000000FFBD
:10FA500000FF00FF00FF00FF00FF00FFFF00FF00AE
:10FA60000000FFFFFF00FF00FF00FFFF000000FF9E
:10FA700000FFFFFF00FFFFFFFFFF0000000000008E
:10FA80000000FF00000000000000FF00FF00000079
:10FA9000FFFF000000FFFFFF00FF00FF00FFFFFF70
:10FAA000FF00000000FFFF00FF0000FFFF0000FF5D
:10FAB000000000FF00FFFF0000000000FFFFFF004C
:10FAC000FF000000FFFF00FF0000FFFF0000FFFF3E
:10FAD00000FF00FFFFFFFFFF0000FF0000FF00002E
:10FAE000FF00FFFF00FFFF0000FF0000000000001C
:10FAF000FFFF0000FFFF0000FFFFFF000000FF000E
:10FB00000000FFFFFF00FFFF00FF00FF00FFFFFFFF
:10FB1000000000FF00FF00FFFFFFFF00FF000000EC
:10FB200000FFFFFF00000000FFFF0000FF00FF00DC
:10FB30000000FF00FF00FF00FFFFFF00FFFF0000CD
:10FB4000FFFFFF000000FFFF00FF0000FF0000FFBD
:10FB5000FFFF0000FFFF00FF00FFFFFFFFFF0000AF
:10FB6000FFFFFF00FFFFFF0000FFFF000000FFFF9F
:10FB7000FFFF00FFFF0000FFFF00FF00000000FF8D
:10FB800000FF00FF00FFFFFF00FF0000FF0000FF7D
:10FB9000FF0000FFFF00FF0000FF0000FF0000FF6C
:10FBA000FFFF00FFFFFF00000000FFFF00FF00FF5E
:10FBB000FFFFFF00FF00FF0000FF000000FF00FF4D
:10FBC000FFFF000000FF00FF000000FFFFFF00003C
:10FBD000FF0000FF00FF00FFFF0000FFFF0000FF2D
