:020000041000EA
:10A100006F00D05C6F0010676F0010676F00106702
:10A110006F0010676F0010676F0010676F001067A7
:10A120006F0010676F0010676F0010676F00106797
:10A130006F0010676F0010676F0010676F00106787
:10A140006F0010676F0010676F0010676F00106777
:10A150006F0010676F0010676F0010676F00106767
:10A160006F0010676F00101C6F0010676F00301BCE
:10A170006F00B04F6F0010676F0010676F001067BF
:10A180006F0010676F0010676F0010676F00106737
:10A190006F0010676F0010676F0010676F00106727
:10A1A0006F0010676F0010676F0010676F00106717
:10A1B0006F0010676F0010676F0010676F00106707
:10A1C0006F0010676F0010676F0010676F001067F7
:10A1D0006F0010676F0010676F0010676F001067E7
:10A1E0006F0010676F00C0176F0010676F00D041DD
:10A1F0006F001067B705031041113146938545681C
:10A200003705405006C6FD2AB70503103146938531
:10A21000456537854050FD22B705031031469385CB
:10A22000456237054150F92AB70503103146938539
:10A23000455F37854150F922B705031031469385B4
:10A24000455C370580507D2AB7050310314693855C
:10A250004559378580507D22B705031031469385D7
:10A26000455637058150792AB70503103146938545
:10A270004553378581507922B705031031469385C0
:10A2800045503705C050BD2AB705031031469385A8
:10A29000454D3785C050BD22B70503103146938523
:10A2A000454A3705C150B92AB70503103146938591
:10A2B00045473785C150B922B7050310314693850C
:10A2C0004544370500513D2AB705031031469385B3
:10A2D0004541378500513D22B7050310314693852E
:10A2E000453E37050151392AB240B70503103146C2
:10A2F0009385453B37850151410129A2411106C68D
:10A3000022C426C2EF00B00237B502401305058013
:10A31000EF10603F37E5001013054592EF20C0288D
:10A32000C1650145352FB704084093050002138528
:10A3300004407127F922E5201D2A2124653D9384DC
:10A340000440C92D83A7418691E77300501083A76D
:10A350004186E5DF930500022685EF00A078D5B79A
:10A36000397136D0B70610503ACE98423ECCFD77C0
:10A37000F91706DE16DC1ADA1ED82AD62ED432D207
:10A3800042CA46C872C676C47AC27EC07D8F98C261
:10A39000B7055050984137069050B706D0507D8F82
:10A3A00098C1184205457D8F18C29842F98F9CC20A
:10A3B000EF00D00C37050140EF10006023A2A1860A
:10A3C000370707E5504FB706000293070702558E7F
:10A3D00050CF585FF250E252558FD8CFD84F5253DA
:10A3E000C253558FD8CF3255A25512568256724756
:10A3F000E2475248C248324EA24E124F824F21616C
:10A40000730020309307F6FF635AC000FD56984151
:10A41000FD17910518C11105E39BD7FE828037E730
:10A420000010B7071850130707ABB70618500543BD
:10A430007D5593E6160023806600832847001308A5
:10A4400087001387F8FF63820802C2868C427D175B
:10A4500091068CC39107E31BA7FE8A0833071801F6
:10A460001443B687F9F6054582804287D5BFB7E722
:10A470000010B7E5001037871050938707A3938526
:10A4800005AB03C6070085071107232EC7FEE39A15
:10A49000B7FEB7E70010B7E5001037875050938735
:10A4A000079D938505A303C6070085071107232E83
:10A4B000C7FEE39AB7FEB7E70010B7E5001037878D
:10A4C0009050938707999385059D03C607008507DC
:10A4D0001107232EC7FEE39AB7FEB7E70010B7E5D2
:10A4E00000103787D050938707959385059903C649
:10A4F000070085071107232EC7FEE39AB7FE05451F
:10A500008280B717005023A00700B7071000A107EB
:10A51000370610501CC29306E04054C2194718C6B3
:10A52000370650501CC254C218C6370690501CC281
:10A5300054C218C63706D0501CC254C218C60545AE
:10A54000828001113707105022CE26CC4ACA4EC84D
:10A5500052C656C45AC2856E8948232817011388EB
:10A560000E8089652328073105452328B740BD693A
:10A570002328A748938909B2B70F02002328375927
:10A58000B7141050938A3F8123A854A1138A8EFFD9
:10A590002328476113890E1023282711377B0200D7
:10A5A000232867797D53B70750502328677023A865
:10A5B000170123A8073123A8B740138E0EB223A892
:10A5C000A74823A8C75937145050232854A123A8BB
:10A5D000476123A82711376F020023A8E7793706C0
:10A5E000905023A8677023281601232806312328BA
:10A5F000B6402328A648B71390502328C65923A84D
:10A6000053A123284661232826112328E679B7067B
:10A61000D0502328667023A8160123A8063123A84A
:10A62000B64023A8A64823A8C659B712D05023A8DD
:10A6300052A123A8466123A8261123A8E67923A8BE
:10A640006670232A1701232AB740232A0751232A99
:10A650003759938A1F803719A00523AA54A11309DB
:10A660008999232A2761138A0E30232A4711232A26
:10A67000E779232A677023AA170123AAB74023AAE0
:10A68000075123AAC759232A54A123AA276123AA21
:10A69000471123AAE77923AA6770232A1601232AE0
:10A6A000B640232A0651232AC65923AA53A1232A96
:10A6B0002661232A4611232A6679232A667023AA53
:10A6C000160123AAB64023AA065123AAC65923AAD3
:10A6D00052A123AA266123AA461123AAE67923AA16
:10A6E0006670232C0731232CA738232CB740416FE9
:10A6F000232C3759130F0F803729401D23ACE4A1B9
:10A70000130989E393080010232C2761232C1711C8
:10A71000232C677023AC073123ACA73823ACB74098
:10A7200023ACC759232CE4A123AC276123AC171118
:10A7300023AC6770232C0631232CA638232CB6407B
:10A74000232CC65923ACE3A1232C2661232C1611FC
:10A75000232C667023AC063123ACA63823ACB6405C
:10A7600023ACC65923ACE2A123AC266123AC16115D
:10A7700023ACD67923AC6670232EA738232EB7409E
:10A780008D69232E0751938909B2232E3759138AD5
:10A7900005803729601E23AE44A1130989E7232EC3
:10A7A0002761232E1711232EB778232E677023AE2F
:10A7B000A73823AEB74023AE075123AEC759232E87
:10A7C00044A123AE276123AE171123AEB77823AE81
:10A7D0006770232EA638232EB640232E0651232E33
:10A7E000C65923AE43A1232E2661232E1611232EF4
:10A7F000B67823AEA63823AEB64023AE065123AEBC
:10A80000C65923AE42A123AE266123AE161123AE54
:10A81000B678232007332320A73A25692320B7429F
:10A82000130909B22320275B3729801F23A0E4A343
:10A830001309890723202763370A0F0023201713E2
:10A840003D0A2320477323A0073323A0A73A23A060
:10A85000B74223A0C75B2320E4A323A0276323A040
:10A860001713232006332320A63A2320B6422320A1
:10A87000C65B23A0E3A3232026632320161323A073
:10A88000063323A0A63A23A0B64223A0C65B23A08A
:10A89000E2A323A0266323A01613138F0E0223A086
:10A8A000E67B2322D7332322A73A2322B74223224F
:10A8B000A74A2322075361692322375B13090981C1
:10A8C000372FA02023A224A3130F8F392322E7635D
:10A8D000232217132322677223A2D73323A2A73A76
:10A8E00023A2B74223A2A74A23A2075323A2C75BEE
:10A8F000232224A323A2E76323A2171323A2D77B37
:10A9000023A267722322D6332322A63A2322B642F9
:10A910002322A64A232206532322C65B23A223A373
:10A920002322E6632322161323A2D63323A2A63AB8
:10A9300023A2B64223A2A64A23A2065323A2C65BA1
:10A9400023A222A323A2E66323A216132324A73A59
:10A950002324B7422324A74A1D682324D75313086E
:10A9600008922324075B375E002413881F8B23A4DF
:10A9700004A3130E8E3F2324C76323241713372FFA
:10A9800002002324E77B2324677223A4A73A23A48D
:10A99000B74223A4A74A23A4D75313870E9223A414
:10A9A000E75A232404A323A4C76323A4171323A4CF
:10A9B000E77B23A467722324A63A2324B6422324E8
:10A9C000A64A2324D6532324E65A23A403A32324EC
:10A9D000C663232416132324E67B2324667223A450
:10A9E000A63A23A4B64223A4A64A23A4D65323A45A
:10A9F000E65A23A402A3724423A4C66323A4161315
:10AA0000E2445249C249324A23A4E67BA24A124B8D
:10AA1000056182804111B717100006C622C423A227
:10AA20000186370410501387878018C0938797805A
:10AA3000370750501CC3370790501CC33707D050FE
:10AA40001CC337050140EF00F0760545DD22B7074E
:10AA50001000A507B2401CC0224405454101828078
:10AA6000411106C6B76600403D4723A6E68023A2F3
:10AA7000E68023A0E68023A4068023A60680B706EE
:10AA800000409C4E3747FCFF7D17F98FC98FCD8F53
:10AA90009CCE6545252D392D370707E5104BB706A8
:10AAA000000293070702558E10CB185BB240054594
:10AAB000558F98CB984B558F98CB410182807971F7
:10AAC000AA873EC42800854706D62EC63EC802CABD
:10AAD000EF0050102245B245EF005005B250054539
:10AAE000456182807971AA873EC42800854706D6D1
:10AAF0002EC63EC802CAEF00F00D2245B245EF0057
:10AB00009005B250054545618280AA86370503103D
:10AB10004111130545D806C6EF10501401A0094590
:10AB20006F00500601456F00F00501458280B79720
:10AB300000403D4798C7F8D7F8DF014582807D5532
:10AB400082807D5582807D5582807D558280011175
:10AB500006CE22CC26CA4AC84EC629ED635AC00486
:10AB6000AE89B384C5002E84354921A0638897023D
:10AB70003E8437250440EF10804C9375F50F230079
:10AB8000B40037250440EF10A04B0347040093079F
:10AB90001400E31D27FDA9472300F40033053441C9
:10ABA0000505F2406244D2444249B24905618280BF
:10ABB0000145C5BFEF10C063A5471CC17D55D5B782
:10ABC000011106CE22CC26CA4AC84EC67D1585473D
:10ABD00063EBA7042E84B2893389C500A944634A74
:10ABE000C00015A8050437250440EF106045630434
:10ABF000890283450400E39795FEB5453725044057
:10AC0000EF10004483450400372504400504EF108D
:10AC10002043E31089FE4E85F2406244D24442490B
:10AC2000B24905618280EF10A05CA5471CC17D552B
:10AC3000E5B7B7E7001083A7C791411122C406C644
:10AC40002A846371F502131714002297B7070310C3
:10AC50000E07938707DA2244BA97B240CC43884361
:10AC60004101D5ADB7050310370503101306F002F7
:10AC7000938505DD1305C5E0493DF1B7B7E7001041
:10AC800083A7C791411122C406C62A846371F502C5
:10AC9000131714002297B70703100E07938707DADC
:10ACA0002244BA97B240CC438843410141A5B7053D
:10ACB0000310370503101306A003938505DD130564
:10ACC000C5E0A135F1B783A7818637E700408DCB7A
:10ACD0001C4B858B8DC31C4BA146A18B91C71C5B64
:10ACE00014CB1C4BA18BE5FF03A7018723ACE186A6
:10ACF000054723AAE186B7E70040984B98CB8280AE
:10AD00001C4B918B6387070E83A8C18683A6C187DE
:10AD10001383F8FF1333130003AE01870D031148AB
:10AD200037EF0040854E03270F0303A5818783A5D6
:10AD3000818703A6818736952300E500B6951355D4
:10AD40008700A380A5003696935507012301B6001E
:10AD50007D186398D80103A6818761833696A30185
:10AD6000E60003A781871A976377C70103A7818746
:10AD70001A9723ACE186E31808FAB7E700409C4B2A
:10AD8000858BB5DB1383F8FF133313000D0337E80E
:10AD90000040214F854E83270801A18BB1DB83271B
:10ADA00008032328E80103A5818783A5818703A6DB
:10ADB000818736952300F500B69513D58700A380CB
:10ADC000A500369693D507012301B6006398D801F4
:10ADD00003A68187E1833696A301F60083A78187C6
:10ADE0009A97E3FAC7FB83A781879A9723ACF186EA
:10ADF0005DB71C4B858BE38007F083A6C18783A8D2
:10AE0000C18603AE0187BDBF397136D032D23ACE8A
:10AE10003ECC06DE16DC1ADA1ED82AD62ED442CA5A
:10AE200046C872C676C47AC27EC0713DB70707E5D0
:10AE3000D84F3706000893860702518FD8CFDC5FC2
:10AE4000F250E252D18FDCCE5253C2533255A2554A
:10AE5000125682567247E2475248C248324EA24EBC
:10AE6000124F824F216173002030397136D032D2B7
:10AE70003ACE3ECC06DE16DC1ADA1ED82AD62ED4FE
:10AE800042CA46C872C676C47AC27EC0A52EB7072B
:10AE900007E5D8473706001093860702518FD8C7B9
:10AEA000DC57F250E252D18FDCC65253C2533255B6
:10AEB000A255125682567247E2475248C248324E55
:10AEC000A24E124F824F21617300203097F2FFFF94
:10AED0009382522373905230171101101301811283
:10AEE0009761001093814192D12A3DED9382418672
:10AEF0001383018A63D7620023A002009102E3CD8D
:10AF000062FE975202009382227B175300101303B4
:10AF1000A30F93834180635A730003AE0200232082
:10AF2000C30191021103E34A73FE97520200938218
:10AF3000E278175300101303630D93834186635A1D
:10AF4000730003AE02002320C30191021103E34A00
:10AF500073FE9382018A138301E163D7620023A009
:10AF600002009102E3CD62FEA12AEF100029EFF06A
:10AF7000EFB80120012001000120010001200100A3
:10AF80000120010001200100012001000120010039
:10AF90000120010001200100012001000120010029
:10AFA0000120010001200100012001000120010019
:10AFB0000120010001200100012001000120010009
:10AFC00001200100012001000120010001200100F9
:10AFD00001200100012001000120010001200100E9
:10AFE00001200100012001000120010001200100D9
:10AFF00001200100012001000120010001200100C9
:10B0000001200100012001000120010001200100B8
:10B0100001200100012001000120010001200100A8
:10B020000120010001200100012001000120010098
:10B030000120010001200100012001000120010088
:10B040000120010001200100012001000120010078
:10B050000120010001200100012001000120010068
:10B060000120828083A7018881CF37C701203E95C8
:10B07000130707C06365A70223A0A1883E858280CD
:10B08000B70701201387876123A0E1889387876131
:10B0900037C701203E95130707C0E37FA7FC411186
:10B0A00006C6EF10E014B240B1471CC1FD573E8503
:10B0B0004101828073500430828082800145828009
:10B0C000411106C6DD3FB240410185B49307F0034C
:10B0D00063FFA700370708405447130505FC854761
:10B0E000B397A70093C7F7FFF58F5CC78280FD4732
:10B0F0003707004063FCA700344701158547B39725
:10B10000A70093C7F7FFF58F3CC78280545385474C
:10B11000B397A70093C7F7FFF58F5CD382803707FB
:10B1200000401C47E98FF5DF014582809D4763EAB7
:10B13000A706B7070310938747F20A053E951C41FF
:10B140008287370700401C47B7060800370500080C
:10B15000D58F1CC7E9B7370700401C47B70610005A
:10B1600037050010D58F1CC7F5B7370700401C47BF
:10B17000B706040037050004D58F1CC7E1BF3705AB
:10B1800003101305C5F0B9A437050020E1B7370750
:10B1900000401C47B706020037050002D58F1CC7C8
:10B1A00055BF755582809307F00363F0A70213051E
:10B1B00005FC8547B397A700370708401CC7B706AB
:10B1C000084098467D8F75FF8280FD4763FFA7008A
:10B1D00001158547B397A700370700407CC3B70622
:10B1E0000040F8427D8F75FF82808547B397A700A6
:10B1F000370700405CC3B7060040D8427D8F75FF1B
:10B2000082803DA037850240A1A8BD4763E0A70228
:10B2100051473305E502B70701209387470AAA97EC
:10B220009843755509C7DC47C843828075558280AD
:10B23000BD4763E5A70251473305E502B707012083
:10B240009387470AAA979843755511CBDC4793F526
:10B25000F5050145D843D98DCCC3828075558280D0
:10B26000011122CC4AC806CE26CA4EC652C456C2C6
:10B27000B78702402A890144630FF500B705031020
:10B28000370503101306A01A938545F4130585F9B5
:10B29000EFF0BF874154D144B3049402B7070120B3
:10B2A0009387470A930904013D4A854ABE94637F08
:10B2B0008A000504D104E39C89FEF2406244D24432
:10B2C0004249B249224A924A056182809C40F5D3A4
:10B2D00003274900B3978A00F98FE1DF9C4881C7B3
:10B2E00081452285829722850D37AA852285113FC7
:10B2F00083274900DDFFD1B7411122C406C69377E9
:10B3000015002A8499C30145D1339377240099C34A
:10B3100005456D3B9377440081C7130500047D33D9
:10B3200022852244B24041016F007058370708401F
:10B33000130707606310E502B7760040938606C0E6
:10B3400090521397350093F71500418BD18FD98F09
:10B350009CD2828075A4B707084093870760631268
:10B36000F502B7760040938606C093973500905259
:10B37000C18B13F71500D98F93C7F7FFF18F9CD2BC
:10B38000828049A46F003055B70708409387076053
:10B390006318F500B777004093870780CCCF828091
:10B3A000A5A4B7070840938707606303F500B9AC0D
:10B3B000B777004093870780C84F828037070840DF
:10B3C000130707606316E500014581E53D5582805E
:10B3D00081A48280011122CC004126CA06CE4AC82F
:10B3E0004EC6B7870040AA8401456304F402B797AC
:10B3F00000400545630FF400B70708401387074076
:10B4000009456308E400938707600D456303F40072
:10B410007D5585493395A900C535D0408C48228596
:10B42000713F2A8905E19840B70708409387076074
:10B430008C446318F712638A350789476387F508D8
:10B4400091C93D59F2406244D244B2494A854249C9
:10B4500005618280DC40B7760040938606C0139673
:10B460001700139747008C52098A13770702518FF0
:10B470001347F7FF6D8F98D285839846858BD18FC0
:10B4800093C7F7FFF98F9CC6DC441147E36BF7FACB
:10B4900037070310130787FA8A07BA979443377759
:10B4A0000040DC40130707C08286DC40B7760040CE
:10B4B000938606C08C521396170013974700098A8B
:10B4C00013770702518F4D8F7DB7DC40B776004070
:10B4D000938606C08C521396170013974700098A6B
:10B4E00013770702518F4D8F98D298468583858BAD
:10B4F000D18FD98F49BF9396270010539607918A11
:10B5000093F70704D58FD18F1CD39C4485DF228508
:10B510006244D040CC48F240D2444249B24905612D
:10B52000BDAA0C539396370013F61700C18A4D8EAF
:10B53000D18E14D39396270096071053918A93F7D0
:10B540000704D58F93C7F7FFF18F7DBF9396370020
:10B550001053C18A93F51700CD8E93C6F6FFF18E76
:10B56000C9BFD0402285D12841E9DC441147636737
:10B57000F708370703101307C7FB8A07BA979843E2
:10B58000DC400287385093C7F7FF7D8F38D0785062
:10B59000F98F7CD09DBF38505D8F38D0785093C7DD
:10B5A000F7FF7D8F78D013070408145FF58F1CDF39
:10B5B000A9BF38505D8F38D0745013C7F7FF758F0F
:10B5C00078D013070408145FD58FD5B7345013C74C
:10B5D000F7FFF98E34D07450D58F7CD093070408D0
:10B5E000945F758F98DF15B7345013C7F7FF758FC9
:10B5F00038D078505D8FE9B72A89A9B5755999B5C2
:10B600004CCD82800CD182802CC5828028418280E2
:10B6100091C58547638DF500755582808327050C9C
:10B620001346F6FF7D8E2320C50C014582808327BB
:10B63000050CD18F2320F50CCDBF1C59D18F1CD9FF
:10B6400050C1954763EBB704B7070310938707FD15
:10B650008A05BE959C41828750C950C130D970DDA2
:10B660001305050810C50145828010C9FDB7930771
:10B67000050890C770DD30D9F5B79307050890C766
:10B6800070DD70D5C5B79307050890C730DDE5B705
:10B690009307050890C730DDEDB77555828089475F
:10B6A0006384F50463EFB7009347F6FF8DE9130554
:10B6B000050818597D8F18D95859F98F5CD901455B
:10B6C00082808D47638CF502130505081C591346CB
:10B6D000F6FFF18F1CD95C597D8E50D9CDB713057B
:10B6E00005081859518FC1BF13050508185993470C
:10B6F000F6FFF98F1CD95C59D18FC9B7130505081E
:10B700001C59D18FC5BF09A0832705104167F99B3C
:10B710002320F51085472320F57083270510F98F26
:10B72000EDDF83270510416793E717002320F5100D
:10B7300083270510F98FEDDF8280011126CA4AC8E0
:10B7400052C406CE22CC4EC6B7070140AA842E8929
:10B75000328A6309F508B7170140631DF5000544F7
:10B7600085ED7D55F2406244D2444249B249224AB5
:10B7700005618280B72701406303F506B7370140B2
:10B78000630CF504B7170840138707C06303E5048B
:10B790006312F5021544F1D58327C9001147F91743
:10B7A000636FF710370703108A0713078704BA97E8
:10B7B0009C438287DDD5B7050310370503101306B8
:10B7C0005002938585FE1305C503EFF00FB47D5439
:10B7D000E1B71144F1F171B70D44DDFD59B70944EA
:10B7E000C5FD41B70144CDF9ADBF8D4763C9871A87
:10B7F0000145EFF0BF93B7859303938505702685C8
:10B800007D2A8549954763E7870EB707031093871D
:10B81000C7050A043E941C4082871545EFF01F912E
:10B8200093294400B785700026858609492AD9BF27
:10B8300091476317F4021945EFF05F8FA1652685E4
:10B84000BD2A854937050310130545E36136130505
:10B850002004EFF05F9513052004EFF03F8759A80F
:10B860008D4763CE87121945EFF05F8CA165268561
:10B87000B9228D4941BF8D4763D387120D45EFF043
:10B88000FF8A9D65938505532685152A89499DBFA5
:10B8900095476316F4101545EFF05F89B7150E0054
:10B8A0002685312A8549370503101305C5E11D3664
:10B8B00013053004EFF03F8F1305300479BFB7074D
:10B8C000012083A50700268581498581CD281DBFDC
:10B8D0001545EFF05F8D3D45EFF04FFF630C0A001B
:10B8E0000327890089476302F70237050310130510
:10B8F00045EFCD346244F240224A4E86CA85B249B1
:10B9000042492685D244056155A437050310130525
:10B9100045E9C5B71945EFF01F894145EFF00FFB29
:10B92000E30A0AFC0327890089476307F700370504
:10B9300003101305C5ED75BF370503101305C5E7E3
:10B940004DBF1D45EFF03F864545EFF02FF8E3036F
:10B950000AFA0327890089476307F70037050310B0
:10B96000130545EC79B737050310130545E651B7C4
:10B970002145EFF05F834945EFF04FF5E30C0AF600
:10B980000327890089476307F7003705031013056C
:10B99000C5EA85B7370503101305C5E499BF3D55C2
:10B9A000D1B335A641AEC5AE81A95DA96F00A07B1C
:10B9B0006F00807F6F00C07C6F00E07CADA3411101
:10B9C00022C406C6370701402E8481476308E50478
:10B9D0003717014085476303E5043727014089474E
:10B9E000630EE502373701408D476309E5023717DB
:10B9F0000840930607C091476302D5029547630F3D
:10BA0000E500B70503103705031013066009938599
:10BA100045071305C503EFF04F8FFD571387019EB0
:10BA20008E07BA97B240C0C3224405472380E7007F
:10BA3000410182803707014081476306E5063717D9
:10BA4000014085476301E506372701408947630CBC
:10BA5000E504373701408D476307E5043717084091
:10BA6000930607C091476300D5049547630DE5022F
:10BA7000B70503103705031041111305C50313065D
:10BA8000000A9385450706C6EFF02F88FD571387F8
:10BA9000019E8E07BA9703C70700655511C3C843B7
:10BAA000B240410182801387019E8E07BA9703C777
:10BAB0000700655519C3C84382808280411122C4A2
:10BAC00026C206C6B70701402A84AE846302F50485
:10BAD000B7170140630EF502B7270140630AF5026C
:10BAE000B73701406306F502B7170840138707C050
:10BAF0006300E502630EF500B70503103705031078
:10BB00001306E00A938545071305C503EFE0FFFF21
:10BB1000C9C89044144811679307E6FF93B717000C
:10BB200092073317F700558FA14618C8B396F60051
:10BB3000184C758F75DFD84014483317F700558FB0
:10BB400018C8D848144822073317F700558F18C86B
:10BB500005473317F7009306001018C0B396F60098
:10BB60005844758F75DF98483317F70058C0144C48
:10BB70000967B317F70093C7F7FFF58F1CCC894708
:10BB80006311F6021C4C37070001D98F1CCC1C48EE
:10BB900037070080D98F1CC8370704001C4CF98F69
:10BBA000F5DFB2402244924441018280411122C417
:10BBB00026C24AC006C6B70701402A842E89B2842D
:10BBC0006302F504B7170140630EF502B727014081
:10BBD000630AF502B73701406306F502B71708405C
:10BBE000138707C06300E502630EF500B705031075
:10BBF0003705031013060003938545071305C50396
:10BC0000EFE0BFF07D556309090A8327890013F728
:10BC1000370051C3184C0607058318CC5844C16639
:10BC20008506558F58C40547636CF706184C93F684
:10BC30003400719B558F18CC14480327090093F6E4
:10BC4000F6F01377070F558F18C88DEB184CB70611
:10BC50000300C204F58CB706FDFFFD16758FD98C65
:10BC60000327090004CC14483706F0003207718F0F
:10BC7000370610FF7D16F18E558F18C8032749002F
:10BC8000A14663EAE602B70603100A079386860C0C
:10BC9000369718430287184CB7060080558FB5BFFA
:10BCA0000947E385E7FAD9BF09473D556386E700B1
:10BCB000CA85228521350145B24022449244024979
:10BCC000410182800947E395E7FE3D55F5B74111F3
:10BCD00022C406C6B70701402A846302F504B717D9
:10BCE0000140630EF502B7270140630AF502B7373A
:10BCF00001406306F502B7170840138707C06300C9
:10BD0000E502630EF500B7050310370503101306AF
:10BD1000500E938545071305C503EFE01FDF1C4850
:10BD20002167D98F1CC81C4C918BF5DFB24022448F
:10BD300041018280411122C406C6B70701402A840E
:10BD40006302F504B7170140630EF502B7270140FF
:10BD5000630AF502B73701406306F502B7170840DA
:10BD6000138707C06300E502630EF500B7050310F3
:10BD7000370503101306F00E938545071305C50319
:10BD8000EFE0BFD81C4861777D17F98FB2401CC81F
:10BD9000224441018280411122C406C6B7070140F6
:10BDA0002A846302F504B7170140630EF502B72732
:10BDB0000140630AF502B73701406306F502B71781
:10BDC0000840138707C06300E502630EF500B7055E
:10BDD0000310370503101306C01493854507130598
:10BDE000C503EFE09FD25C4441670507D98FB2409D
:10BDF0005CC4224441018280411122C426C206C68D
:10BE0000B70701402A84AE846302F504B7170140E6
:10BE1000630EF502B7270140630AF502B737014008
:10BE20006306F502B7170840138707C06300E502F1
:10BE3000630EF500B70503103705031013065019FC
:10BE4000938545071305C503EFE03FCC04C05C4470
:10BE500093F70710EDDFB240224492444101828003
:10BE6000797122D426D206D6B70701402A84AE843F
:10BE70006302F504B7170140630EF502B7270140CE
:10BE8000630AF502B73701406306F502B7170840A9
:10BE9000138707C06300E502630EF500B7050310C2
:10BEA000370503101306201A938545071305C503AC
:10BEB000EFE0BFC5A9CCB707012003A507003746AF
:10BEC0000F00130606240581B3359502814633051C
:10BED0009502EF1080698147A1E192072ACC228563
:10BEE0003EC402C602C802CA02CEEFF0BFAB014692
:10BEF0002C002285EFF07F841C4C370700802285C0
:10BF0000D98F1CCCEFF03FAA2285EFF09FA9B25049
:10BF100022549254456182801397F5010581598D11
:10BF20008581850755BF397122DC26DA4AD84ED67D
:10BF300006DE52D456D25AD05ECEB70701402A84CC
:10BF4000AE89B28436896302F504B7170140630EE7
:10BF5000F502B7270140630AF502B73701406306CF
:10BF6000F502B7170840138707C06300E502630EA8
:10BF7000F500B7050310370503101306A01C9385C1
:10BF800045071305C503EFE05FB82285032A0401C6
:10BF9000EFF05FAA2A846342050637460F001306B6
:10BFA00006243346C502135A4A00137AFA0085471D
:10BFB000B3974701130A803EB38AF9029356F641BC
:10BFC000B3A93703B3375A03330B3A03B30B5A03FE
:10BFD0003E9BDA855E85EF104059814799C933460B
:10BFE00044035E85DA859356F641EF10005895E1DB
:10BFF000854788C02320F9000144F250228562540D
:10C00000D2544259B259225A925A025BF24B2161E0
:10C0100082809356F44122865E85DA8536C6EF101B
:10C02000C054B2468947F1D522865685CE85EF1099
:10C03000C05371548D47D5DDC9B781A0B1A021A0EF
:10C0400039A8A1A8B9A8411122C406C62A8422850C
:10C05000CD3F75DD22852244B2404101F9BF011177
:10C0600022CC06CE2A8422852EC6E93FB24565DD64
:10C0700022856244F2400561D1B75C41C18B99E3EE
:10C08000085182804D5582805C4193F7070881E713
:10C090000CD10145828051558280484121813D89E2
:10C0A00082805C412145B183BD8B1D8D8280411111
:10C0B00022C483C7418806C691EB13060020814540
:10C0C000138501C1512285472382F188B240224461
:10C0D000014541018280011122CC06CE26CA4AC800
:10C0E0004EC68D472A8463F4A704B70503103705AD
:10C0F00003101306E0049385C50E13054514EFE005
:10C10000DFA001494A85EFF0CFA9AA85AA844A8514
:10C11000EFF08FA71E04138901C1938901A195E453
:10C12000F2406244D2444249B24905618280378973
:10C13000004069D9B70703101307F5FF0A07938773
:10C140004716BA9703A9070075BF93F7140089CB68
:10C15000B30724019C4389C73307340108438297FE
:10C16000858011046DBF411122C406C62A84EFF0F8
:10C170007F8322852244B240814541016FF0DF82F6
:10C18000FD556FF09F82411106C622C426C2AA84C3
:10C19000EFF01F822A842685EFF05F81B24022856E
:10C1A00022449244410182800C410111740030000C
:10C1B00006CEEFF0BF8032478946A2476300D70220
:10C1C0008D466302D70285463E856306D700130578
:10C1D000803E33D5A702F240056182801305803E80
:10C1E0003385A702CDBF37450F0013050524CDBF0A
:10C1F00017450010032545E18280411122C426C263
:10C200001384418693844186818C4AC006C6898402
:10C210000149631199021384418693844186818C7C
:10C2200089840149631D9900B24022449244024925
:10C23000410182801C40050911048297D9BF1C402E
:10C24000050911048297F9BF2A8311C62300B300A0
:10C250007D16050365FE8280C5C183A7C5FF011158
:10C2600022CC06CE1384C5FF63D307003E942AC6B2
:10C27000EF00B0241387C1881C43324589EB232289
:10C28000040000C36244F24005616F007023637DC7
:10C29000F4001040B306C4006396D7009443DC4317
:10C2A000B29614C05CC0F1BF3E87DC4399C3E37D06
:10C2B000F4FE14433306D700631F86001040B29685
:10C2C00014C33306D700E39FC7FA9043DC43B2960A
:10C2D00014C35CC345BF6375C400B1471CC15DB7DF
:10C2E0001040B306C4006396D7009443DC43B29673
:10C2F00014C05CC040C379B7828041114AC0138921
:10C3000081888327090022C426C206C6AA842E84F7
:10C3100089E7814545242320A900A2852685592C3B
:10C320007D59631A25017D54B240228522449244EE
:10C33000024941018280130435007198E30685FEAD
:10C34000B305A4402685BD24E31025FFE9BF0111F4
:10C3500026CA93843500F1984AC806CE22CC4EC630
:10C36000A104B1472A8963F4F406B14463E3B40637
:10C370004A85EF0090149389C18883A709003E8401
:10C3800025E4A6854A85953FFD572A846316F50C5A
:10C3900003A40900A287DDE78329040081454A85BB
:10C3A000A299092C6393A90A1C408D049D8CF198D5
:10C3B000A104B14763F3F400B144A6854A85353F33
:10C3C000FD576304F5081C40A6971CC03DA8E3DF99
:10C3D00004F8B1472320F9000145F2406244D244F9
:10C3E0004249B249056182801440858E63C90604C2
:10C3F0002D47637ED70204C03307940063978702FA
:10C4000023A0E9005C4014C35CC34A85EF00500BD5
:10C410001305B4009307440061993307F540E30E18
:10C42000F5FA3A94898F1CC04DBFD8C3E1BF58407C
:10C430006395870023A0E900C9BFD8C3F9B7A287D5
:10C4400040403DBF3E84DC43B9B7B1472320F900EB
:10C450004A85EF00F00649B704C145BF5D7122D49B
:10C4600006D62A842EDA32DC36DEBAC0BEC2C2C498
:10C47000C6C617450010032525B911C51C4D81E717
:10C480002AC6452B32450C455418228636CEEF007D
:10C49000500AB250225461618280011126CA06CE30
:10C4A00022CC4AC84EC652C4AA8419E11C45029047
:10C4B0001C4D2E89A5E7B52B9C4C8044B5C39747EE
:10C4C0000200938727CF6310F406C0407C50858B11
:10C4D00081EB8357C40093F7072099E3284CD92DAB
:10C4E0008357C400A18B99C31C48C5E7A285268544
:10C4F000752245C1FD547C50858B81EB8357C40068
:10C5000093F7072099E3284C7D25F2406244424985
:10C51000B249224A2685D24405618280004545B74A
:10C520002685012B69BF974702009387A7C663142E
:10C53000F400804461BF974702009387A7C3E317C5
:10C54000F4F8C04461B71CC4050963C907021C4064
:10C550001387170018C02380B7001C4483450900C7
:10C56000FD17F5F11CC463D907022286A94526856B
:10C57000B520FD57E300F5F8A944B5BF184C63C4D6
:10C58000E700E39645FD228626858928E31735FDD9
:10C5900095B7FD59294AD1B71C401387170018C019
:10C5A00029472380E700C9BFAA8517450010032546
:10C5B000A5A5E5B5411122C42A842E8523AE0188A4
:10C5C00006C6EFE03FAAFD576316F50083A7C189B1
:10C5D00091C31CC0B240224441018280011122CC8F
:10C5E00026CA4AC806CE4EC6AA842E89328401C500
:10C5F0001C4D91E33D29974702009387A7BB631821
:10C60000F402C0401C4C1CC48357C400A18B99C3C6
:10C610001C4895EFA2852685512015C97D59F24009
:10C620006244D244B2494A854249056182809747B3
:10C630000200938727B66314F4008044E1B797475C
:10C640000200938727B3E31FF4FAC04465BF1C4878
:10C6500008409379F90F1379F90F1D8D5C486346F3
:10C66000F500A2852685852C55F91C440505FD1786
:10C670001CC41C401387170018C0238037015C4876
:10C680006389A7008357C400858BD1DBA947E318D2
:10C69000F9F8A2852685812459D149B7411122C4D0
:10C6A00026C24AC006C69744001083A4E4952A898E
:10C6B0002E8489C49C4C99E32685A52E97470200B9
:10C6C000938747AF6314F402C0408317C40013F785
:10C6D000870035EB13F7070115EB25472320E90009
:10C6E00093E707042316F4007D5561A897470200DD
:10C6F000938747AA6314F4008044C1BF97470200A0
:10C70000938747A7E313F4FCC044C1B7918B95C747
:10C710004C5891C9930744046385F5004A85EFF0AE
:10C72000BFB3232A04028357C4002322040093F7D3
:10C73000B7FD2316F4001C481CC08357C40093E7C0
:10C7400087002316F4001C4881EF8357C4001307A9
:10C75000002093F707286385E700A2854A855D29B5
:10C760008317C40013F717001DC35848232404007F
:10C770003307E04018CC1848014501E713F70708D4
:10C7800025F3B2402244924402494101828013F7CA
:10C790002700814611E3544814C4F1BF8397C500B4
:10C7A000011122CC26CA06CE4AC84EC613F787000E
:10C7B000AA842E8471E7D8416345E000B8416359EB
:10C7C000E008585451C7B18303A90400858B23A006
:10C7D00004000C50A1CF70488357C400918B99C7B7
:10C7E0005C401D8E5C5899C33C401D8E5C540C50BF
:10C7F000814626858297FD57630EF5041C48056720
:10C80000232204001CC08357C400F98F91C368C859
:10C810004C5823A024018DCD930744046385F50073
:10C820002685EFF07FA3232A04021DA0014685463A
:10C8300026850297FD572A86E310F5FA9C40C9DF4A
:10C8400075476385E70059476395E70623A02401F0
:10C850000145BDA098408317C40001CFF54663058C
:10C86000D700D9466319D7041C48232204001CC0F2
:10C8700045B71848B1832322040018C0858B79B7C7
:10C8800083A90501E38609FC03A905008D8B23A07C
:10C89000350133093941014791E3D84918C4E359B7
:10C8A00020FB1C540C50CA864E8626858297634016
:10C8B000A0028317C40093E707042316F4007D55F4
:10C8C000F2406244D2444249B24905618280AA9949
:10C8D0003309A940E9B79C49411106C622C426C2C2
:10C8E00081EB8144B24022442685924441018280FA
:10C8F000AA842E8401C51C4D91E3252A9747020086
:10C900009387478B631DF402C0408317C400F1DB9B
:10C910007850058B11E793F7072099E3284C592CA1
:10C920002685A285A53D7C50AA84858BC5FF8357AB
:10C93000C40093F70720DDF7284CB52C65B797475F
:10C940000200938727856314F40080447DBF9747D6
:10C95000020093872782E31AF4FAC0447DB741119D
:10C9600022C406C62A842316B5002317C500232037
:10C970000500232205002324050023220506232881
:10C980000500232A0500232C0500214681451305B7
:10C99000C505EFF07F8B97170000938727A05CD029
:10C9A00097170000938787A21CD4971700009387DE
:10C9B000C7A65CD497170000938787A9B24000D020
:10C9C0001CD8224441018280970500009385E5F040
:10C9D000A5AA411126C2930780069384F5FFB3846C
:10C9E000F4024AC02E8922C406C693854407EFF09C
:10C9F0001F962A8401CD232005002322250131051D
:10CA000008C4138684068145EFF01F84B240228556
:10CA1000224492440249410182801385418959AAE6
:10CA20001385418949AA1385818969A21385818962
:10CA300059A2411122C406C62A84F5371C4C89C765
:10CA40002244B2404101DDB797070000938707F801
:10CA50001CD4232404042326040423280404971745
:10CA6000000083A727EC6394870085471CCC2285B0
:10CA70003D2048C02285252008C422850D2048C4B9
:10CA8000484001469145E13D08440546A545C13D64
:10CA900048440946C945E13585471CCC55B7411185
:10CAA00026C24AC006C622C42A89853F97140000C0
:10CAB00083A444E79C4C99E32685A53F9384840492
:10CAC0008044DC40FD1763D607009C40BDC3844012
:10CAD000C5BF0317C40039EBC17785075CC41305D4
:10CAE000840523220406F120253F2146232004004B
:10CAF000232404002322040023280400232A040002
:10CB0000232C040081451305C405EFF0EFF3232A1D
:10CB10000402232C04022324040423260404B24028
:10CB200022852244924402494101828013048406F2
:10CB300051BF91454A85713D88C02A8449F9CD3558
:10CB4000B1472320F900E1BF797122D44AD04ECEFB
:10CB500052CC5AC85EC606D626D256CA2A892E8A12
:10CB6000130485048149054BFD5B0444832A44007A
:10CB7000FD1A63D00A0200406DF8B250225492545C
:10CB80000259624AD24A424BB24B4E85F249456144
:10CB9000828083D7C400637BFB008397E4006387B4
:10CBA0007701A6854A85029AB3E9A9009384840691
:10CBB000C1B78280828082805971A2D42E848395ED
:10CBC000E500A6D2CAD086D6B284368963D30502E0
:10CBD0008357C40093F7070895EB13070040B6503E
:10CBE00026542320F90098C00659965401456561E2
:10CBF00082803000EF00300BE34C05FC3247BD670C
:10CC0000F98F7977BA9793B71700C1BF8147130798
:10CC10000004F1B783D7C500797122D406D626D295
:10CC20004AD04ECE898B2E8491CF930774041CC0BA
:10CC30001CC885475CC8B250225492540259F2492C
:10CC40004561828074003000AA84BD37A2492A89D8
:10CC50002685CE85EFF0AFEF01ED8317C40013F703
:10CC6000072071FBF19B93E727002316F40075BFA3
:10CC700097070000938787D59CD48357C40008C0CA
:10CC800008C893E707082316F400B247232A3401A3
:10CC900091CF8315E4002685EF00900301C98357E7
:10CCA000C400F19B93E717002316F4008357C400D8
:10CCB00033E527012316A400BDBF13850189DDBD1F
:10CCC00013850189CDBD1C46FD171CC663DA07001C
:10CCD000184E63C5E700A9476394F5006FF01F90F5
:10CCE0001C422E851387170018C22380B70082804C
:10CCF000011122CC26CA4AC84EC652C406CE2A8981
:10CD0000AE893284B304D6007D5A63149400014581
:10CD100009A8834504004E864A8575370504E31645
:10CD200045FFF2406244D2444249B249224A056179
:10CD30008280357122CD26CB4AC94EC706CF52C557
:10CD400056C35AC1DEDEE2DCE6DAAA892E843289D5
:10CD5000B68409C51C4D99E3EFF0BFCD97370200AB
:10CD600093874745631AF40403A449007C50858BDC
:10CD700081EB8357C40093F7072099E3284C1D3DAE
:10CD80008357C400A18B99C31C48ADE3A2854E858F
:10CD9000EFF0DF9021CD7C50858BA9C37D55FA4003
:10CDA0006A44DA444A49BA492A4A9A4A0A4BF65B23
:10CDB000665CD65C0D618280973702009387873D61
:10CDC0006315F40003A4890055B7973702009387D1
:10CDD000673AE31DF4F803A4C90049BF8357C400B0
:10CDE00093F70720C5FF284CF9334DBF9307000286
:10CDF000A304F1029307000302D22305F10226C621
:10CE0000930B5002973A0200938ACA3C054C294B77
:10CE1000CA8483C7040099C3639B7709B38C2441F8
:10CE2000638D2401E6864A86A2854E85D135FD575D
:10CE3000630EF5189257E6973ED283C704006387C6
:10CE40000718FD571389140002C802CE3ECA02CC4F
:10CE5000A309010482D48345090015465685D925C6
:10CE6000C2479304190031E513F7070109C71307F7
:10CE70000002A309E10413F7870009C71307B002F2
:10CE8000A309E104834609001307A002638BE602AD
:10CE9000F247CA848146254603C7040093851400DF
:10CEA000130707FD6375E6068DC63ECE1DA08504FB
:10CEB0008DB7330555413315AC00C98F3EC826895F
:10CEC00059BF324793064700184336C6634A0702E4
:10CED0003ACE03C704009307E002631EF70403C7BA
:10CEE00014009307A002631AF702B247890413875C
:10CEF00047009C433AC663D30700FD573ECA25A8A6
:10CF00003307E04093E727003ACE3EC8D9B7B3874E
:10CF10006703AE848546BA9741B7850402CA814645
:10CF20008147254603C7040093851400130707FDB6
:10CF30006374E606E1F683C504000D46173502006A
:10CF40001305C529C52311CD9737020093870729FB
:10CF50001D8DC247130700043317A700D98F85041E
:10CF60003EC883C50400194617350200130545273E
:10CF7000138914002304B102752325CD9307000003
:10CF800095E74247B2471377071009CF91073EC68E
:10CF90009257D2973ED2ADBDB3876703AE84854624
:10CFA000BA9749B79D07E19BA107D5B778009706C7
:10CFB0000000938626D422860C084E859700000038
:10CFC000E7000000FD572A8AE314F5FC7C50858BAE
:10CFD00089EB8357C40093F7072081E7284CEFF0D3
:10CFE0009FBD8357C40093F70704E39907DA1255EE
:10CFF0007DB37800970600009386C6CF22860C0882
:10D000004E85112AC1B7797156CA9C49BA8A98458A
:10D0100022D44AD04ECE52CC06D626D25AC85EC6AC
:10D02000AA892E843289368A63D3E700BA872320FF
:10D03000F9000347340401C785072320F9001C4089
:10D0400093F7070291C78327090089072320F90076
:10D050000440998891E8130B9401FD5B5C4403271D
:10D060000900998F63CCF40483473404B336F0008D
:10D070001C4093F70702A5EB13063404D2854E85B6
:10D08000829AFD576303F5041C4011478144998B34
:10D090006399E7004444832709009D8C63D304000F
:10D0A00081441C4418486354F700998FBE94014989
:10D0B00069047D5B63982405014509A885465A8665
:10D0C000D2854E85829A631E75017D55B2502254D9
:10D0D00092540259F249624AD24A424BB24B4561DC
:10D0E00082808504A5BF3307D40013060003A30183
:10D0F000C7040347540493871600A2978906A381A7
:10D10000E7049DBF85462286D2854E85829AE30E2E
:10D1100065FB050945B7797122D44AD04ECE52CC71
:10D1200006D626D256CA5AC803C885019307800777
:10D130002A892E84B289368A63E207039307200680
:10D140009386350463E107036300081E9307800597
:10D150001736020013064609630AF81493042404E0
:10D160002301040515A89307D8F993F7F70F55463F
:10D17000E366F6FE17360200130686098A07B297A1
:10D180009C43B29782871C4393842504938647006F
:10D190009C4314C32381F504854745AA90411C4351
:10D1A000137506089385470039C19C430CC358404A
:10D1B00063D207149305D002A301B40418C46350CA
:10D1C0000704B307F040173602001306E6012948AA
:10D1D000B68433F70703FD14329703470700238013
:10D1E000E4003E87B3D70703E37507FF8DA09C4398
:10D1F000137506040CC345DDC207C1874DBF6D9A88
:10D2000010C0C1B790411C431375060893854700B1
:10D2100001C50CC39C4339A0137606040CC37DDA08
:10D2200083D707001307F006173602001306C6FB64
:10D230006310E80C2148A3010404584018C4E349D2
:10D2400007F80C40ED990CC0C1F7B68451F3A14723
:10D25000631EF8001C40858B91CB58401C4863C767
:10D26000E70093070003A38FF4FEFD14858E14C816
:10D270005287CE867000A2854A857133FD5A631AA3
:10D28000550D7D55B250225492540259F249624ACA
:10D29000D24A424B456182809C4193E707029CC180
:10D2A0001308800717360200130646F5A30204058B
:10D2B0000C401C4313F8050813854700630508005C
:10D2C00008C39C4301A813F8050408C3E30B08FE38
:10D2D00083D7070013F7150001C793E505020CC0BB
:10D2E00099C3414889BF18401377F7FD18C0D5BFCF
:10D2F000294891B717360200130606EF294835BFB3
:10D3000090411C43CC4913780608138547006306F7
:10D31000080008C39C438CC301A808C31376060405
:10D320009C4375DA2390B70023280400B68489B79C
:10D330001C43D04181459386470014C3844326850E
:10D34000D52219C1058D48C05C401CC8A301040446
:10D3500005B714482686CE854A85029AE30355F31D
:10D360001C40898B8DE7B2474844E35DF5F03E856C
:10D3700011BF85465686CE854A85029AE30365F13C
:10D3800085045C443247998FE3C5F4FEE9BF8144CC
:10D39000930A94017D5BF5B7411122C42E848395D5
:10D3A000E50006C6692A634905007C48AA977CC83F
:10D3B000B2402244410182808357C4007D777D17AB
:10D3C000F98F2316F400EDB783D7C500011122CCE5
:10D3D00026CA4AC84EC606CE93F70710AA842E84E2
:10D3E0003289B68991C78395E5008946014629228D
:10D3F0008357C4007D777D17F98F8315E4002316CA
:10D40000F4006244F240CE864A86B24942492685FB
:10D41000D24405613DA8411122C42E848395E500C4
:10D4200006C6D9287D578357C400631BE5007D7766
:10D430007D17F98F2316F400B24022444101828007
:10D440000567D98F2316F40068C8FDB78395E500FA
:10D450003DA0411122C42A842E85B285368623AE92
:10D46000018806C6EFD0CFF5FD576316F50083A7F8
:10D47000C18991C31CC0B240224441018280411144
:10D4800022C42A842E8523AE018806C6EFD02FEB56
:10D49000FD576316F50083A7C18991C31CC0B24034
:10D4A000224441018280411122C42A842E85B28502
:10D4B00023AE018806C6EFD04FE9FD576316F5008D
:10D4C00083A7C18991C31CC0B2402244410182801C
:10D4D000411122C42A842E8523AE018806C6EFD0CE
:10D4E0004FE6FD576316F50083A7C18991C31CC0A1
:10D4F000B240224441018280411122C42A842E85F7
:10D50000B285368623AE018806C6EFD0CFE3FD573D
:10D510006316F50083A7C18991C31CC0B2402244A1
:10D520004101828093F5F50F2A966314C5000145E9
:10D53000828083470500E38DB7FE0505FDB74111E5
:10D5400022C42A842E85B285368623AE018806C67B
:10D55000EFD0EFDFFD576316F50083A7C18991C3B4
:10D560001CC0B2402244410182803288AA882E87A2
:10D57000C5EE63F3C510C1676360F61AB707000113
:10D58000B337F600B307F040E19BE1073353F600F1
:10D5900097360200938646CD9A9683C606001303FB
:10D5A0000002B697B306F340630BF3003397D50040
:10D5B000B357F5003318D6005D8FB318D500135656
:10D5C00008013355C70293160801C18293D7080199
:10D5D0003377C702B385A6024207D98F63FAB70033
:10D5E000C2971307F5FF63E4070163E1B7323A8599
:10D5F0008D8F33D7C702C20893D80801B3F7C7028B
:10D60000B386E602C207B3E8F80063FBD800C2980D
:10D610009307F7FF63E50801791763E3D8003E87B6
:10D620004205598D8145828063F5D50081450145CC
:10D630008280C16763EAF618B7070001B3B7F60046
:10D64000B307F040E19BE10733D8F600173702003B
:10D65000130787C1429703470700930800023E97CC
:10D660003388E8406397E81863E4B6283335C5008B
:10D67000134515008145828055C6C1676372F62641
:10D6800013370610134717000E07B356E6009737F7
:10D690000200938767BDB69783C707009306000211
:10D6A000BA97B38EF640639FF608B387C54093568A
:10D6B000060142064182854533D5D70213D70801BA
:10D6C000B3F7D7023303C502C207D98F63FA6700E5
:10D6D000C2971307F5FF63E4070163E667223A8503
:10D6E000B387674033D7D702C20893D80801B3F78E
:10D6F000D7023306C702C207B3E8F80063FBC800CD
:10D70000C2989307F7FF63E50801791763E3C80040
:10D710003E874205598D82809337061093C71700C4
:10D720008E07ADB58146973702009387E7B3B6976A
:10D7300083C70700014793060002BA97B38EF640ED
:10D74000E385F6F63318D60133D3F5009356080176
:10D75000335ED30213160801B395D5014182B35746
:10D76000F500CD8F13D70701B318D5013373D3025A
:10D77000B305C603420333676700637BB700429774
:10D780001305FEFF636D0717637BB716791E42977B
:10D790000D8F3355D702C207C1833377D7023303C6
:10D7A000A6024207D98F63FB6700C2971307F5FFF4
:10D7B00063E3071563F167147915C29793150E019A
:10D7C000B3876740C98DCDBD93B7061093C71700C7
:10D7D0008E0733D8F600173702001307E7A84297E1
:10D7E00003470700930800023E973388E840E38D23
:10D7F000E8E6335EE600B3960601336EDE00B3D88A
:10D80000E500935E0E01B3D7D80313130E01B39551
:10D810000501135303013357E5004D8F935607015C
:10D8200033160601B3F8D803B305F302C208B3E612
:10D83000160163FBB600F2969388F7FF63E3C60D0B
:10D8400063F1B60CF917F2968D8EB3D5D603420765
:10D850004183B3F6D603B308B302C206558F637B88
:10D86000170172979386F5FF6369C70963771709F4
:10D87000F9157297C207C16ECD8F9386FEFFB3F57F
:10D88000D70013D30701F18E4182338ED5023307BF
:10D890001741B306D30293580E01B385C502B6955E
:10D8A000C6953303C30263F3D500769393D605017F
:10D8B0009A966363D7026305D7003E8581458280CF
:10D8C000C166FD1633F7D5004207337EDE003315FF
:10D8D00005017297E373E5FE1385F7FF81458280AA
:10D8E000B70700016377F60293560601414745B337
:10D8F0008145054582803A85D1B5B685A5BF2A8E7A
:10D9000041BDC68791B77915C297D9BB7915C29722
:10D91000C5B19356860161479DBB0000020000001F
:10D92000080001200A2A2A2A20434E4E20496E660A
:10D930006572656E6365205465737420765F6175EA
:10D94000746F656E635F7269736376202A2A2A009A
:10D95000F6ED00F7F6F2ECF5FBF10102120EFCF128
:10D96000F00012F5F70101F4FF0B0F0BFD0801EEBB
:10D970004225F6CD2D1B20081DDDD3ECD2E72F0468
:10D98000F4FE041A2139F640CAEFCC1BD834EDF569
:10D9900020BF260C7F1080DC7F477FD2277FD6D820
:10D9A000807F0E5C7FD695596D80B768737FB37F9B
:10D9B0005B8A7F273CF2ED4D7F7FAC80B7658005A9
:10D9C000EAB4EEC19E7F960C7F807F2B1F7F7F7F06
:10D9D0001B04FC0E14FAFEFE080B0416FCF7121DC5
:10D9E000FA101309FF0EFB0D12050406050C141A9C
:10D9F000FEF11B05020DF311160B010F16130C158A
:10DA0000F40AF5081804FF11F5F9F50F13F9FEFDF6
:10DA1000F00104FC05F7FF0DF4FDF2030CF207071B
:10DA20000E0D0B0F0A071504020FFFF0F2F810EFAE
:10DA30007F80807F8080807F80807FD9807F7F7F94
:10DA4000807F7F7F807F807F507F7F7F808080800E
:10DA500080807F7F807F80807F7F8080807F7F7FCE
:10DA60007F807F8080807F7F807F80807F7F7F80BE
:10DA70007F7F7F807F807F7F80807F807F80807FAF
:10DA80007F7F6280807F808080807F7F807F8080BA
:10DA90007F808080807F7F7F7F807F7F80807F808E
:10DAA0007FD17F80807F7F7F7F7F807F7F7F7F7F31
:10DAB0000000185081000000F216FCF816F3F6D2B0
:10DAC000DBFDF900EFDBD3BFC6D4F8E6DD1942EB8E
:10DAD0000CFA10DA1CEDFC360B2C461DFC090ED797
:10DAE00023F616E310D9D9E52A2518FCEB28D11620
:10DAF0000209F2E5CEDA42E3AFEA1717E620C9D809
:10DB00000C1D05EE100B4AD62D2C0B2CDA2633DC1F
:10DB1000061416DA02FE29EFEED7B4DBFF33FF2B33
:10DB2000E4100E400A250C09F83BFFDDDC0207E695
:10DB3000D30C1BEC0CE30B0AB525261008FADBFE10
:10DB4000050415F306050C112F1D25F8E70417121F
:10DB50001117F5EEE4DA07EE0A0B0BF3290FCFF8F5
:10DB60000426F6DC0802420109EAF400C304D712D5
:10DB7000B7B2D50F0F2615EFEC04442EF7ECE6F004
:10DB8000B01AFCEE1414EAFBA8DA0FE3FBF4BA05B2
:10DB90001405E8DCEE1FDF050BDFFE0723FCF32F87
:10DBA00001F5FEE00C02DF12E30018E3EAF50FF5E1
:10DBB000FEE7EBF7230C044BC32403F2E718E5E57B
:10DBC000E9E933F4E1DFFB1AE5E7FF1FF800E207BC
:10DBD000E11BFC151CDDFE2C01E810D809F2F20C4B
:10DBE00021032B0DE83989FF0B09FB1BE32BF509FA
:10DBF000E827FD07E016FF15E20FB6D4F731D61D72
:10DC0000BDDB0DDC051005DCFDE5EAD810DC290CD8
:10DC100035E232D7F2F01D30EF1DF70DF627C912AD
:10DC20001AE50210573027011FDF02EADD1124FD3B
:10DC3000FC010CFFF0BE00E1F2EA14D80116FAE68E
:10DC40001B030E11F933FE18DACD2C0912F224DA77
:10DC500011EA4AF30EDE0C000AF8062122242FFAFC
:10DC60003FEADB1DEE1E1EC219EAF92503230CE96B
:10DC7000E022E12437EE11E320F91E28B233F7E465
:10DC800003EAC814F12DA72018F305C5F80F080CF6
:10DC90001349420CE5DF3200F8D6D12E0154E71BC0
:10DCA000150BECE14224362E25E509DB10001A0B9A
:10DCB000E347FD000BF212E500000002F0001850EF
:10DCC000610000000916E511F325FBDCD53511E0F4
:10DCD00002E52607220AF92CF8FFDBE80E08231DCF
:10DCE000E10D221E223F2F021EE5241BF5B3EED9C3
:10DCF000E3FB05FC13F245E9B1FB1A0AF5F8DA0873
:10DD0000C0E7EE09C90FDDE813FC400619F9F20C73
:10DD100021120FE41DE0FEE241F2C7EC090D09EC0F
:10DD20000AD1D3E5D4EA380D0B090EDCFF27FDF646
:10DD3000FFF2D7E725E206F4E8DEF4E32924110632
:10DD40004B34D619D52572BA1CDFCCEE0101EC108C
:10DD50000E020B1206EC3F10FA19FBDDFC1DF21649
:10DD6000E2091E201542EA070CDA26F8DCE3E61E7B
:10DD7000D2F107F60EC4DF0F2D21E1DF150607F5FE
:10DD8000E4EBE81316EBE3FBCA01131AE0181BF2ED
:10DD900006F3312F1E17080FCD0235E409FF1DECE5
:10DDA000F612E317F5050DF0F0FCFFF523E817D99F
:10DDB000E72F270105EB251012DE0529E1F7F720F3
:10DDC00027FD2E10EBEFCE121115450D2EF5EC02AE
:10DDD00019D5012EEAF3C00AE4F53023DAE3E4159D
:10DDE000293922E925FCFEF6B3FD35E1FD0B2DEDC9
:10DDF000E0F8E929302A1CF818202512F804240438
:10DE000015BD1817DEFC32D82835EB0612FE1711A7
:10DE1000221E020E0EE5E1CB1517FCF2EE061DEDFB
:10DE2000E0E3C51BDC150ACC0F2A1F28F610F51FEE
:10DE300005121C05D9080008BEF906D10000FDDD59
:10DE40000AFCFC0000E7F505A00118500C000000DA
:10DE500018EEDEFEEAFADCE9E40DD01023F903192E
:10DE6000FD1823B8A441A818002F3E37DB0000009E
:10DE70001F0B03EF0000000023E92B00000000DE71
:10DE8000C0011850220000000F0800F60815FC26FB
:10DE90002725E6EFF541EA060119B805DFD7E21CB0
:10DEA00000E4EBEAF0000000F0D111F92409391385
:10DEB000350CF2E806FA09F1F8FDDE270DEAFE114D
:10DEC000FA160D10FA0ACCF10F1F170E0724180CC2
:10DED00002F91EFFF9011C1816F11419F7F1D0FE12
:10DEE000F3080427F31DE70E11F714FF07FFDF1CEB
:10DEF000FC12150409170AEE03FEF3FD1B1128EAB4
:10DF0000EF15EF0B0000ED16FD1B0600001FFFFFD5
:10DF1000000218508101000007F806F8FE07F1FA28
:10DF2000ED04FCF6F818FB0B00F9F5F20405D7F741
:10DF3000F7F5EFE1F6F000FFF7E3E1F4FDED0AF7A6
:10DF4000F216FC10FBF8F4FDFAF218F604FA1CF2D3
:10DF50000505F41901EDF3F2F9F60BFCFEFDE9F30A
:10DF6000FEFFE2E1F5D9FCFDFBFE150BF2DE06EB50
:10DF7000E8F6F5EAFE1DF0F70FF60722040B03F4AE
:10DF80000201F6F8FA0CF6F8E20A00FA051DF606A8
:10DF9000040B2402100BF3FCF4EEFBEB03F0FDFF8B
:10DFA0000CF2F4EEF6FAFEEDFCEAEF0513FC02F2D9
:10DFB00003F3FDF6D0F509E404F90DF8ECF7E3ED11
:10DFC000F6F5F6FA05F40908F70ADE00FEFBFB0D8C
:10DFD0000CFE11021EFDEEFCE7FE0000EDE4ED0973
:10DFE0000AF7F30CEA030DEFFEECFB03F3E7FFEE99
:10DFF000E5E008FEF1F7F6071D001BF2E9E31AF968
:10E00000F3040502FBFBE7EFFDD6FFFADBF5FA0EA2
:10E01000E800EA02DB02F4030FF1FAFD06E0F5EA9C
:10E0200007EAFBE1E2F9E8F704D40B07FDFD0BE892
:10E030000111F6F9FCE9F902F209F9F3EFF802F23D
:10E0400015ECFAF6F9FB0EEE0906F3F0FEEEFD0B09
:10E050002BF4E6FD07FD0CF51BF50CF708FFE6D7E2
:10E06000EEF2F201FDEAFD04F100F2FAFEF5000421
:10E07000F5EC070A0906FAFEFC0000FFFEF6F8FDC3
:10E08000F5E901F708F3080804F206FFF602F7F6CF
:10E0900008E010F1F3E6F902E9EE0DFFEC0112FAE7
:10E0A00009F30800F6F1D304DBEE09FCFBF60405E6
:10E0B00006F70A0009EEE10909FF18F8F8F2F7F986
:10E0C0000F02ECF800E9E7F9040EFBF8E405E112B1
:10E0D00005FD01F2E7F6F6F0F8FDFAEF060AECF4BA
:10E0E000F1EEE8F80D1BF709E1E30E00FBFCEA0B8B
:10E0F000F8F60F06F6F609FCF9F0FBF605F0E0D9A4
:10E10000F5ED04EA10FFE4F2F00001EDE1F9F8DFCB
:10E11000FCEEEA08EB07FEECF2F8FDE7F703EEEBA6
:10E12000EDF002EBF6F4F7E9FC09F808E8FDF4F489
:10E130000704F60A05F6F1F1FBE7F1FC0BFDF8E741
:10E1400006FD00F1F2E40200F7F1F7FCE0DA07FD6A
:10E15000F2F4F60005FBEEF7D507EFFF06030AFC25
:10E1600006F0F9EC07040BE7FEEDFFEE08F105FA07
:10E17000EEF9F71412F60A03FEF2EE11EEEBEFE2FF
:10E18000E70612DF03F2F408F6EDE7E3E70FEBE84A
:10E19000EF02F4FFFAF0F707FAEAFFFAF50404F2E7
:10E1A000FB10F0F3FEF701F9F8FCF8FFE600FAFCCB
:10E1B0000B010EF0FEE4FC02FFFDF70EEFF5000789
:10E1C0000FF109F1F4F6F7E9DC25B50AEAFFF717D4
:10E1D0000305ECEAFC02F3FCF4EFDEFB05ECF3F1E3
:10E1E000FA1AFC061CEFF419F5FDEBF5E4EA0FF161
:10E1F0000B01ECFC13F7FF13DCEB15F3F31001F745
:10E20000E501F9F4FBFB09E2020A00F606F3F2F677
:10E21000FEEB200A09EEF502F6F8E4EBFDF704F850
:10E22000EFF6E5F3FAF80CFDFB1605F213050AF913
:10E23000FAFCEAF606F5F40515FAF00904FCED0A15
:10E24000EEFC0F08F607E40AF6FDFCFCF4EBF5DF44
:10E2500013FE04EDF411F0FFFDF1F6FDFEE1F50A09
:10E2600005FD07EBFFFFFCEF12EFE8EB1108FFFAEB
:10E27000E2EB02FB0800EDFCF4FEEEF4FBFE00FE18
:10E28000E5F40A0BF9FCEC0A05DFF0F6F0FEF2F615
:10E290000DE8F5180908EAEC0EF310F7E008021093
:10E2A000010409F6FA0EF9F7FDFA11F4FFF809FF77
:10E2B000FBF1EEF3E9F2F7E4F5F8F80A0D15F2E2F6
:10E2C00007FB0EF7FA08F80AF8F5FFF5EFFC08F778
:10E2D00016F301EF061A02EEF0F913FF25EEE0E95E
:10E2E00002FB101A020CEBEE000E01F5F1EBE40656
:10E2F00007F3FBECFCF9EEF8FAF0F4F8EB01EAF1C5
:10E30000030118F2F9EFE3E303ECF802E201EC0594
:10E31000080311F3FF070AFD03E91006FEFEF303ED
:10E32000F5F907E9F513F8F0F10605FDFC02FB0924
:10E3300006F7F3FB0FE1F6FCF20D0FEE14E4D9083B
:10E340000CF3FAE4E3E305D403FA12F1FEFFFEF85E
:10E350000205FEF9EDF3F1F5F0F5F2E3EEEDED0275
:10E36000E5D4E100F3F8F20EFD05E2FFD9F6E3FB98
:10E3700012F9DF02F0F1FE0100F20300F7FCFB18D6
:10E38000F6FDF70E03F2F6DFFE11FBF7E0F902F2FD
:10E3900001FEFAFC00FE00F2F00C04F900EDFBD6E1
:10E3A000F7F4FA00FE18F6EDEA010FECF700EDF4D1
:10E3B000F5F9E8F2FCE3F0F6E7ECF3DD06E9FE112F
:10E3C000E8F0F60402FB0BF9F409DDF212EA0BEABD
:10E3D00002F4FCE0ED05F6E0FBEA10F308FCFEFEBB
:10E3E00002FFF4F6F916F1EEF7F9E5F0FAE5EF09B8
:10E3F00012F1E50210F503DAEDE2FCF1FBEBDFFAD6
:10E400001203FB02040B0EFCFED7F9E200EE0A0435
:10E41000EBF001E9F1FBF4E8E5F906F0F1EAEA03D3
:10E42000E9F80DEFFB01FB0DDBFEECFDF102E1FC79
:10E430000B09E6FCFB050C00F4FC0AEFEE04E61504
:10E44000E9F4F2DBF5F7FDF4EF04F4F701F418F169
:10E45000FEEBF5FAE3DFFF07EEF7FCF2F9060AEA56
:10E46000FC05FFE90AF202F9F7F809ED05ECF9FFFE
:10E47000F413FF080A0BF8E8EB0109F4F4EEEB08DB
:10E48000F6FA0DF1F4FE05FAFE0CEBFFF6FEF6FED1
:10E49000F1F506EFE107F803F906E6FAEDF501E319
:10E4A000E802F7F3F00A14F9020CFBFDFA02E9F9AD
:10E4B000F3E9F3ED04F0F2ECE9FDEDF8F5EFF9EF37
:10E4C000F5FAFDF9FEE8FD07FF07DEE705F9FAEDCD
:10E4D000070002FEED1900F9F4FCFBFD07EA00EB72
:10E4E000FD0B13F10FFFEF03FEF7F003ECF511F155
:10E4F000DEFAF6FDF7EE0F0B0104F8F6FFEE15F568
:10E500000CF40913FB0CFA0DE70BFDF6050AE40603
:10E51000000016F8E2070000000013F80040185051
:10E5200081000000E638CBF51DDD0B1518D405166B
:10E53000E7F2FB004B23E9F5FCE11514E9001BFAB7
:10E54000DCF62AF5F91D2ACBFAEA14DF181705E2E2
:10E55000F4DA1CE7F61E08FA0224DF200CDFFFE6DF
:10E5600004E815E11C08F6DEE0FB13FE381E32DC81
:10E57000D40AFDDC200B1A27EF240C18FCD6F00976
:10E58000F6E040190427E9EB17F0D22ED9EA11E89A
:10E59000FAEDDE01E128F5FB401BECF90402D2396B
:10E5A000F519332EF8EA0D1DE4DEF81D19E8FB1805
:10E5B00005FA07211E03260C0DB0221BA7FF170426
:10E5C00006FBAA4D07DD03ED90EC1DEC25F61223AA
:10E5D000060D0DDB17F90AEAD915D4250212FA1B2C
:10E5E0002DDFF9D6F5051E0BE81D000A051A3FE9D7
:10E5F000E2D233D9ED16F3CCDAE1DAF813FB2E12BE
:10E60000C3DFFEF2F5FF0C2C011AE4EDD801F00394
:10E61000F2FDFC02DAFE0F15140417031D1B18E3AC
:10E620002DF80A29CBDDCD1010F6DCE2CED824255A
:10E63000C42980ECE01DF51DEEDA1CE31AFDE0F2C2
:10E64000EFE91001F807FC1AC1C4F415EAEFFBE684
:10E65000F715BA0EE916CC3CBFD8031B2907FC13EB
:10E66000C9E3E8F5CC16DEEEE411E3F7DCE7470991
:10E670002F072523D90BD60BFDD4F0D8F32D17D6B1
:10E680000A202EE5ECEF2EF0FB08EE02DF121FFD54
:10E690005D68260214DCF80CE0E1FF153609BADEED
:10E6A000B12FF5F30AE7F8D2DB011E0AEE1AF6DA0B
:10E6B000E418F8FBD40DECF3F2E4DC2903FB5E195B
:10E6C0000C080D22040BF0E3E202F918110B2DD314
:10E6D000F0EE312914ECE313F526F312F1E6FD2EEA
:10E6E000301817F123182419FEF42C25D3021CED41
:10E6F000E9DEABECF30401F50A1EF42C12A3E40EE0
:10E70000ACD6F925DF19A3DBFA2C12E71BCEFBFEF2
:10E710001C1E0EFC3938E5F0FA19FCEA09D0250078
:10E720004504FE29000000F9F04018506100000087
:10E73000FB18DED8FFE119DC01FA054DF2DE11F11C
:10E74000F0F5F0F5D2E00135F335060FE6E3FA22F5
:10E75000DF320CD13AEF052F1AF9D916DEEC01A8F9
:10E76000DFE9E7EF0EF4DF10FE01F5D7F8DD1EF963
:10E77000EE0EF801E5DEEC110D290C03DF0711D6D2
:10E78000EA55D9412ACD05EED0F003C9090E0B0197
:10E79000061C07F2FD0E05DB0BDAFE1D14CFDBDDD8
:10E7A000FD09F7EED703D4E52CCAF5E30745F1C719
:10E7B0000B1DEA42071E11E4252CFEA30B0B0303DD
:10E7C0000F1ADB04FF10FDDB1703F30A19F1E3FE58
:10E7D000F806EF12F2F904FBE4F9FB0E13162A1CFB
:10E7E000F4EEFD0CD7E105EB192510E71E0DF60C34
:10E7F000BA3A0911DFC7FCACE70B070CA6E5EDD868
:10E800005AF4E53E04E5E6DBF6E500E8D5FD08DF71
:10E8100002FEFAFC13403A103611160AE711D2E252
:10E82000B3DDFAD71318C5E3AF38D7F816D4EBED3C
:10E83000E5C1E74B17FE0AD9E5FB1A1BF92408EAE4
:10E84000BFF0EB1727C6F409E6F71318D3F7030E4A
:10E85000F44ECCFA10072831D2DED50B1C2329FF49
:10E860000D0DE2CAFBC2281F3B1AC2FCD0B6EC2237
:10E87000FDDBE9C91EFAEC0AF9F8040407EB1E0AED
:10E88000F60AFBF52DE4FBC927ED2DF7D0E839FF9B
:10E890002408DF08C1EAA6DB02D10B2C1C08DDCB63
:10E8A000CBF4CD18EEE01B0E0000C7CC18EF110022
:10E8B00000E1231BA04118500C00000004E7D71210
:10E8C0000E0C0ABEEDEF2C25FAE2F820271F292CAA
:10E8D0000D19032C00121ECFE400000014C3E20A3D
:10E8E00000000000F72CFA0000000018C04118508A
:10E8F00022000000F0020B0747C3EF35D2EB44DCE7
:10E900002601CE01DBAEFFD5CB31FAC80016E1D02F
:10E91000FF000000D6A122F8E205E2EAFCF312CAE9
:10E920001307F50B0110FBF5F2FEF703E8F610C331
:10E93000F7FD151F0C0BF6E51BDCDC26CEFD1503E1
:10E94000FE1AE00D08160117FC0D20F00BF01BE17C
:10E9500003E930D9010AF6FEFA1D1815BEE6F7E5FF
:10E9600009A7181F0A213B042E02F603042C0CEF02
:10E9700000001B0D02EEFF000014030400421850BB
:10E9800081010000050304070AFE0B02F9010AFEDB
:10E99000F2F5F6EE080607F8FDE6EC13DF14FC0BC3
:10E9A00000CFC805060C02E9F519F0000BF8ED00E0
:10E9B00017F7E400EF2600FFF80822FC03F205EE4B
:10E9C000EAFE03F4F0F9FAFA0CE50FF306F916F98A
:10E9D0000AEC110BEAF5EFF7DDFC1502FB0E12183D
:10E9E000DB1FB9F500FFEA2BDAEFFEFB0DF9EBFCBC
:10E9F000DBF1DDF101E7F1070CF4EFF3EB07FE01CA
:10EA0000EE0EEFFB12F1EEEEB700FFFBF7FEFBE9B7
:10EA100014E0D919E9051EFBF70B0104FE01FAFA0F
:10EA200018E514E8FBEA1000EDF6E7F3E7EFEBEA90
:10EA300010FBE6F0E21280E0B116F9F2F3F7F7CB43
:10EA400002E1D7EEC1E9FBDEFB19EC0AF204C5E9ED
:10EA5000CAE10C05F7F3F9FD03FEE2F9EEEF17004A
:10EA6000F4F310F80E030EF2DACE1ACDF5EC24FC16
:10EA700012F21FFB10F8F2121305F706EBF7F7F08E
:10EA800006F5E6F1F3FF2BF009E5F3DE08F3F5EE0A
:10EA9000F610F6DDEAD7ECF4BBD0ECDFE704F104C6
:10EAA0001BEFDF06F0EFE005E707030219E61206A9
:10EAB0000103EFE8F9041EF414EC1AEA3109270007
:10EAC00006D20025FEF52BB607E10FE90BF1FB1886
:10EAD0000207F8F43505010B14FB2BFFFFF803E2E6
:10EAE000E50FF9EE16ED0C0EF6F5F6F818EC08FB4E
:10EAF00002F9F618F6E6030502EFFEF6E503F9253E
:10EB000016011F1122F231E7EBECE5F7ECEF0403FD
:10EB100002EDF3F4F8F3EAFB140513FB2CEFF9FB19
:10EB2000FFF2130305FD3019FDDBFBFEDCE9FEF30C
:10EB300009EB1CDBFCEF00F5EE0312071FFCF4FCF5
:10EB4000FAF6F8DC000AFDFD13021401FC0108F4DA
:10EB5000F6E303F1171304F3F3F4E7FCF9F4F00D13
:10EB600009FEF111D104EE01B204FCFAF8F9E61441
:10EB7000F4DFE707EEE9F8E1F0F4DEEC02F0FFF194
:10EB8000BF07D2EF0207F817FCF102020DF000E612
:10EB90001700F002E7FA03F203EDF2090DECF6FCC0
:10EBA000DC08BAF808F0F7FFF8F2F9FCDF02D60645
:10EBB000F6DC02F1E708F0F5F014EE0EEE0B0AFABF
:10EBC00022EDDBF8F405E705E002040FE9EFEFF6CC
:10EBD00007E4CDE5EFF50BFE230BC8E4E2FBD8DE3E
:10EBE000D0EEF5F616F4FBFCE5F2DFF8D4DD0CEE22
:10EBF000C401DA00E21DF40EBCE804FAE403FB06EB
:10EC000012DBE0F702E0ECF7C5FFECEFFF0622E9CC
:10EC1000F5D5D4ECEF06FCF4E7FFFFFAF503C8F3F3
:10EC2000F1F0D6F50523C7F9F703F3090720F0FB48
:10EC3000EAE9FEE9322602EADE0E02EF0301F6FB04
:10EC40000CF7010602F901F00AEE1DFD0920520A37
:10EC5000F5EBEE0EFC04E2E20E0A07FE2BFAECF5F1
:10EC6000060303EB0301FFF70A02F60A17F7C7E5ED
:10EC700004F5190421EA18F7FD25FB1407050EFF1A
:10EC8000DCF904EBF4ECDDF3DCF205DADDF105058B
:10EC90000107F7F2E6FFD5F6F3EAF0FA101885E37C
:10ECA00000EF19FB6FFAFCEDE822D7E8E2DBFFFA90
:10ECB000120DFB09F8FCDBFC09F31C02290CD6F74A
:10ECC000E1F148FEBB04FEF301FDF5FEF7F405F7A4
:10ECD000FFF7020025EA0808E0FCCD07DDD8EDF4D7
:10ECE00027F0F50503F609F35DF8180324F807E9A2
:10ECF00007FB2C0EEC0AF6F2FAF603D509030AF527
:10ED00003F1424FFDEFDF3F701FA0CEDF2FC0306DD
:10ED100006F7EDFD09EC130118EA08F742FA1BEFBC
:10ED2000EEF1DEE4F7E710DE4BE70200FBFB050146
:10ED300025F55CF50C0EFC17EEE4F4FC14EEFBDAA2
:10ED400028F7EAFBEFE0EEFD2EE342F61F0EF9EEA8
:10ED5000F8E0D2FFF6F102E71EFEF1EFED0BFEE761
:10ED600008E2F8F1F7FB0103FAE60FF9EDDFF3F93A
:10ED700012EFE401F508F5EFE2FCD6FFD2FAF6EC6B
:10ED8000F4E2E7E502D5F1F24DFDEBEFED1DE6EF24
:10ED900017FBFC06FFEA00F6FBF602F81CDE21F882
:10EDA0002F0717E50CED29DFCF0511EB10FB010054
:10EDB00008F2E4F425082FFB34FBF013F5F13DECE9
:10EDC000D5EBFC06FF050E0AECDE03F81DEFFDF3A4
:10EDD00008F0F8EA02F1CDEEF5E602F1FFEF0908DE
:10EDE000F3E3E50604DE0F01F10D02D7E8EE0600BD
:10EDF0000EF105F909E8E9EFFEFAFCE732F50CEA55
:10EE00001DFCFBE7FDDCF9E4E5FAF5E7FBFBF8E8C0
:10EE1000E1DFF6D915F3FCFDF6FED4FBF2EF11F6B7
:10EE2000F6F8F6E917F0F00508F718F4E7EC17EB39
:10EE3000ECF9F3FBEFE9CAF7EBEA0FF10DF80DE29D
:10EE4000F506E5E532F00503E8EAFAEDFEFCE0FF41
:10EE5000F7EAEDEB0306EEF3EEF80BF330E9FBE82F
:10EE6000FBEEE9FAE1F2D3DFF9F5F0EBE9F5EE06B6
:10EE7000E7FB06F109F9F6F6F5F6EAF0E6FFDBDC6A
:10EE80000E01E2F1EAF5DF01F6FDEFE1FDF5FEEA44
:10EE900003F6EFFDFC050FFAEBF70219EEEFFE1596
:10EEA000F3FAF0FEFCFAE7E1F5FDFED8FD0600FE00
:10EEB000F106FCF6E8FBF4FB19F50103EB0605FC93
:10EEC00001ECE9FCE6FCF200FC0C0A0803EAF9EAB2
:10EED000E4EB0600EEF9FD0205EBEE0DF8F7F2EDBE
:10EEE000F3F3F00BF3FFE1F2F1F70209F106F5FE9F
:10EEF0000B01F3EEF5FAEBF7EEECE7E9F0E7EDF6F0
:10EF0000E9EAF2FDEBFAE7FBF1F5EA04EFE4FEF2E1
:10EF1000EFF40003E70604F8F208EFF4F0EFFDE089
:10EF2000F7E908FDEBFDEFFBEFFAFAEAEC02FCF67D
:10EF3000F9F7F2FEF3F6F6F3F203FAE5FCFFE7FF6A
:10EF4000E4FEF1F7F0F4FA0600ECFFFB0802FA0425
:10EF50000001F3120201FD02FE08010100F8FF04A6
:10EF6000FC020B0FFD0C06F3F6160BF909FCF90475
:10EF700008FBF70307FB05FCF4FB05030000F5F9AC
:10EF8000FB0F060000FA04FF00801850810000000B
:10EF9000C90B00070911DBEA34E503DEF410BF3FBB
:10EFA0001DD602033802CF1CE02FD308FBE8FCE09B
:10EFB0000016F6EAFC36F501E60EE01DC419211034
:10EFC00008DD04EB2631E148230BF9FAD8FEE70807
:10EFD0002C29AAD529EE1C185B014514E2D7FBDACF
:10EFE0000D03ED04EAF567DCD2C31ED6F40E1E1540
:10EFF000BFD911F8092B1E0B0EF0FC23151AF010C7
:10F000001813F109D2F5DDDBFE25F7D004D40A0090
:10F01000570FE0F7EF00E609F4160B2B0C0C160C5B
:10F02000CEF6020F23EA0902CCE42AEBF0C454F333
:10F03000E50B06E6EE25FA00FD28F9E807D70CE90E
:10F040002305061232BEEE04D4FEF91805FCEC0FBF
:10F05000E4FF00F818F8D6F81C04E903D81EF22BD8
:10F06000E9230AE4041FF904322811D61128E6EB3B
:10F07000360DD124F70A0C1C10D9E0F50AE6000A77
:10F080001CC73EEEFC1F120CF8112C18212F10FC8F
:10F0900017BBE00CFAFE180C04D702ED2AEDD600DF
:10F0A000EE1CF515E6F6F00526DAB21605F60C3874
:10F0B00019FCE617180BECFC8910F5EFED3B00D6B8
:10F0C000D9C805DDE7D5D3130E0A1FFE16EE16FCD0
:10F0D000072806B106EC18DFE1FDF2E7E72CFF1B7D
:10F0E000DCF53106FE1DF006E5D0B426FAF910EC89
:10F0F000220120E8CA20D7EB061C03FB56CFFDED0A
:10F1000032FE171BF029F9EC15F2F533EFC40401B8
:10F11000F821EF0AF5101B101FBA09F5110D26E4AE
:10F1200013AC0709F32406D7E81C00F9EA04021C13
:10F13000F5051F141B0E10DDEFED18171629FD2520
:10F140000BC8F3DA2318DDFFFF30EEEF2FF804F0E1
:10F1500012D6DC23E02E0F28D926FCF212313331EF
:10F16000040F0509190B2E2F22E9E8F8F20626F301
:10F1700011CC0125EA08FE1AE9DBC2191B0D21D0CA
:10F1800014D0E1CFE022D5181BC367000C1A0EE1A2
:10F19000000000E4F080185061000000322217F3F4
:10F1A0002CE144DDEF44E915D5DFAE34080C0CF852
:10F1B000F4190CFC111CE200FC0D0604BD33E5FF44
:10F1C00040E81A1D19F1E713D6382CE0D0F1F2DC33
:10F1D000FC0CE30731D3FB2E13EE06281C10D3FAE8
:10F1E00050BFF821DAF52D0B00F419D9BBEF091344
:10F1F000030BE3ED07C3D1021642DF06E1170A0E47
:10F200000F3408F328C7091126D9DB38F71314F394
:10F21000F91221E234EFDD231BDA1E12C907DEF4F6
:10F22000D4FA24EC1D3026D9A50FB422EA07E21B3C
:10F2300015EE14ECF034FF063413E21818FB132615
:10F2400022C9F31EFAEB1C14FC1116CAFCE90F09C3
:10F2500010DC36F70DE2CFFD01EE11D3BEF209DF6F
:10F26000FF0711BC14FFF92FCA070AF3271CD73672
:10F27000EFC9EC1217EB01FEF412F4FCF604F107EF
:10F28000F8381B0CBB2A0F29271C0130280E160E3C
:10F29000F301F5D4E1FAF732E2D3FFEE23F7EEFE05
:10F2A00006EFF6082EFD29E908E4F11318EC0AFA36
:10F2B000E2FFD6DE10121EBFF2EF00C7FA1B05A454
:10F2C000061A0EF10BFD08E5FCEF060AFCD6203FFE
:10F2D000133141F7C908E01D10FB440A13D2DCE4E6
:10F2E000F72A1003E8D325050404E6F9E5EAF5F763
:10F2F0001B2326F6211CEFECE4F8E6D2F2070C10F3
:10F30000FC0915EB12FA331A0EE6EFF907DCF519D2
:10F31000F804EF00000025E60BD8050000D8202DEA
:10F32000A08118500C000000F4CAE321F00EF30491
:10F33000063EE0E1EE391908E8FE0F050F290E013F
:10F3400000350320040000002C2F090600000000F7
:10F350002F4C300000000012C08118502200000025
:10F360000332D3193DC308FE0B3BE4F6AAF5D620C1
:10F370003EDD32EF3D29070D00E6DDAD2200000045
:10F38000E60ABDC706FDFFFCEBE0FCF7EF07011B3B
:10F3900004E3ED191C141411F8F81B00D823F4E74A
:10F3A000011501EA07FAF5FA1F0EEFF21C05280015
:10F3B000E60CFA06C920051CF3EA15DB01F5F1D1CC
:10F3C000D00239F804FAFAE7B6EFDF01FDE3FFE80F
:10F3D000070328EAFDF2F20BFF26150B00000BFADB
:10F3E000111F190000F00C08008218508101000064
:10F3F0000A0A15FD09FF0B06FFFC1206F6FFF7FCD3
:10F40000FBEAF8FAFCF4FAECF404EC0BFB41ED0631
:10F410000A01EA1EFBB9E6A9E7E608EEF8EBE1D936
:10F42000FFABF9AF1310FBE6F2E8F60DF911F3DCD0
:10F43000F7EDF5F701ED03FB0AF1FAD202D4E5F995
:10F44000FEECF9D502D904F1E3020BE2F1D212F499
:10F45000F1E0EFF0F8FF0C01FCF3FAF5FDFFFDF22F
:10F46000F40CFBECE6061CE802250703FDECEA01C0
:10F47000E215FEF002F40B03F0D6F7C8FEEBF1CB79
:10F48000FD022300E90403E8E313100311F2FB0972
:10F490000D04EC1613E12C021B140C1C13ECF4EB02
:10F4A000EAD7F5FEE017150DFAFCEDE0FFFA0A05C4
:10F4B000F31C05FA0902F1F9010104FFF6FCF2F36D
:10F4C000E61402F5F6DFF403EFF8EB13ECF2F3E2E7
:10F4D0001DACFF0805CD04E5F202F5FF11E5080FAC
:10F4E000E2FBD7EFE121F53AEEF9010F0601EFFF5C
:10F4F000F41FEBFD012CFC08F210FA0FE7E9F827E6
:10F50000E407E90DDB28FC23EDFA0859CF1BECC317
:10F51000E7080A1AE80EDC0F0371F407EF1AF71573
:10F52000F1DFDE40FF300EEBFF04FB1710E4F6992D
:10F53000F407F31FF0FBF50C01010EF30109DBEBFF
:10F540000C120DF9FBFDE12CFBFD03F603FA03F8A9
:10F55000F60FECFFFAF8FDF705F7EEDDF102F90F13
:10F56000F72EE718E111F2F7DDFFDDABF0D507FC70
:10F5700025DF0ACB07F806EA040B09000FFBEBE3D3
:10F58000EBF30012FEDCF9F9F5FEFDE903FD09F1EC
:10F59000FEE0E10B09EF02F2F8FBF4F1F8F70E01DF
:10F5A000E6F70B02F6E2EDE8F8F903E0F2EEE71415
:10F5B000E6ED001001F4EBC9F1F6FBDB05D11DFD12
:10F5C000F0D1F9F8050DEA1105FFE910F1130A0968
:10F5D000F600F419F7E912F9F71AF5ECDCEBF5FB94
:10F5E000EFEC07EDECEC010903F1F5EEFBD7F5F8D4
:10F5F000F90107F209DEF6E609EEFAF10213FFFB64
:10F60000F3CEFCE4ECDDF50101F5E7FDF8DAFECF21
:10F61000DF05EFF9DA0800EEF400E7D301F9D9F8D5
:10F62000F7F108D0FBDDF2EEE503D7FFDB03F3F5DE
:10F63000E7EA00DAE2EBE9EBFEE906E9F5E8F004D7
:10F64000F104F4F5F7F5FD0802D6F10BEE0BECF33F
:10F65000EC13FCC003E8EFF0FAF2D8231519FFDF32
:10F66000F8AAF536F912EEFE0710FEB40317F404FB
:10F67000F4FDE504F9EFFCE30F00F8520D0EF2F88B
:10F6800009E5FBF0F006FAFE00C7FF18F0C3E1D869
:10F6900006C306CA03D605E7F4E4F9D5250EFA0633
:10F6A00004DC10E904EE0ED3F308F72C031BF3EB94
:10F6B00000E7FF090A08E011E4F0E4F6FFF2E9F3DD
:10F6C000FBF0F018F51205E5FA0AFD050BEEE8006F
:10F6D000F502F4EB01F8EBFEF2CCF1FA0FE90100D0
:10F6E0000A0018DB0CECFCD209D9FADAF4ED11D7D8
:10F6F00003F9F1FD0B01EFF3F705F7030C20FD20F3
:10F70000FC03EC050C020A15FEF0FAE404F8020E04
:10F71000EFF0F3F7E518EFD31673FEF9F3FEFFF5FC
:10F72000FA1B010009170FEE091AF2E70216EFF6AD
:10F73000D905FCE20206FCEAED16FFF801FFF9FD2F
:10F74000FFE8F011FC2BF92BF71A15EF0FE4FA1C68
:10F7500000F1E51EC120F8F9FF000211EC19E4F1F7
:10F76000F210EF00EDFEE4FAF519F508FDCBE8FA2A
:10F7700005E0F818F90FFC3B051DE7F2E9F7F0E5A5
:10F78000E40C02F8F8F7F5EC030DF91204ECEEFFC7
:10F79000FE07110405ECFEF4FDFBF3E4F7D4EC07DF
:10F7A000F8FDFAD4FA12EF03F8F3E504FCF8EBF6EF
:10F7B000E723EEF2EE0C08FCEBF7E40C00E3051691
:10F7C000E60D00F6F1F7F80D0BE6F710F40003F183
:10F7D00001F90411FEE80B000307000105E8F9EF49
:10F7E000F5420712062910FD00130435F9F9061831
:10F7F000FD0B04FC01EE16FE08FEE524ED09FA02FD
:10F8000002000A1D0FFAF90CEF18FB080506E809BB
:10F810000AEAEA29CDEBF31213FCF62AF013FAF107
:10F82000E70FE4F6D3F9F9F1EF08E819DF16E3057D
:10F8300008F3FFF8F017F802E7F4FA0103ECF40E0E
:10F84000F61AFEE9F2CE02EFE304F1D7F4F3F7F291
:10F85000EBF1F5F6F8030A200703F915F1F1F3FDD2
:10F860001000F3FA0A0EEDE607F6FAE00CFEF4F9E2
:10F87000EDEDE50BF801F4E7F7F6F10109FDE5FF21
:10F8800001FC0BFF00F4091BFCFEE7E4E4FBF11DA7
:10F89000FBEE080D00FCF5EDE300FDF907F50C3477
:10F8A0000ACDEFD8FBF6FAE8E8FEF501FBD7F10D3B
:10F8B000FA3BEAFCF6F0FD00F4F70FFDD600FEE996
:10F8C00002FFFC1106E0E700EE15F4EE08F90FFA6E
:10F8D000F3180E01F8EBE9E00AFD01F80BF8FADA8B
:10F8E00015F8EDF9060D0A0A16FB0EE1F70AEFF816
:10F8F0000204FFF6F1F5F316FEEC07E5F0FBF8E283
:10F90000F2FFFFEEFAFF02060BF5FFE70B02EC2217
:10F91000F8EBE9F905F8FF0A0300F810EF120BF411
:10F92000FA03F303EC0DE1EC01E70CEEF80EF5023F
:10F93000E2FDE8F40B17FEEDE5F9E90AFDF6E6F263
:10F94000F8E0F9FCFAFFF706F01007FFEF04F8F211
:10F9500008EB04FA03F7F4FF08F3FC00F1EEFBFAFE
:10F96000ECEFFAF70CF9F6F6EDF200E2F0E0F4074E
:10F97000FCFBFA0B02ECF5F3DEF0E5E404D9EDEC68
:10F98000FCE710ECF8F40215F8F6F6DBFFE70207E7
:10F99000E9F4FCF1E8F7F6F8EEE9F7F70213FAEB11
:10F9A000FDEBF3FBE2F00003F4FCF8F4E8F20E11D7
:10F9B00001F8F70E03000311F3FFF0080AFAF1F95A
:10F9C0000AFCFBFD090F09FD0C0A090BDE040F0BF5
:10F9D000EF06ED02F0EEF608F704EFF2FD010D0977
:10F9E00000FD0514F40001010000FC061BFC0A00E8
:10F9F00000FCF40300C018508100000003371B0D09
:10FA00001510EECEB81F0ED815B50C3AE7F40BEF73
:10FA1000DD11DDEFC0EEF109D817D9C941FB5D2238
:10FA2000D8F73F0EED0F0AEADB1800FCEFF012C426
:10FA3000ED0E034021000717FAF6FCF5011901FB52
:10FA4000F516CE23D6F01C271301F602271B281724
:10FA5000DFEEE63921240FF01A2CD1FBBC29FBE99B
:10FA6000C60106EEE7FFF548DE1D03F03647141920
:10FA70003A0F15DFE1DA3AF11CD9EFFC0AB9E918BF
:10FA80000CEFE5C909EAF91CFBECF1FDCD190DE617
:10FA900009E2EC10D3FD1CE2FEF1879A170502087B
:10FAA00008EFA8FD03E9080FF91C33B90CEC0808AE
:10FAB00023ECF53F20CFFB1F0ACC110C1EDB2AD80C
:10FAC00025032720EA0AC9EC0904EEDC22F5CBFA6B
:10FAD0000648FB1D141DEEE8EA1BF620C9D8CB052D
:10FAE00007F910D90FF705D9DCF8EEE9F42843043B
:10FAF0001D121112370AFFE3EB1EEC6AC4E201F695
:10FB0000D304112E28F810082CED56EBF10105EB6B
:10FB1000F6CAFB0EDE1A0F27EAF72DDC1CF40113E0
:10FB2000EE20E6010C05E9EA0DBE2638230216E1B7
:10FB3000F8CC06001BD9D5142921E61E0FDAB92D01
:10FB400051C81C0DE2C7FCE0FA1F1E5605E70B0F5B
:10FB5000F03A0501C7F21FE2DF01F1331D2107F77B
:10FB6000EDCF00D4EA2FF1200B375BEBE0BBF911AE
:10FB7000DFFCCA1D1411033523F3091AEE04F3E860
:10FB80002A0BF2E505D559EBDA32EF1C1D04210AE8
:10FB90002D3BF0FB1E01C8EB0612EC1A06FB1029E8
:10FBA000131A04103701E4F5E4F8C6CE0BCF07EFC3
:10FBB000AD17190EEF0144CF0FEBEAE4DC00E40EC1
:10FBC000D219E435E73608F3DABD13CDF2F80AD7D7
:10FBD0002C03DF2B10201023BAF4FD23F9E3D424E7
